{
  "contractName": "ParallelWorld",
  "abi": [
    {
      "constant": true,
      "inputs": [
        {
          "name": "_itemId",
          "type": "uint256"
        }
      ],
      "name": "tokenExists",
      "outputs": [
        {
          "name": "_exists",
          "type": "bool"
        }
      ],
      "payable": false,
      "stateMutability": "view",
      "type": "function"
    },
    {
      "constant": true,
      "inputs": [
        {
          "name": "_itemId",
          "type": "uint256"
        }
      ],
      "name": "nameOf",
      "outputs": [
        {
          "name": "_name",
          "type": "bytes32"
        }
      ],
      "payable": false,
      "stateMutability": "view",
      "type": "function"
    },
    {
      "constant": true,
      "inputs": [],
      "name": "name",
      "outputs": [
        {
          "name": "_name",
          "type": "string"
        }
      ],
      "payable": false,
      "stateMutability": "pure",
      "type": "function"
    },
    {
      "constant": true,
      "inputs": [],
      "name": "getenddate",
      "outputs": [
        {
          "name": "_enddate",
          "type": "uint256"
        }
      ],
      "payable": false,
      "stateMutability": "view",
      "type": "function"
    },
    {
      "constant": false,
      "inputs": [
        {
          "name": "_to",
          "type": "address"
        },
        {
          "name": "_itemId",
          "type": "uint256"
        }
      ],
      "name": "approve",
      "outputs": [],
      "payable": false,
      "stateMutability": "nonpayable",
      "type": "function"
    },
    {
      "constant": false,
      "inputs": [
        {
          "name": "_itemIds",
          "type": "uint256[]"
        },
        {
          "name": "_price",
          "type": "uint256"
        },
        {
          "name": "_owner",
          "type": "address"
        },
        {
          "name": "_nameofItem",
          "type": "bytes32[]"
        }
      ],
      "name": "listMultipleItems",
      "outputs": [],
      "payable": false,
      "stateMutability": "nonpayable",
      "type": "function"
    },
    {
      "constant": true,
      "inputs": [],
      "name": "implementsERC721",
      "outputs": [
        {
          "name": "_implements",
          "type": "bool"
        }
      ],
      "payable": false,
      "stateMutability": "view",
      "type": "function"
    },
    {
      "constant": false,
      "inputs": [
        {
          "name": "_owner",
          "type": "address"
        }
      ],
      "name": "setOwner",
      "outputs": [],
      "payable": false,
      "stateMutability": "nonpayable",
      "type": "function"
    },
    {
      "constant": false,
      "inputs": [
        {
          "name": "_admin",
          "type": "address"
        }
      ],
      "name": "removeAdmin",
      "outputs": [],
      "payable": false,
      "stateMutability": "nonpayable",
      "type": "function"
    },
    {
      "constant": true,
      "inputs": [],
      "name": "totalSupply",
      "outputs": [
        {
          "name": "_totalSupply",
          "type": "uint256"
        }
      ],
      "payable": false,
      "stateMutability": "view",
      "type": "function"
    },
    {
      "constant": false,
      "inputs": [
        {
          "name": "_itemRegistry",
          "type": "address"
        }
      ],
      "name": "setItemRegistry",
      "outputs": [],
      "payable": false,
      "stateMutability": "nonpayable",
      "type": "function"
    },
    {
      "constant": false,
      "inputs": [
        {
          "name": "_from",
          "type": "address"
        },
        {
          "name": "_to",
          "type": "address"
        },
        {
          "name": "_itemId",
          "type": "uint256"
        }
      ],
      "name": "transferFrom",
      "outputs": [],
      "payable": false,
      "stateMutability": "nonpayable",
      "type": "function"
    },
    {
      "constant": true,
      "inputs": [
        {
          "name": "_admin",
          "type": "address"
        }
      ],
      "name": "isAdmin",
      "outputs": [
        {
          "name": "_isAdmin",
          "type": "bool"
        }
      ],
      "payable": false,
      "stateMutability": "view",
      "type": "function"
    },
    {
      "constant": true,
      "inputs": [
        {
          "name": "_itemId",
          "type": "uint256"
        }
      ],
      "name": "approvedFor",
      "outputs": [
        {
          "name": "_approved",
          "type": "address"
        }
      ],
      "payable": false,
      "stateMutability": "view",
      "type": "function"
    },
    {
      "constant": true,
      "inputs": [
        {
          "name": "_itemId",
          "type": "uint256"
        }
      ],
      "name": "allOf",
      "outputs": [
        {
          "name": "_itemIdreturn",
          "type": "uint256"
        },
        {
          "name": "_owner",
          "type": "address"
        },
        {
          "name": "_startingPrice",
          "type": "uint256"
        },
        {
          "name": "_price",
          "type": "uint256"
        },
        {
          "name": "_nextPrice",
          "type": "uint256"
        },
        {
          "name": "_name",
          "type": "bytes32"
        }
      ],
      "payable": false,
      "stateMutability": "view",
      "type": "function"
    },
    {
      "constant": false,
      "inputs": [
        {
          "name": "_itemId",
          "type": "uint256"
        }
      ],
      "name": "listItemFromRegistry",
      "outputs": [],
      "payable": false,
      "stateMutability": "nonpayable",
      "type": "function"
    },
    {
      "constant": false,
      "inputs": [
        {
          "name": "_itemId",
          "type": "uint256"
        }
      ],
      "name": "awardprize",
      "outputs": [],
      "payable": false,
      "stateMutability": "nonpayable",
      "type": "function"
    },
    {
      "constant": true,
      "inputs": [],
      "name": "getlistedItems",
      "outputs": [
        {
          "name": "_listedItems",
          "type": "uint256[]"
        }
      ],
      "payable": false,
      "stateMutability": "view",
      "type": "function"
    },
    {
      "constant": false,
      "inputs": [
        {
          "name": "_ownerAddress",
          "type": "address"
        },
        {
          "name": "_ownerAlias",
          "type": "bytes32"
        },
        {
          "name": "_ownerEmail",
          "type": "bytes32"
        },
        {
          "name": "_ownerPhone",
          "type": "bytes32"
        }
      ],
      "name": "setownerInfo",
      "outputs": [],
      "payable": false,
      "stateMutability": "nonpayable",
      "type": "function"
    },
    {
      "constant": true,
      "inputs": [
        {
          "name": "_from",
          "type": "uint256"
        },
        {
          "name": "_take",
          "type": "uint256"
        }
      ],
      "name": "itemsForSaleLimit",
      "outputs": [
        {
          "name": "_items",
          "type": "uint256[]"
        }
      ],
      "payable": false,
      "stateMutability": "view",
      "type": "function"
    },
    {
      "constant": true,
      "inputs": [
        {
          "name": "_owner",
          "type": "address"
        }
      ],
      "name": "tokensOf",
      "outputs": [
        {
          "name": "_tokenIds",
          "type": "uint256[]"
        }
      ],
      "payable": false,
      "stateMutability": "view",
      "type": "function"
    },
    {
      "constant": true,
      "inputs": [
        {
          "name": "_itemId",
          "type": "uint256"
        }
      ],
      "name": "nextPriceOf",
      "outputs": [
        {
          "name": "_nextPrice",
          "type": "uint256"
        }
      ],
      "payable": false,
      "stateMutability": "view",
      "type": "function"
    },
    {
      "constant": true,
      "inputs": [
        {
          "name": "_itemId",
          "type": "uint256"
        }
      ],
      "name": "ownerOf",
      "outputs": [
        {
          "name": "_owner",
          "type": "address"
        }
      ],
      "payable": false,
      "stateMutability": "view",
      "type": "function"
    },
    {
      "constant": true,
      "inputs": [
        {
          "name": "_price",
          "type": "uint256"
        }
      ],
      "name": "calculateDevCut",
      "outputs": [
        {
          "name": "_devCut",
          "type": "uint256"
        }
      ],
      "payable": false,
      "stateMutability": "view",
      "type": "function"
    },
    {
      "constant": false,
      "inputs": [
        {
          "name": "_itemId",
          "type": "uint256"
        },
        {
          "name": "_price",
          "type": "uint256"
        },
        {
          "name": "_owner",
          "type": "address"
        },
        {
          "name": "_nameofItem",
          "type": "bytes32"
        }
      ],
      "name": "listItem",
      "outputs": [],
      "payable": false,
      "stateMutability": "nonpayable",
      "type": "function"
    },
    {
      "constant": true,
      "inputs": [
        {
          "name": "_price",
          "type": "uint256"
        }
      ],
      "name": "calculatePrizeCut",
      "outputs": [
        {
          "name": "_devCut",
          "type": "uint256"
        }
      ],
      "payable": false,
      "stateMutability": "view",
      "type": "function"
    },
    {
      "constant": false,
      "inputs": [
        {
          "name": "_admin",
          "type": "address"
        }
      ],
      "name": "addAdmin",
      "outputs": [],
      "payable": false,
      "stateMutability": "nonpayable",
      "type": "function"
    },
    {
      "constant": true,
      "inputs": [
        {
          "name": "_owner",
          "type": "address"
        }
      ],
      "name": "balanceOf",
      "outputs": [
        {
          "name": "_balance",
          "type": "uint256"
        }
      ],
      "payable": false,
      "stateMutability": "view",
      "type": "function"
    },
    {
      "constant": false,
      "inputs": [],
      "name": "enableERC721",
      "outputs": [],
      "payable": false,
      "stateMutability": "nonpayable",
      "type": "function"
    },
    {
      "constant": true,
      "inputs": [],
      "name": "getOwner",
      "outputs": [
        {
          "name": "",
          "type": "address"
        }
      ],
      "payable": false,
      "stateMutability": "view",
      "type": "function"
    },
    {
      "constant": false,
      "inputs": [
        {
          "name": "_itemIds",
          "type": "uint256[]"
        }
      ],
      "name": "populateFromItemRegistry",
      "outputs": [],
      "payable": false,
      "stateMutability": "nonpayable",
      "type": "function"
    },
    {
      "constant": true,
      "inputs": [],
      "name": "symbol",
      "outputs": [
        {
          "name": "_symbol",
          "type": "string"
        }
      ],
      "payable": false,
      "stateMutability": "pure",
      "type": "function"
    },
    {
      "constant": false,
      "inputs": [
        {
          "name": "_itemId",
          "type": "uint256"
        },
        {
          "name": "_price",
          "type": "uint256"
        }
      ],
      "name": "addItem",
      "outputs": [
        {
          "name": "_pricereturn",
          "type": "uint256"
        }
      ],
      "payable": false,
      "stateMutability": "nonpayable",
      "type": "function"
    },
    {
      "constant": false,
      "inputs": [
        {
          "name": "_to",
          "type": "address"
        },
        {
          "name": "_itemId",
          "type": "uint256"
        }
      ],
      "name": "transfer",
      "outputs": [],
      "payable": false,
      "stateMutability": "nonpayable",
      "type": "function"
    },
    {
      "constant": true,
      "inputs": [
        {
          "name": "_itemId",
          "type": "uint256"
        }
      ],
      "name": "startingPriceOf",
      "outputs": [
        {
          "name": "_startingPrice",
          "type": "uint256"
        }
      ],
      "payable": false,
      "stateMutability": "view",
      "type": "function"
    },
    {
      "constant": true,
      "inputs": [],
      "name": "getprizeamount",
      "outputs": [
        {
          "name": "_prizeamount",
          "type": "uint256"
        }
      ],
      "payable": false,
      "stateMutability": "view",
      "type": "function"
    },
    {
      "constant": true,
      "inputs": [
        {
          "name": "_itemId",
          "type": "uint256"
        }
      ],
      "name": "priceOf",
      "outputs": [
        {
          "name": "_price",
          "type": "uint256"
        }
      ],
      "payable": false,
      "stateMutability": "view",
      "type": "function"
    },
    {
      "constant": true,
      "inputs": [
        {
          "name": "_owner",
          "type": "address"
        }
      ],
      "name": "getownerInfo",
      "outputs": [
        {
          "name": "_name",
          "type": "bytes32"
        },
        {
          "name": "_email",
          "type": "bytes32"
        },
        {
          "name": "_phone",
          "type": "bytes32"
        }
      ],
      "payable": false,
      "stateMutability": "view",
      "type": "function"
    },
    {
      "constant": true,
      "inputs": [],
      "name": "enddate",
      "outputs": [
        {
          "name": "",
          "type": "uint256"
        }
      ],
      "payable": false,
      "stateMutability": "view",
      "type": "function"
    },
    {
      "constant": false,
      "inputs": [
        {
          "name": "_referraltokencontract",
          "type": "address"
        }
      ],
      "name": "setReferralTokenContract",
      "outputs": [],
      "payable": false,
      "stateMutability": "nonpayable",
      "type": "function"
    },
    {
      "constant": false,
      "inputs": [
        {
          "name": "_itemId",
          "type": "uint256"
        }
      ],
      "name": "buy",
      "outputs": [],
      "payable": true,
      "stateMutability": "payable",
      "type": "function"
    },
    {
      "constant": true,
      "inputs": [
        {
          "name": "_price",
          "type": "uint256"
        }
      ],
      "name": "calculateNextPrice",
      "outputs": [
        {
          "name": "_nextPrice",
          "type": "uint256"
        }
      ],
      "payable": false,
      "stateMutability": "view",
      "type": "function"
    },
    {
      "constant": true,
      "inputs": [],
      "name": "referraltokencontract",
      "outputs": [
        {
          "name": "",
          "type": "address"
        }
      ],
      "payable": false,
      "stateMutability": "view",
      "type": "function"
    },
    {
      "inputs": [],
      "payable": false,
      "stateMutability": "nonpayable",
      "type": "constructor"
    },
    {
      "anonymous": false,
      "inputs": [
        {
          "indexed": true,
          "name": "_itemId",
          "type": "uint256"
        },
        {
          "indexed": false,
          "name": "_price",
          "type": "uint256"
        },
        {
          "indexed": true,
          "name": "_oldowner",
          "type": "address"
        },
        {
          "indexed": true,
          "name": "_newowner",
          "type": "address"
        }
      ],
      "name": "TransactionOccured",
      "type": "event"
    },
    {
      "anonymous": false,
      "inputs": [
        {
          "indexed": true,
          "name": "_itemId",
          "type": "uint256"
        },
        {
          "indexed": true,
          "name": "_owner",
          "type": "address"
        },
        {
          "indexed": false,
          "name": "_price",
          "type": "uint256"
        }
      ],
      "name": "Bought",
      "type": "event"
    },
    {
      "anonymous": false,
      "inputs": [
        {
          "indexed": true,
          "name": "_itemId",
          "type": "uint256"
        },
        {
          "indexed": true,
          "name": "_owner",
          "type": "address"
        },
        {
          "indexed": false,
          "name": "_price",
          "type": "uint256"
        }
      ],
      "name": "Sold",
      "type": "event"
    },
    {
      "anonymous": false,
      "inputs": [
        {
          "indexed": true,
          "name": "_from",
          "type": "address"
        },
        {
          "indexed": true,
          "name": "_to",
          "type": "address"
        },
        {
          "indexed": false,
          "name": "_tokenId",
          "type": "uint256"
        }
      ],
      "name": "Transfer",
      "type": "event"
    },
    {
      "anonymous": false,
      "inputs": [
        {
          "indexed": true,
          "name": "_owner",
          "type": "address"
        },
        {
          "indexed": true,
          "name": "_approved",
          "type": "address"
        },
        {
          "indexed": false,
          "name": "_tokenId",
          "type": "uint256"
        }
      ],
      "name": "Approval",
      "type": "event"
    }
  ],
  "bytecode": "0x60606040526000600360146101000a81548160ff02191690831515021790555066470de4df8200006004556706f05b59d3b20000600555671bc16d674ec80000600655674563918244f40000600755635b0c9800600855341561006157600080fd5b336000806101000a81548173ffffffffffffffffffffffffffffffffffffffff021916908373ffffffffffffffffffffffffffffffffffffffff1602179055506001600260008060009054906101000a900473ffffffffffffffffffffffffffffffffffffffff1673ffffffffffffffffffffffffffffffffffffffff1673ffffffffffffffffffffffffffffffffffffffff16815260200190815260200160002060006101000a81548160ff0219169083151502179055506130f8806101296000396000f30060606040526004361061020e576000357c0100000000000000000000000000000000000000000000000000000000900463ffffffff168062923f9e14610213578063051a26641461024e57806306fdde031461028d5780630757114e1461031b578063095ea7b3146103445780630f3e18c8146103865780631051db34146103f057806313af40351461041d5780631785f53c1461045657806318160ddd1461048f5780631fe8500e146104b857806323b872dd146104f157806324d7806c146105525780632a6dd48f146105a35780632e4f43bf1461060657806337525ff014610694578063443f45a4146106b757806349386f26146106da5780634a701fc3146107445780635435bac8146107a45780635a3f2672146108255780635ba9e48e146108b35780636352211e146108ea578063651212051461094d578063654c73811461098457806365d73851146109dc5780637048027514610a1357806370a0823114610a4c57806371dc761e14610a99578063893d20e814610aae5780638f88aed014610b0357806395d89b4114610b5d578063a212523214610beb578063a9059cbb14610c2b578063af7520b914610c6d578063b3f3668c14610ca4578063b9186d7d14610ccd578063bd4cfadf14610d04578063c588953e14610d77578063c983893014610da0578063d96a094a14610dd9578063e08503ec14610df1578063fd03e72114610e28575b600080fd5b341561021e57600080fd5b6102346004808035906020019091905050610e7d565b604051808215151515815260200191505060405180910390f35b341561025957600080fd5b61026f6004808035906020019091905050610e91565b60405180826000191660001916815260200191505060405180910390f35b341561029857600080fd5b6102a0610eae565b6040518080602001828103825283818151815260200191508051906020019080838360005b838110156102e05780820151818401526020810190506102c5565b50505050905090810190601f16801561030d5780820380516001836020036101000a031916815260200191505b509250505060405180910390f35b341561032657600080fd5b61032e610ef1565b6040518082815260200191505060405180910390f35b341561034f57600080fd5b610384600480803573ffffffffffffffffffffffffffffffffffffffff16906020019091908035906020019091905050610efb565b005b341561039157600080fd5b6103ee6004808035906020019082018035906020019190919290803590602001909190803573ffffffffffffffffffffffffffffffffffffffff169060200190919080359060200190820180359060200191909192905050611161565b005b34156103fb57600080fd5b610403611219565b604051808215151515815260200191505060405180910390f35b341561042857600080fd5b610454600480803573ffffffffffffffffffffffffffffffffffffffff16906020019091905050611230565b005b341561046157600080fd5b61048d600480803573ffffffffffffffffffffffffffffffffffffffff169060200190919050506112ce565b005b341561049a57600080fd5b6104a261137b565b6040518082815260200191505060405180910390f35b34156104c357600080fd5b6104ef600480803573ffffffffffffffffffffffffffffffffffffffff16906020019091905050611388565b005b34156104fc57600080fd5b610550600480803573ffffffffffffffffffffffffffffffffffffffff1690602001909190803573ffffffffffffffffffffffffffffffffffffffff16906020019091908035906020019091905050611427565b005b341561055d57600080fd5b610589600480803573ffffffffffffffffffffffffffffffffffffffff16906020019091905050611494565b604051808215151515815260200191505060405180910390f35b34156105ae57600080fd5b6105c460048080359060200190919050506114ea565b604051808273ffffffffffffffffffffffffffffffffffffffff1673ffffffffffffffffffffffffffffffffffffffff16815260200191505060405180910390f35b341561061157600080fd5b6106276004808035906020019091905050611527565b604051808781526020018673ffffffffffffffffffffffffffffffffffffffff1673ffffffffffffffffffffffffffffffffffffffff1681526020018581526020018481526020018381526020018260001916600019168152602001965050505050505060405180910390f35b341561069f57600080fd5b6106b56004808035906020019091905050611573565b005b34156106c257600080fd5b6106d86004808035906020019091905050611ade565b005b34156106e557600080fd5b6106ed611bdf565b6040518080602001828103825283818151815260200191508051906020019060200280838360005b83811015610730578082015181840152602081019050610715565b505050509050019250505060405180910390f35b341561074f57600080fd5b6107a2600480803573ffffffffffffffffffffffffffffffffffffffff16906020019091908035600019169060200190919080356000191690602001909190803560001916906020019091905050611c3d565b005b34156107af57600080fd5b6107ce6004808035906020019091908035906020019091905050611d1b565b6040518080602001828103825283818151815260200191508051906020019060200280838360005b838110156108115780820151818401526020810190506107f6565b505050509050019250505060405180910390f35b341561083057600080fd5b61085c600480803573ffffffffffffffffffffffffffffffffffffffff16906020019091905050611dac565b6040518080602001828103825283818151815260200191508051906020019060200280838360005b8381101561089f578082015181840152602081019050610884565b505050509050019250505060405180910390f35b34156108be57600080fd5b6108d46004808035906020019091905050611eaa565b6040518082815260200191505060405180910390f35b34156108f557600080fd5b61090b6004808035906020019091905050611ec4565b604051808273ffffffffffffffffffffffffffffffffffffffff1673ffffffffffffffffffffffffffffffffffffffff16815260200191505060405180910390f35b341561095857600080fd5b61096e6004808035906020019091905050611f01565b6040518082815260200191505060405180910390f35b341561098f57600080fd5b6109da600480803590602001909190803590602001909190803573ffffffffffffffffffffffffffffffffffffffff1690602001909190803560001916906020019091905050611f31565b005b34156109e757600080fd5b6109fd60048080359060200190919050506120f5565b6040518082815260200191505060405180910390f35b3415610a1e57600080fd5b610a4a600480803573ffffffffffffffffffffffffffffffffffffffff16906020019091905050612206565b005b3415610a5757600080fd5b610a83600480803573ffffffffffffffffffffffffffffffffffffffff169060200190919050506122bc565b6040518082815260200191505060405180910390f35b3415610aa457600080fd5b610aac61234c565b005b3415610ab957600080fd5b610ac16123c4565b604051808273ffffffffffffffffffffffffffffffffffffffff1673ffffffffffffffffffffffffffffffffffffffff16815260200191505060405180910390f35b3415610b0e57600080fd5b610b5b6004808035906020019082018035906020019080806020026020016040519081016040528093929190818152602001838360200280828437820191505050505050919050506123ed565b005b3415610b6857600080fd5b610b70612597565b6040518080602001828103825283818151815260200191508051906020019080838360005b83811015610bb0578082015181840152602081019050610b95565b50505050905090810190601f168015610bdd5780820380516001836020036101000a031916815260200191505b509250505060405180910390f35b3415610bf657600080fd5b610c1560048080359060200190919080359060200190919050506125da565b6040518082815260200191505060405180910390f35b3415610c3657600080fd5b610c6b600480803573ffffffffffffffffffffffffffffffffffffffff16906020019091908035906020019091905050612668565b005b3415610c7857600080fd5b610c8e60048080359060200190919050506126d4565b6040518082815260200191505060405180910390f35b3415610caf57600080fd5b610cb76126f1565b6040518082815260200191505060405180910390f35b3415610cd857600080fd5b610cee6004808035906020019091905050612710565b6040518082815260200191505060405180910390f35b3415610d0f57600080fd5b610d3b600480803573ffffffffffffffffffffffffffffffffffffffff1690602001909190505061272d565b60405180846000191660001916815260200183600019166000191681526020018260001916600019168152602001935050505060405180910390f35b3415610d8257600080fd5b610d8a6127ff565b6040518082815260200191505060405180910390f35b3415610dab57600080fd5b610dd7600480803573ffffffffffffffffffffffffffffffffffffffff16906020019091905050612805565b005b610def60048080359060200190919050506128a4565b005b3415610dfc57600080fd5b610e126004808035906020019091905050612cbe565b6040518082815260200191505060405180910390f35b3415610e3357600080fd5b610e3b612dcf565b604051808273ffffffffffffffffffffffffffffffffffffffff1673ffffffffffffffffffffffffffffffffffffffff16815260200191505060405180910390f35b600080610e8983612710565b119050919050565b6000600e6000838152602001908152602001600020549050919050565b610eb6613053565b6040805190810160405280600e81526020017f506172616c6c656c20576f726c64000000000000000000000000000000000000815250905090565b6000600854905090565b600360149054906101000a900460ff161515610f1657600080fd5b8173ffffffffffffffffffffffffffffffffffffffff163373ffffffffffffffffffffffffffffffffffffffff1614151515610f5157600080fd5b610f5a81610e7d565b1515610f6557600080fd5b3373ffffffffffffffffffffffffffffffffffffffff16610f8582611ec4565b73ffffffffffffffffffffffffffffffffffffffff16141515610fa757600080fd5b60008273ffffffffffffffffffffffffffffffffffffffff1614156110a5576000600d600083815260200190815260200160002060009054906101000a900473ffffffffffffffffffffffffffffffffffffffff1673ffffffffffffffffffffffffffffffffffffffff161415156110a057600d600082815260200190815260200160002060006101000a81549073ffffffffffffffffffffffffffffffffffffffff021916905560003373ffffffffffffffffffffffffffffffffffffffff167f8c5be1e5ebec7d5bd14f71427d1e84f3dd0314c0f7b2291e5b200ac8c7c3b925836040518082815260200191505060405180910390a35b61115d565b81600d600083815260200190815260200160002060006101000a81548173ffffffffffffffffffffffffffffffffffffffff021916908373ffffffffffffffffffffffffffffffffffffffff1602179055508173ffffffffffffffffffffffffffffffffffffffff163373ffffffffffffffffffffffffffffffffffffffff167f8c5be1e5ebec7d5bd14f71427d1e84f3dd0314c0f7b2291e5b200ac8c7c3b925836040518082815260200191505060405180910390a35b5050565b6000600260003373ffffffffffffffffffffffffffffffffffffffff1673ffffffffffffffffffffffffffffffffffffffff16815260200190815260200160002060009054906101000a900460ff1615156111bb57600080fd5b600090505b868690508110156112105761120387878381811015156111dc57fe5b90506020020135868686868681811015156111f357fe5b9050602002013560001916611f31565b80806001019150506111c0565b50505050505050565b6000600360149054906101000a900460ff16905090565b3373ffffffffffffffffffffffffffffffffffffffff166000809054906101000a900473ffffffffffffffffffffffffffffffffffffffff1673ffffffffffffffffffffffffffffffffffffffff1614151561128b57600080fd5b806000806101000a81548173ffffffffffffffffffffffffffffffffffffffff021916908373ffffffffffffffffffffffffffffffffffffffff16021790555050565b3373ffffffffffffffffffffffffffffffffffffffff166000809054906101000a900473ffffffffffffffffffffffffffffffffffffffff1673ffffffffffffffffffffffffffffffffffffffff1614151561132957600080fd5b600260008273ffffffffffffffffffffffffffffffffffffffff1673ffffffffffffffffffffffffffffffffffffffff16815260200190815260200160002060006101000a81549060ff021916905550565b6000600980549050905090565b3373ffffffffffffffffffffffffffffffffffffffff166000809054906101000a900473ffffffffffffffffffffffffffffffffffffffff1673ffffffffffffffffffffffffffffffffffffffff161415156113e357600080fd5b80600360006101000a81548173ffffffffffffffffffffffffffffffffffffffff021916908373ffffffffffffffffffffffffffffffffffffffff16021790555050565b600360149054906101000a900460ff16151561144257600080fd5b3373ffffffffffffffffffffffffffffffffffffffff16611462826114ea565b73ffffffffffffffffffffffffffffffffffffffff1614151561148457600080fd5b61148f838383612df5565b505050565b6000600260008373ffffffffffffffffffffffffffffffffffffffff1673ffffffffffffffffffffffffffffffffffffffff16815260200190815260200160002060009054906101000a900460ff169050919050565b6000600d600083815260200190815260200160002060009054906101000a900473ffffffffffffffffffffffffffffffffffffffff169050919050565b6000806000806000808661153a88611ec4565b611543896126d4565b61154c8a612710565b6115558b611eaa565b61155e8c610e91565b95509550955095509550955091939550919395565b60008060003373ffffffffffffffffffffffffffffffffffffffff166000809054906101000a900473ffffffffffffffffffffffffffffffffffffffff1673ffffffffffffffffffffffffffffffffffffffff161415156115d357600080fd5b600073ffffffffffffffffffffffffffffffffffffffff16600360009054906101000a900473ffffffffffffffffffffffffffffffffffffffff1673ffffffffffffffffffffffffffffffffffffffff161415151561163157600080fd5b600073ffffffffffffffffffffffffffffffffffffffff16600360009054906101000a900473ffffffffffffffffffffffffffffffffffffffff1673ffffffffffffffffffffffffffffffffffffffff16636352211e866000604051602001526040518263ffffffff167c010000000000000000000000000000000000000000000000000000000002815260040180828152602001915050602060405180830381600087803b15156116e257600080fd5b6102c65a03f115156116f357600080fd5b5050506040518051905073ffffffffffffffffffffffffffffffffffffffff161415151561172057600080fd5b6000600360009054906101000a900473ffffffffffffffffffffffffffffffffffffffff1673ffffffffffffffffffffffffffffffffffffffff1663b9186d7d866000604051602001526040518263ffffffff167c010000000000000000000000000000000000000000000000000000000002815260040180828152602001915050602060405180830381600087803b15156117bb57600080fd5b6102c65a03f115156117cc57600080fd5b505050604051805190501115156117e257600080fd5b6000600360009054906101000a900473ffffffffffffffffffffffffffffffffffffffff1673ffffffffffffffffffffffffffffffffffffffff1663051a2664866000604051602001526040518263ffffffff167c010000000000000000000000000000000000000000000000000000000002815260040180828152602001915050602060405180830381600087803b151561187d57600080fd5b6102c65a03f1151561188e57600080fd5b5050506040518051905050602060ff161115156118aa57600080fd5b600360009054906101000a900473ffffffffffffffffffffffffffffffffffffffff1673ffffffffffffffffffffffffffffffffffffffff1663b9186d7d856000604051602001526040518263ffffffff167c010000000000000000000000000000000000000000000000000000000002815260040180828152602001915050602060405180830381600087803b151561194357600080fd5b6102c65a03f1151561195457600080fd5b505050604051805190509250600360009054906101000a900473ffffffffffffffffffffffffffffffffffffffff1673ffffffffffffffffffffffffffffffffffffffff16636352211e856000604051602001526040518263ffffffff167c010000000000000000000000000000000000000000000000000000000002815260040180828152602001915050602060405180830381600087803b15156119f957600080fd5b6102c65a03f11515611a0a57600080fd5b505050604051805190509150600360009054906101000a900473ffffffffffffffffffffffffffffffffffffffff1673ffffffffffffffffffffffffffffffffffffffff1663051a2664856000604051602001526040518263ffffffff167c010000000000000000000000000000000000000000000000000000000002815260040180828152602001915050602060405180830381600087803b1515611aaf57600080fd5b6102c65a03f11515611ac057600080fd5b505050604051805190509050611ad884848484611f31565b50505050565b60003373ffffffffffffffffffffffffffffffffffffffff166000809054906101000a900473ffffffffffffffffffffffffffffffffffffffff1673ffffffffffffffffffffffffffffffffffffffff16141515611b3b57600080fd5b3073ffffffffffffffffffffffffffffffffffffffff163190503073ffffffffffffffffffffffffffffffffffffffff16611b7583611ec4565b73ffffffffffffffffffffffffffffffffffffffff16141515611bdb57611b9b82611ec4565b73ffffffffffffffffffffffffffffffffffffffff166108fc829081150290604051600060405180830381858888f193505050501515611bda57600080fd5b5b5050565b611be7613067565b6009805480602002602001604051908101604052809291908181526020018280548015611c3357602002820191906000526020600020905b815481526020019060010190808311611c1f575b5050505050905090565b82600f60008673ffffffffffffffffffffffffffffffffffffffff1673ffffffffffffffffffffffffffffffffffffffff168152602001908152602001600020816000191690555081601060008673ffffffffffffffffffffffffffffffffffffffff1673ffffffffffffffffffffffffffffffffffffffff168152602001908152602001600020816000191690555080601160008673ffffffffffffffffffffffffffffffffffffffff1673ffffffffffffffffffffffffffffffffffffffff168152602001908152602001600020816000191690555050505050565b611d23613067565b611d2b613067565b600083604051805910611d3b5750595b90808252806020026020018201604052509150600090505b83811015611da1576009818601815481101515611d6c57fe5b9060005260206000209001548282815181101515611d8657fe5b90602001906020020181815250508080600101915050611d53565b819250505092915050565b611db4613067565b611dbc613067565b600080611dc8856122bc565b604051805910611dd55750595b9080825280602002602001820160405250925060009150600090505b600980549050811015611e9f578473ffffffffffffffffffffffffffffffffffffffff16611e38600983815481101515611e2757fe5b906000526020600020900154611ec4565b73ffffffffffffffffffffffffffffffffffffffff161415611e9257600981815481101515611e6357fe5b9060005260206000209001548383815181101515611e7d57fe5b90602001906020020181815250506001820191505b8080600101915050611df1565b829350505050919050565b6000611ebd611eb883612710565b612cbe565b9050919050565b6000600a600083815260200190815260200160002060009054906101000a900473ffffffffffffffffffffffffffffffffffffffff169050919050565b6000611f2a6064611f1c600a85612fd190919063ffffffff16565b61300c90919063ffffffff16565b9050919050565b600260003373ffffffffffffffffffffffffffffffffffffffff1673ffffffffffffffffffffffffffffffffffffffff16815260200190815260200160002060009054906101000a900460ff161515611f8957600080fd5b600083111515611f9857600080fd5b6000600c600086815260200190815260200160002054141515611fba57600080fd5b600073ffffffffffffffffffffffffffffffffffffffff16600a600086815260200190815260200160002060009054906101000a900473ffffffffffffffffffffffffffffffffffffffff1673ffffffffffffffffffffffffffffffffffffffff1614151561202857600080fd5b30600a600086815260200190815260200160002060006101000a81548173ffffffffffffffffffffffffffffffffffffffff021916908373ffffffffffffffffffffffffffffffffffffffff16021790555082600c60008681526020019081526020016000208190555082600b60008681526020019081526020016000208190555080600e60008681526020019081526020016000208160001916905550600980548060010182816120da919061307b565b91600052602060002090016000869091909150555050505050565b600060045482101561212f57612128606461211a601a85612fd190919063ffffffff16565b61300c90919063ffffffff16565b9050612201565b600554821015612167576121606064612152600e85612fd190919063ffffffff16565b61300c90919063ffffffff16565b9050612201565b60065482101561219f57612198606461218a600a85612fd190919063ffffffff16565b61300c90919063ffffffff16565b9050612201565b6007548210156121d7576121d060646121c2600885612fd190919063ffffffff16565b61300c90919063ffffffff16565b9050612201565b6121fe60646121f0600785612fd190919063ffffffff16565b61300c90919063ffffffff16565b90505b919050565b3373ffffffffffffffffffffffffffffffffffffffff166000809054906101000a900473ffffffffffffffffffffffffffffffffffffffff1673ffffffffffffffffffffffffffffffffffffffff1614151561226157600080fd5b6001600260008373ffffffffffffffffffffffffffffffffffffffff1673ffffffffffffffffffffffffffffffffffffffff16815260200190815260200160002060006101000a81548160ff02191690831515021790555050565b6000806000809150600090505b600980549050811015612342578373ffffffffffffffffffffffffffffffffffffffff166123106009838154811015156122ff57fe5b906000526020600020900154611ec4565b73ffffffffffffffffffffffffffffffffffffffff1614156123355781806001019250505b80806001019150506122c9565b8192505050919050565b3373ffffffffffffffffffffffffffffffffffffffff166000809054906101000a900473ffffffffffffffffffffffffffffffffffffffff1673ffffffffffffffffffffffffffffffffffffffff161415156123a757600080fd5b6001600360146101000a81548160ff021916908315150217905550565b60008060009054906101000a900473ffffffffffffffffffffffffffffffffffffffff16905090565b60003373ffffffffffffffffffffffffffffffffffffffff166000809054906101000a900473ffffffffffffffffffffffffffffffffffffffff1673ffffffffffffffffffffffffffffffffffffffff1614151561244a57600080fd5b600090505b8151811015612593576000600c6000848481518110151561246c57fe5b90602001906020020151815260200190815260200160002054118061255b57506000600360009054906101000a900473ffffffffffffffffffffffffffffffffffffffff1673ffffffffffffffffffffffffffffffffffffffff1663b9186d7d84848151811015156124da57fe5b906020019060200201516000604051602001526040518263ffffffff167c010000000000000000000000000000000000000000000000000000000002815260040180828152602001915050602060405180830381600087803b151561253e57600080fd5b6102c65a03f1151561254f57600080fd5b50505060405180519050145b1561256557612586565b612585828281518110151561257657fe5b90602001906020020151611573565b5b808060010191505061244f565b5050565b61259f613053565b6040805190810160405280600381526020017f5057430000000000000000000000000000000000000000000000000000000000815250905090565b6000600260003373ffffffffffffffffffffffffffffffffffffffff1673ffffffffffffffffffffffffffffffffffffffff16815260200190815260200160002060009054906101000a900460ff16151561263457600080fd5b81600c600085815260200190815260200160002081905550600c600084815260200190815260200160002054905092915050565b600360149054906101000a900460ff16151561268357600080fd5b61268c81611ec4565b73ffffffffffffffffffffffffffffffffffffffff163373ffffffffffffffffffffffffffffffffffffffff161415156126c557600080fd5b6126d0338383612df5565b5050565b6000600b6000838152602001908152602001600020549050919050565b60003073ffffffffffffffffffffffffffffffffffffffff1631905090565b6000600c6000838152602001908152602001600020549050919050565b6000806000600f60008573ffffffffffffffffffffffffffffffffffffffff1673ffffffffffffffffffffffffffffffffffffffff16815260200190815260200160002054601060008673ffffffffffffffffffffffffffffffffffffffff1673ffffffffffffffffffffffffffffffffffffffff16815260200190815260200160002054601160008773ffffffffffffffffffffffffffffffffffffffff1673ffffffffffffffffffffffffffffffffffffffff168152602001908152602001600020549250925092509193909250565b60085481565b3373ffffffffffffffffffffffffffffffffffffffff166000809054906101000a900473ffffffffffffffffffffffffffffffffffffffff1673ffffffffffffffffffffffffffffffffffffffff1614151561286057600080fd5b80600160006101000a81548173ffffffffffffffffffffffffffffffffffffffff021916908373ffffffffffffffffffffffffffffffffffffffff16021790555050565b60008060008060008060006128b888612710565b1115156128c457600080fd5b600073ffffffffffffffffffffffffffffffffffffffff166128e588611ec4565b73ffffffffffffffffffffffffffffffffffffffff161415151561290857600080fd5b61291187611eaa565b341015151561291f57600080fd5b3373ffffffffffffffffffffffffffffffffffffffff1661293f88611ec4565b73ffffffffffffffffffffffffffffffffffffffff161415151561296257600080fd5b61296b33613027565b15151561297757600080fd5b600073ffffffffffffffffffffffffffffffffffffffff163373ffffffffffffffffffffffffffffffffffffffff16141515156129b357600080fd5b600854421015156129c357600080fd5b6129cc87611ec4565b95503394506129da87612710565b93506129e7868689612df5565b6129f087611eaa565b600c600089815260200190815260200160002081905550612a2d84600c60008a81526020019081526020016000205461303a90919063ffffffff16565b9250612a55600c6000898152602001908152602001600020543461303a90919063ffffffff16565b91508473ffffffffffffffffffffffffffffffffffffffff168673ffffffffffffffffffffffffffffffffffffffff16887f40639f3c59b7b87430a1e0ee6896092361c626ca5ff0bee571aae856e7235d56600c60008c8152602001908152602001600020546040518082815260200191505060405180910390a43073ffffffffffffffffffffffffffffffffffffffff168673ffffffffffffffffffffffffffffffffffffffff16141515612c0157612b51612b2f6064612b21605087612fd190919063ffffffff16565b61300c90919063ffffffff16565b600c60008a81526020019081526020016000205461303a90919063ffffffff16565b90508573ffffffffffffffffffffffffffffffffffffffff166108fc829081150290604051600060405180830381858888f193505050501515612b9357600080fd5b6000809054906101000a900473ffffffffffffffffffffffffffffffffffffffff1673ffffffffffffffffffffffffffffffffffffffff166108fc612bd785611f01565b9081150290604051600060405180830381858888f193505050501515612bfc57600080fd5b612c6b565b6000809054906101000a900473ffffffffffffffffffffffffffffffffffffffff1673ffffffffffffffffffffffffffffffffffffffff166108fc612c4534611f01565b9081150290604051600060405180830381858888f193505050501515612c6a57600080fd5b5b6000821115612cb5578473ffffffffffffffffffffffffffffffffffffffff166108fc839081150290604051600060405180830381858888f193505050501515612cb457600080fd5b5b50505050505050565b6000600454821015612cf857612cf16064612ce360d285612fd190919063ffffffff16565b61300c90919063ffffffff16565b9050612dca565b600554821015612d3057612d296064612d1b608c85612fd190919063ffffffff16565b61300c90919063ffffffff16565b9050612dca565b600654821015612d6857612d616064612d53608085612fd190919063ffffffff16565b61300c90919063ffffffff16565b9050612dca565b600754821015612da057612d996064612d8b607885612fd190919063ffffffff16565b61300c90919063ffffffff16565b9050612dca565b612dc76064612db9607585612fd190919063ffffffff16565b61300c90919063ffffffff16565b90505b919050565b600160009054906101000a900473ffffffffffffffffffffffffffffffffffffffff1681565b612dfe81610e7d565b1515612e0957600080fd5b8273ffffffffffffffffffffffffffffffffffffffff16612e2982611ec4565b73ffffffffffffffffffffffffffffffffffffffff16141515612e4b57600080fd5b600073ffffffffffffffffffffffffffffffffffffffff168273ffffffffffffffffffffffffffffffffffffffff1614151515612e8757600080fd5b3073ffffffffffffffffffffffffffffffffffffffff168273ffffffffffffffffffffffffffffffffffffffff1614151515612ec257600080fd5b81600a600083815260200190815260200160002060006101000a81548173ffffffffffffffffffffffffffffffffffffffff021916908373ffffffffffffffffffffffffffffffffffffffff1602179055506000600d600083815260200190815260200160002060006101000a81548173ffffffffffffffffffffffffffffffffffffffff021916908373ffffffffffffffffffffffffffffffffffffffff1602179055508173ffffffffffffffffffffffffffffffffffffffff168373ffffffffffffffffffffffffffffffffffffffff167fddf252ad1be2c89b69c2b068fc378daa952ba7f163c4a11628f55a4df523b3ef836040518082815260200191505060405180910390a3505050565b6000806000841415612fe65760009150613005565b8284029050828482811515612ff757fe5b0414151561300157fe5b8091505b5092915050565b600080828481151561301a57fe5b0490508091505092915050565b600080823b905060008111915050919050565b600082821115151561304857fe5b818303905092915050565b602060405190810160405280600081525090565b602060405190810160405280600081525090565b8154818355818115116130a2578183600052602060002091820191016130a191906130a7565b5b505050565b6130c991905b808211156130c55760008160009055506001016130ad565b5090565b905600a165627a7a72305820bdbfaad640b4c2d7a095b75a28c1c83bdb576c9c97b1cbc2014faa0656e5860b0029",
  "source": "pragma solidity ^0.4.13;\n\nlibrary SafeMath {\n\n  /**\n  * @dev Multiplies two numbers, throws on overflow.\n  */\n  function mul(uint256 a, uint256 b) internal pure returns (uint256) {\n    if (a == 0) {\n      return 0;\n    }\n    uint256 c = a * b;\n    assert(c / a == b);\n    return c;\n  }\n\n  /**\n  * @dev Integer division of two numbers, truncating the quotient.\n  */\n  function div(uint256 a, uint256 b) internal pure returns (uint256) {\n    // assert(b > 0); // Solidity automatically throws when dividing by 0\n    uint256 c = a / b;\n    // assert(a == b * c + a % b); // There is no case in which this doesn't hold\n    return c;\n  }\n\n  /**\n  * @dev Substracts two numbers, throws on overflow (i.e. if subtrahend is greater than minuend).\n  */\n  function sub(uint256 a, uint256 b) internal pure returns (uint256) {\n    assert(b <= a);\n    return a - b;\n  }\n\n  /**\n  * @dev Adds two numbers, throws on overflow.\n  */\n  function add(uint256 a, uint256 b) internal pure returns (uint256) {\n    uint256 c = a + b;\n    assert(c >= a);\n    return c;\n  }\n}\n\n\ncontract ParallelWorld {\n  using SafeMath for uint256;\n\n  event TransactionOccured(uint256 indexed _itemId, uint256 _price, address indexed _oldowner, address indexed _newowner);\n  event Bought (uint256 indexed _itemId, address indexed _owner, uint256 _price);\n  event Sold (uint256 indexed _itemId, address indexed _owner, uint256 _price);\n  event Transfer(address indexed _from, address indexed _to, uint256 _tokenId);\n  event Approval(address indexed _owner, address indexed _approved, uint256 _tokenId);\n\n  address private owner;\n  address public referraltokencontract;\n  mapping (address => bool) private admins;\n  IItemRegistry private itemRegistry;\n  bool private erc721Enabled = false;\n\n  uint256 private increaseLimit1 = 0.02 ether;\n  uint256 private increaseLimit2 = 0.5 ether;\n  uint256 private increaseLimit3 = 2.0 ether;\n  uint256 private increaseLimit4 = 5.0 ether;\n\n  uint256 public enddate = 1527552000;\n\n  uint256[] private listedItems;\n  mapping (uint256 => address) private ownerOfItem;\n  mapping (uint256 => uint256) private startingPriceOfItem;\n  mapping (uint256 => uint256) private priceOfItem;\n  mapping (uint256 => address) private approvedOfItem;\n  mapping (uint256 => bytes32) private nameofItem;\n\n  mapping (address => bytes32) private ownerAlias;\n  mapping (address => bytes32) private ownerEmail;\n  mapping (address => bytes32) private ownerPhone;\n\n  function ParallelWorld () public {\n    owner = msg.sender;\n    admins[owner] = true;\n  }\n\n  /* Modifiers */\n  modifier onlyOwner() {\n    require(owner == msg.sender);\n    _;\n  }\n\n  modifier onlyAdmins() {\n    require(admins[msg.sender]);\n    _;\n  }\n\n  modifier onlyERC721() {\n    require(erc721Enabled);\n    _;\n  }\n\n  /* Owner */\n  function setOwner (address _owner) onlyOwner() public {\n    owner = _owner;\n  }\n\n  function getOwner() public view returns (address){\n    return owner;\n  }\n\n  function setReferralTokenContract (address _referraltokencontract) onlyOwner() public {\n    referraltokencontract = _referraltokencontract;\n  }\n\n  function setItemRegistry (address _itemRegistry) onlyOwner() public {\n    itemRegistry = IItemRegistry(_itemRegistry);\n  }\n\n  function addAdmin (address _admin) onlyOwner() public {\n    admins[_admin] = true;\n  }\n\n  function removeAdmin (address _admin) onlyOwner() public {\n    delete admins[_admin];\n  }\n\n  // Unlocks ERC721 behaviour, allowing for trading on third party platforms.\n  function enableERC721 () onlyOwner() public {\n    erc721Enabled = true;\n  }\n\n  /* Withdraw */\n  /*\n    NOTICE: These functions withdraw the developer's cut which is left\n    in the contract by `buy`. User funds are immediately sent to the old\n    owner in `buy`, no user funds are left in the contract.\n  */\n  /*function withdrawAll () onlyOwner() public {\n    owner.transfer(this.balance);\n  }\n\n  function withdrawAmount (uint256 _amount) onlyOwner() public {\n    owner.transfer(_amount);\n  }*/\n\n  //award prize to winner, and developer already took 10% from individual transactions\n  function awardprize(uint256 _itemId) onlyOwner() public{\n    uint256 winneramount;\n\n    winneramount = this.balance;\n\n    if (ownerOf(_itemId) != address(this))\n    {\n      //winner gets the prize amount minus developer cut\n      ownerOf(_itemId).transfer(winneramount);\n    }\n    \n\n  }\n\n  /* Listing */\n  function populateFromItemRegistry (uint256[] _itemIds) onlyOwner() public {\n    for (uint256 i = 0; i < _itemIds.length; i++) {\n      if (priceOfItem[_itemIds[i]] > 0 || itemRegistry.priceOf(_itemIds[i]) == 0) {\n        continue;\n      }\n\n      listItemFromRegistry(_itemIds[i]);\n    }\n  }\n\n  function listItemFromRegistry (uint256 _itemId) onlyOwner() public {\n    require(itemRegistry != address(0));\n    require(itemRegistry.ownerOf(_itemId) != address(0));\n    require(itemRegistry.priceOf(_itemId) > 0);\n    require(itemRegistry.nameOf(_itemId).length > 0 );\n\n    uint256 price = itemRegistry.priceOf(_itemId);\n    address itemOwner = itemRegistry.ownerOf(_itemId);\n    bytes32 nameofItemlocal = itemRegistry.nameOf(_itemId);\n    listItem(_itemId, price, itemOwner, nameofItemlocal);\n  }\n\n  function listMultipleItems (uint256[] _itemIds, uint256 _price, address _owner, bytes32[] _nameofItem) onlyAdmins() external {\n    for (uint256 i = 0; i < _itemIds.length; i++) {\n      listItem(_itemIds[i], _price, _owner, _nameofItem[i]);\n    }\n  }\n\n  function listItem (uint256 _itemId, uint256 _price, address _owner, bytes32 _nameofItem) onlyAdmins() public {\n    require(_price > 0);\n    require(priceOfItem[_itemId] == 0);\n    require(ownerOfItem[_itemId] == address(0));\n    \n\n    ownerOfItem[_itemId] = this; //set the contract as original owner of teams\n    priceOfItem[_itemId] = _price;\n    startingPriceOfItem[_itemId] = _price;\n    nameofItem[_itemId] = _nameofItem;\n    listedItems.push(_itemId);\n  }\n\n  function addItem(uint256 _itemId, uint256 _price) onlyAdmins() public returns (uint256 _pricereturn){\n    priceOfItem[_itemId] = _price;\n    return priceOfItem[_itemId];\n  }\n\n  /* Buying */\n  function calculateNextPrice (uint256 _price) public view returns (uint256 _nextPrice) {\n    if (_price < increaseLimit1) {\n      return _price.mul(210).div(100); //added 110%\n    } else if (_price < increaseLimit2) {\n      return _price.mul(140).div(100); //added 40%\n    } else if (_price < increaseLimit3) {\n      return _price.mul(128).div(100); //added 28%\n    } else if (_price < increaseLimit4) {\n      return _price.mul(120).div(100); //added 20%\n    } else {\n      return _price.mul(117).div(100); //added 17%\n    }\n  }\n\n  function calculatePrizeCut (uint256 _price) public view returns (uint256 _devCut) {\n    if (_price < increaseLimit1) {\n      return _price.mul(26).div(100); // 26%\n    } else if (_price < increaseLimit2) {\n      return _price.mul(14).div(100); // 14%\n    } else if (_price < increaseLimit3) {\n      return _price.mul(10).div(100); // 10%\n    } else if (_price < increaseLimit4) {\n      return _price.mul(8).div(100); // 8%\n    } else {\n      return _price.mul(7).div(100); // 7%\n    }\n  }\n\n  function calculateDevCut (uint256 _price) public view returns (uint256 _devCut) {\n    return _price.mul(10).div(100); //10%\n  }\n\n  /*\n     Buy a country directly from the contract for the calculated price\n     which ensures that the owner gets a profit.  All countries that\n     have been listed can be bought by this method. User funds are sent\n     directly to the previous owner and are never stored in the contract.\n  */\n  function buy (uint256 _itemId) payable public {\n    require(priceOf(_itemId) > 0);\n    require(ownerOf(_itemId) != address(0));\n    require(msg.value >= nextPriceOf(_itemId));\n    require(ownerOf(_itemId) != msg.sender);\n    require(!isContract(msg.sender));\n    require(msg.sender != address(0));\n    require(now < enddate); //team buying can only happen before April 2nd 00:00:00 UTC time\n\n    address oldOwner = ownerOf(_itemId);\n    address newOwner = msg.sender;\n    uint256 price = priceOf(_itemId);\n    \n    _transfer(oldOwner, newOwner, _itemId);\n    priceOfItem[_itemId] = nextPriceOf(_itemId);\n    uint256 pricedifference = priceOfItem[_itemId].sub(price);\n    uint256 excess = msg.value.sub(priceOfItem[_itemId]);\n\n    TransactionOccured(_itemId, priceOfItem[_itemId], oldOwner, newOwner);\n\n    // Transfer payment to old owner minus the cut for the final prize.  Don't transfer funds though if old owner is this contract\n    if (oldOwner != address(this))\n    {\n      //send to old owner,the original amount they paid, plus 20% of the price difference between what they paid and new owner pays\n      uint256 oldOwnercut = priceOfItem[_itemId].sub(pricedifference.mul(80).div(100));\n      oldOwner.transfer(oldOwnercut);\n      \n      //send to developer, 10% of price diff\n      owner.transfer(calculateDevCut(pricedifference));\n    \n    }\n    else\n    {\n      //first transaction to purchase from contract, send 10% of tx to dev\n      owner.transfer(calculateDevCut(msg.value));\n    \n    }\n\n    if (excess > 0) {\n      newOwner.transfer(excess);\n    }\n    \n  }\n\n  /* ERC721 */\n  function implementsERC721() public view returns (bool _implements) {\n    return erc721Enabled;\n  }\n\n  function name() public pure returns (string _name) {\n    return \"Parallel World\";\n  }\n\n  function symbol() public pure returns (string _symbol) {\n    return \"PWC\";\n  }\n\n  function totalSupply() public view returns (uint256 _totalSupply) {\n    return listedItems.length;\n  }\n\n  function balanceOf (address _owner) public view returns (uint256 _balance) {\n    uint256 counter = 0;\n\n    for (uint256 i = 0; i < listedItems.length; i++) {\n      if (ownerOf(listedItems[i]) == _owner) {\n        counter++;\n      }\n    }\n\n    return counter;\n  }\n\n  function ownerOf (uint256 _itemId) public view returns (address _owner) {\n    return ownerOfItem[_itemId];\n  }\n\n  function tokensOf (address _owner) public view returns (uint256[] _tokenIds) {\n    uint256[] memory items = new uint256[](balanceOf(_owner));\n\n    uint256 itemCounter = 0;\n    for (uint256 i = 0; i < listedItems.length; i++) {\n      if (ownerOf(listedItems[i]) == _owner) {\n        items[itemCounter] = listedItems[i];\n        itemCounter += 1;\n      }\n    }\n\n    return items;\n  }\n\n  function tokenExists (uint256 _itemId) public view returns (bool _exists) {\n    return priceOf(_itemId) > 0;\n  }\n\n  function approvedFor(uint256 _itemId) public view returns (address _approved) {\n    return approvedOfItem[_itemId];\n  }\n\n  function approve(address _to, uint256 _itemId) onlyERC721() public {\n    require(msg.sender != _to);\n    require(tokenExists(_itemId));\n    require(ownerOf(_itemId) == msg.sender);\n\n    if (_to == 0) {\n      if (approvedOfItem[_itemId] != 0) {\n        delete approvedOfItem[_itemId];\n        Approval(msg.sender, 0, _itemId);\n      }\n    } else {\n      approvedOfItem[_itemId] = _to;\n      Approval(msg.sender, _to, _itemId);\n    }\n  }\n\n  /* Transferring a team to another owner will entitle the new owner the profits from `buy` */\n  function transfer(address _to, uint256 _itemId) onlyERC721() public {\n    require(msg.sender == ownerOf(_itemId));\n    _transfer(msg.sender, _to, _itemId);\n  }\n\n  function transferFrom(address _from, address _to, uint256 _itemId) onlyERC721() public {\n    require(approvedFor(_itemId) == msg.sender);\n    _transfer(_from, _to, _itemId);\n  }\n\n  function _transfer(address _from, address _to, uint256 _itemId) internal {\n    require(tokenExists(_itemId));\n    require(ownerOf(_itemId) == _from);\n    require(_to != address(0));\n    require(_to != address(this));\n\n    ownerOfItem[_itemId] = _to;\n    approvedOfItem[_itemId] = 0;\n\n    Transfer(_from, _to, _itemId);\n  }\n\n  function setownerInfo(address _ownerAddress, bytes32 _ownerAlias, bytes32 _ownerEmail, bytes32 _ownerPhone) public\n  {\n      ownerAlias[_ownerAddress] = _ownerAlias;\n      ownerEmail[_ownerAddress] = _ownerEmail;\n      ownerPhone[_ownerAddress] = _ownerPhone;\n  }\n\n  /* Read */\n  function isAdmin (address _admin) public view returns (bool _isAdmin) {\n    return admins[_admin];\n  }\n\n  function startingPriceOf (uint256 _itemId) public view returns (uint256 _startingPrice) {\n    return startingPriceOfItem[_itemId];\n  }\n\n  function priceOf (uint256 _itemId) public view returns (uint256 _price) {\n    return priceOfItem[_itemId];\n  }\n\n  function nextPriceOf (uint256 _itemId) public view returns (uint256 _nextPrice) {\n    return calculateNextPrice(priceOf(_itemId));\n  }\n\n  function nameOf (uint256 _itemId) public view returns (bytes32 _name) {\n    return nameofItem[_itemId];\n  }\n\n  function allOf (uint256 _itemId) external view returns (uint256 _itemIdreturn, address _owner, uint256 _startingPrice, uint256 _price, uint256 _nextPrice, bytes32 _name) {\n    return (_itemId, ownerOf(_itemId), startingPriceOf(_itemId), priceOf(_itemId), nextPriceOf(_itemId), nameOf(_itemId));\n  }\n\n  function getenddate () public view returns (uint256 _enddate) {\n    return enddate;\n  }\n\n  function getlistedItems() external view returns(uint256[] _listedItems){\n    return(listedItems);\n  }\n\n  function itemsForSaleLimit (uint256 _from, uint256 _take) public view returns (uint256[] _items) {\n    uint256[] memory items = new uint256[](_take);\n\n    for (uint256 i = 0; i < _take; i++) {\n      items[i] = listedItems[_from + i];\n    }\n\n    return items;\n  }\n\n  function getprizeamount() public view returns(uint256 _prizeamount)\n  {\n    return this.balance;\n  }\n\n  function getownerInfo (address _owner) public view returns (bytes32 _name, bytes32 _email, bytes32 _phone) {\n    return (ownerAlias[_owner], ownerEmail[_owner], ownerPhone[_owner]);\n  }\n\n  /* Util */\n  function isContract(address addr) internal view returns (bool) {\n    uint size;\n    assembly { size := extcodesize(addr) } // solium-disable-line\n    return size > 0;\n  }\n\n  \n}\n\ninterface IItemRegistry {\n  function itemsForSaleLimit (uint256 _from, uint256 _take) public view returns (uint256[] _items);\n  function ownerOf (uint256 _itemId) public view returns (address _owner);\n  function priceOf (uint256 _itemId) public view returns (uint256 _price);\n  function nameOf (uint256 _itemId) public view returns (bytes32 _nameofItemlocal);\n}",
  "sourcePath": "/Users/Lornestar/Documents/Bitcoin/ParallelWorld/contracts/ParallelWorld.sol",
  "compiler": {
    "name": "solc",
    "version": "0.4.19+commit.c4cbbb05.Emscripten.clang"
  },
  "schemaVersion": "1.0.1",
  "updatedAt": "2018-04-15T09:20:24.598Z"
}