{
  "contractName": "ParallelWorld",
  "abi": [
    {
      "constant": true,
      "inputs": [
        {
          "name": "_itemId",
          "type": "uint256"
        }
      ],
      "name": "tokenExists",
      "outputs": [
        {
          "name": "_exists",
          "type": "bool"
        }
      ],
      "payable": false,
      "stateMutability": "view",
      "type": "function"
    },
    {
      "constant": true,
      "inputs": [
        {
          "name": "_itemId",
          "type": "uint256"
        }
      ],
      "name": "nameOf",
      "outputs": [
        {
          "name": "_name",
          "type": "bytes32"
        }
      ],
      "payable": false,
      "stateMutability": "view",
      "type": "function"
    },
    {
      "constant": true,
      "inputs": [],
      "name": "name",
      "outputs": [
        {
          "name": "_name",
          "type": "string"
        }
      ],
      "payable": false,
      "stateMutability": "pure",
      "type": "function"
    },
    {
      "constant": true,
      "inputs": [],
      "name": "getenddate",
      "outputs": [
        {
          "name": "_enddate",
          "type": "uint256"
        }
      ],
      "payable": false,
      "stateMutability": "view",
      "type": "function"
    },
    {
      "constant": false,
      "inputs": [
        {
          "name": "_to",
          "type": "address"
        },
        {
          "name": "_itemId",
          "type": "uint256"
        }
      ],
      "name": "approve",
      "outputs": [],
      "payable": false,
      "stateMutability": "nonpayable",
      "type": "function"
    },
    {
      "constant": true,
      "inputs": [],
      "name": "implementsERC721",
      "outputs": [
        {
          "name": "_implements",
          "type": "bool"
        }
      ],
      "payable": false,
      "stateMutability": "view",
      "type": "function"
    },
    {
      "constant": false,
      "inputs": [
        {
          "name": "_owner",
          "type": "address"
        }
      ],
      "name": "setOwner",
      "outputs": [],
      "payable": false,
      "stateMutability": "nonpayable",
      "type": "function"
    },
    {
      "constant": false,
      "inputs": [
        {
          "name": "_admin",
          "type": "address"
        }
      ],
      "name": "removeAdmin",
      "outputs": [],
      "payable": false,
      "stateMutability": "nonpayable",
      "type": "function"
    },
    {
      "constant": true,
      "inputs": [],
      "name": "totalSupply",
      "outputs": [
        {
          "name": "_totalSupply",
          "type": "uint256"
        }
      ],
      "payable": false,
      "stateMutability": "view",
      "type": "function"
    },
    {
      "constant": false,
      "inputs": [
        {
          "name": "_itemRegistry",
          "type": "address"
        }
      ],
      "name": "setItemRegistry",
      "outputs": [],
      "payable": false,
      "stateMutability": "nonpayable",
      "type": "function"
    },
    {
      "constant": false,
      "inputs": [
        {
          "name": "_from",
          "type": "address"
        },
        {
          "name": "_to",
          "type": "address"
        },
        {
          "name": "_itemId",
          "type": "uint256"
        }
      ],
      "name": "transferFrom",
      "outputs": [],
      "payable": false,
      "stateMutability": "nonpayable",
      "type": "function"
    },
    {
      "constant": true,
      "inputs": [
        {
          "name": "_admin",
          "type": "address"
        }
      ],
      "name": "isAdmin",
      "outputs": [
        {
          "name": "_isAdmin",
          "type": "bool"
        }
      ],
      "payable": false,
      "stateMutability": "view",
      "type": "function"
    },
    {
      "constant": true,
      "inputs": [
        {
          "name": "_itemId",
          "type": "uint256"
        }
      ],
      "name": "approvedFor",
      "outputs": [
        {
          "name": "_approved",
          "type": "address"
        }
      ],
      "payable": false,
      "stateMutability": "view",
      "type": "function"
    },
    {
      "constant": true,
      "inputs": [
        {
          "name": "_itemId",
          "type": "uint256"
        }
      ],
      "name": "allOf",
      "outputs": [
        {
          "name": "_itemIdreturn",
          "type": "uint256"
        },
        {
          "name": "_owner",
          "type": "address"
        },
        {
          "name": "_startingPrice",
          "type": "uint256"
        },
        {
          "name": "_price",
          "type": "uint256"
        },
        {
          "name": "_nextPrice",
          "type": "uint256"
        },
        {
          "name": "_name",
          "type": "bytes32"
        }
      ],
      "payable": false,
      "stateMutability": "view",
      "type": "function"
    },
    {
      "constant": false,
      "inputs": [
        {
          "name": "_itemId",
          "type": "uint256"
        }
      ],
      "name": "listItemFromRegistry",
      "outputs": [],
      "payable": false,
      "stateMutability": "nonpayable",
      "type": "function"
    },
    {
      "constant": false,
      "inputs": [
        {
          "name": "_itemId",
          "type": "uint256"
        }
      ],
      "name": "awardprize",
      "outputs": [],
      "payable": false,
      "stateMutability": "nonpayable",
      "type": "function"
    },
    {
      "constant": true,
      "inputs": [],
      "name": "getlistedItems",
      "outputs": [
        {
          "name": "_listedItems",
          "type": "uint256[]"
        }
      ],
      "payable": false,
      "stateMutability": "view",
      "type": "function"
    },
    {
      "constant": false,
      "inputs": [
        {
          "name": "_ownerAddress",
          "type": "address"
        },
        {
          "name": "_ownerAlias",
          "type": "bytes32"
        },
        {
          "name": "_ownerEmail",
          "type": "bytes32"
        },
        {
          "name": "_ownerPhone",
          "type": "bytes32"
        }
      ],
      "name": "setownerInfo",
      "outputs": [],
      "payable": false,
      "stateMutability": "nonpayable",
      "type": "function"
    },
    {
      "constant": true,
      "inputs": [
        {
          "name": "_from",
          "type": "uint256"
        },
        {
          "name": "_take",
          "type": "uint256"
        }
      ],
      "name": "itemsForSaleLimit",
      "outputs": [
        {
          "name": "_items",
          "type": "uint256[]"
        }
      ],
      "payable": false,
      "stateMutability": "view",
      "type": "function"
    },
    {
      "constant": true,
      "inputs": [
        {
          "name": "_owner",
          "type": "address"
        }
      ],
      "name": "tokensOf",
      "outputs": [
        {
          "name": "_tokenIds",
          "type": "uint256[]"
        }
      ],
      "payable": false,
      "stateMutability": "view",
      "type": "function"
    },
    {
      "constant": true,
      "inputs": [
        {
          "name": "_itemId",
          "type": "uint256"
        }
      ],
      "name": "nextPriceOf",
      "outputs": [
        {
          "name": "_nextPrice",
          "type": "uint256"
        }
      ],
      "payable": false,
      "stateMutability": "view",
      "type": "function"
    },
    {
      "constant": true,
      "inputs": [
        {
          "name": "_itemId",
          "type": "uint256"
        }
      ],
      "name": "ownerOf",
      "outputs": [
        {
          "name": "_owner",
          "type": "address"
        }
      ],
      "payable": false,
      "stateMutability": "view",
      "type": "function"
    },
    {
      "constant": true,
      "inputs": [
        {
          "name": "_price",
          "type": "uint256"
        }
      ],
      "name": "calculateDevCut",
      "outputs": [
        {
          "name": "_devCut",
          "type": "uint256"
        }
      ],
      "payable": false,
      "stateMutability": "view",
      "type": "function"
    },
    {
      "constant": false,
      "inputs": [
        {
          "name": "_itemId",
          "type": "uint256"
        },
        {
          "name": "_price",
          "type": "uint256"
        },
        {
          "name": "_owner",
          "type": "address"
        },
        {
          "name": "_nameofItem",
          "type": "bytes32"
        }
      ],
      "name": "listItem",
      "outputs": [],
      "payable": false,
      "stateMutability": "nonpayable",
      "type": "function"
    },
    {
      "constant": true,
      "inputs": [
        {
          "name": "_price",
          "type": "uint256"
        }
      ],
      "name": "calculatePrizeCut",
      "outputs": [
        {
          "name": "_devCut",
          "type": "uint256"
        }
      ],
      "payable": false,
      "stateMutability": "view",
      "type": "function"
    },
    {
      "constant": false,
      "inputs": [
        {
          "name": "_admin",
          "type": "address"
        }
      ],
      "name": "addAdmin",
      "outputs": [],
      "payable": false,
      "stateMutability": "nonpayable",
      "type": "function"
    },
    {
      "constant": true,
      "inputs": [
        {
          "name": "_owner",
          "type": "address"
        }
      ],
      "name": "balanceOf",
      "outputs": [
        {
          "name": "_balance",
          "type": "uint256"
        }
      ],
      "payable": false,
      "stateMutability": "view",
      "type": "function"
    },
    {
      "constant": false,
      "inputs": [],
      "name": "enableERC721",
      "outputs": [],
      "payable": false,
      "stateMutability": "nonpayable",
      "type": "function"
    },
    {
      "constant": false,
      "inputs": [
        {
          "name": "_itemIds",
          "type": "uint256[]"
        },
        {
          "name": "_price",
          "type": "uint256[]"
        },
        {
          "name": "_owner",
          "type": "address"
        },
        {
          "name": "_nameofItem",
          "type": "bytes32[]"
        }
      ],
      "name": "listMultipleItems",
      "outputs": [],
      "payable": false,
      "stateMutability": "nonpayable",
      "type": "function"
    },
    {
      "constant": true,
      "inputs": [],
      "name": "getOwner",
      "outputs": [
        {
          "name": "",
          "type": "address"
        }
      ],
      "payable": false,
      "stateMutability": "view",
      "type": "function"
    },
    {
      "constant": false,
      "inputs": [
        {
          "name": "_itemIds",
          "type": "uint256[]"
        }
      ],
      "name": "populateFromItemRegistry",
      "outputs": [],
      "payable": false,
      "stateMutability": "nonpayable",
      "type": "function"
    },
    {
      "constant": true,
      "inputs": [],
      "name": "symbol",
      "outputs": [
        {
          "name": "_symbol",
          "type": "string"
        }
      ],
      "payable": false,
      "stateMutability": "pure",
      "type": "function"
    },
    {
      "constant": false,
      "inputs": [
        {
          "name": "_itemId",
          "type": "uint256"
        },
        {
          "name": "_price",
          "type": "uint256"
        }
      ],
      "name": "addItem",
      "outputs": [
        {
          "name": "_pricereturn",
          "type": "uint256"
        }
      ],
      "payable": false,
      "stateMutability": "nonpayable",
      "type": "function"
    },
    {
      "constant": false,
      "inputs": [
        {
          "name": "_to",
          "type": "address"
        },
        {
          "name": "_itemId",
          "type": "uint256"
        }
      ],
      "name": "transfer",
      "outputs": [],
      "payable": false,
      "stateMutability": "nonpayable",
      "type": "function"
    },
    {
      "constant": true,
      "inputs": [
        {
          "name": "_itemId",
          "type": "uint256"
        }
      ],
      "name": "startingPriceOf",
      "outputs": [
        {
          "name": "_startingPrice",
          "type": "uint256"
        }
      ],
      "payable": false,
      "stateMutability": "view",
      "type": "function"
    },
    {
      "constant": true,
      "inputs": [],
      "name": "getprizeamount",
      "outputs": [
        {
          "name": "_prizeamount",
          "type": "uint256"
        }
      ],
      "payable": false,
      "stateMutability": "view",
      "type": "function"
    },
    {
      "constant": true,
      "inputs": [
        {
          "name": "_itemId",
          "type": "uint256"
        }
      ],
      "name": "priceOf",
      "outputs": [
        {
          "name": "_price",
          "type": "uint256"
        }
      ],
      "payable": false,
      "stateMutability": "view",
      "type": "function"
    },
    {
      "constant": true,
      "inputs": [
        {
          "name": "_owner",
          "type": "address"
        }
      ],
      "name": "getownerInfo",
      "outputs": [
        {
          "name": "_name",
          "type": "bytes32"
        },
        {
          "name": "_email",
          "type": "bytes32"
        },
        {
          "name": "_phone",
          "type": "bytes32"
        }
      ],
      "payable": false,
      "stateMutability": "view",
      "type": "function"
    },
    {
      "constant": true,
      "inputs": [],
      "name": "enddate",
      "outputs": [
        {
          "name": "",
          "type": "uint256"
        }
      ],
      "payable": false,
      "stateMutability": "view",
      "type": "function"
    },
    {
      "constant": false,
      "inputs": [
        {
          "name": "_referraltokencontract",
          "type": "address"
        }
      ],
      "name": "setReferralTokenContract",
      "outputs": [],
      "payable": false,
      "stateMutability": "nonpayable",
      "type": "function"
    },
    {
      "constant": false,
      "inputs": [
        {
          "name": "_itemId",
          "type": "uint256"
        }
      ],
      "name": "buy",
      "outputs": [],
      "payable": true,
      "stateMutability": "payable",
      "type": "function"
    },
    {
      "constant": true,
      "inputs": [
        {
          "name": "_price",
          "type": "uint256"
        }
      ],
      "name": "calculateNextPrice",
      "outputs": [
        {
          "name": "_nextPrice",
          "type": "uint256"
        }
      ],
      "payable": false,
      "stateMutability": "view",
      "type": "function"
    },
    {
      "constant": true,
      "inputs": [],
      "name": "referraltokencontract",
      "outputs": [
        {
          "name": "",
          "type": "address"
        }
      ],
      "payable": false,
      "stateMutability": "view",
      "type": "function"
    },
    {
      "inputs": [],
      "payable": false,
      "stateMutability": "nonpayable",
      "type": "constructor"
    },
    {
      "anonymous": false,
      "inputs": [
        {
          "indexed": true,
          "name": "_itemId",
          "type": "uint256"
        },
        {
          "indexed": false,
          "name": "_price",
          "type": "uint256"
        },
        {
          "indexed": true,
          "name": "_oldowner",
          "type": "address"
        },
        {
          "indexed": true,
          "name": "_newowner",
          "type": "address"
        }
      ],
      "name": "TransactionOccured",
      "type": "event"
    },
    {
      "anonymous": false,
      "inputs": [
        {
          "indexed": true,
          "name": "_itemId",
          "type": "uint256"
        },
        {
          "indexed": true,
          "name": "_owner",
          "type": "address"
        },
        {
          "indexed": false,
          "name": "_price",
          "type": "uint256"
        }
      ],
      "name": "Bought",
      "type": "event"
    },
    {
      "anonymous": false,
      "inputs": [
        {
          "indexed": true,
          "name": "_itemId",
          "type": "uint256"
        },
        {
          "indexed": true,
          "name": "_owner",
          "type": "address"
        },
        {
          "indexed": false,
          "name": "_price",
          "type": "uint256"
        }
      ],
      "name": "Sold",
      "type": "event"
    },
    {
      "anonymous": false,
      "inputs": [
        {
          "indexed": true,
          "name": "_from",
          "type": "address"
        },
        {
          "indexed": true,
          "name": "_to",
          "type": "address"
        },
        {
          "indexed": false,
          "name": "_tokenId",
          "type": "uint256"
        }
      ],
      "name": "Transfer",
      "type": "event"
    },
    {
      "anonymous": false,
      "inputs": [
        {
          "indexed": true,
          "name": "_owner",
          "type": "address"
        },
        {
          "indexed": true,
          "name": "_approved",
          "type": "address"
        },
        {
          "indexed": false,
          "name": "_tokenId",
          "type": "uint256"
        }
      ],
      "name": "Approval",
      "type": "event"
    }
  ],
  "bytecode": "0x60606040526000600360146101000a81548160ff02191690831515021790555066470de4df8200006004556706f05b59d3b20000600555671bc16d674ec80000600655674563918244f40000600755635b4b7a0c600855341561006157600080fd5b336000806101000a81548173ffffffffffffffffffffffffffffffffffffffff021916908373ffffffffffffffffffffffffffffffffffffffff1602179055506001600260008060009054906101000a900473ffffffffffffffffffffffffffffffffffffffff1673ffffffffffffffffffffffffffffffffffffffff1673ffffffffffffffffffffffffffffffffffffffff16815260200190815260200160002060006101000a81548160ff021916908315150217905550613118806101296000396000f30060606040526004361061020e576000357c0100000000000000000000000000000000000000000000000000000000900463ffffffff168062923f9e14610213578063051a26641461024e57806306fdde031461028d5780630757114e1461031b578063095ea7b3146103445780631051db341461038657806313af4035146103b35780631785f53c146103ec57806318160ddd146104255780631fe8500e1461044e57806323b872dd1461048757806324d7806c146104e85780632a6dd48f146105395780632e4f43bf1461059c57806337525ff01461062a578063443f45a41461064d57806349386f26146106705780634a701fc3146106da5780635435bac81461073a5780635a3f2672146107bb5780635ba9e48e146108495780636352211e1461088057806365121205146108e3578063654c73811461091a57806365d738511461097257806370480275146109a957806370a08231146109e257806371dc761e14610a2f5780638404849714610a44578063893d20e814610ab95780638f88aed014610b0e57806395d89b4114610b68578063a212523214610bf6578063a9059cbb14610c36578063af7520b914610c78578063b3f3668c14610caf578063b9186d7d14610cd8578063bd4cfadf14610d0f578063c588953e14610d82578063c983893014610dab578063d96a094a14610de4578063e08503ec14610dfc578063fd03e72114610e33575b600080fd5b341561021e57600080fd5b6102346004808035906020019091905050610e88565b604051808215151515815260200191505060405180910390f35b341561025957600080fd5b61026f6004808035906020019091905050610e9c565b60405180826000191660001916815260200191505060405180910390f35b341561029857600080fd5b6102a0610eb9565b6040518080602001828103825283818151815260200191508051906020019080838360005b838110156102e05780820151818401526020810190506102c5565b50505050905090810190601f16801561030d5780820380516001836020036101000a031916815260200191505b509250505060405180910390f35b341561032657600080fd5b61032e610efc565b6040518082815260200191505060405180910390f35b341561034f57600080fd5b610384600480803573ffffffffffffffffffffffffffffffffffffffff16906020019091908035906020019091905050610f06565b005b341561039157600080fd5b61039961116c565b604051808215151515815260200191505060405180910390f35b34156103be57600080fd5b6103ea600480803573ffffffffffffffffffffffffffffffffffffffff16906020019091905050611183565b005b34156103f757600080fd5b610423600480803573ffffffffffffffffffffffffffffffffffffffff16906020019091905050611221565b005b341561043057600080fd5b6104386112ce565b6040518082815260200191505060405180910390f35b341561045957600080fd5b610485600480803573ffffffffffffffffffffffffffffffffffffffff169060200190919050506112db565b005b341561049257600080fd5b6104e6600480803573ffffffffffffffffffffffffffffffffffffffff1690602001909190803573ffffffffffffffffffffffffffffffffffffffff1690602001909190803590602001909190505061137a565b005b34156104f357600080fd5b61051f600480803573ffffffffffffffffffffffffffffffffffffffff169060200190919050506113e7565b604051808215151515815260200191505060405180910390f35b341561054457600080fd5b61055a600480803590602001909190505061143d565b604051808273ffffffffffffffffffffffffffffffffffffffff1673ffffffffffffffffffffffffffffffffffffffff16815260200191505060405180910390f35b34156105a757600080fd5b6105bd600480803590602001909190505061147a565b604051808781526020018673ffffffffffffffffffffffffffffffffffffffff1673ffffffffffffffffffffffffffffffffffffffff1681526020018581526020018481526020018381526020018260001916600019168152602001965050505050505060405180910390f35b341561063557600080fd5b61064b60048080359060200190919050506114c6565b005b341561065857600080fd5b61066e6004808035906020019091905050611a31565b005b341561067b57600080fd5b610683611b32565b6040518080602001828103825283818151815260200191508051906020019060200280838360005b838110156106c65780820151818401526020810190506106ab565b505050509050019250505060405180910390f35b34156106e557600080fd5b610738600480803573ffffffffffffffffffffffffffffffffffffffff16906020019091908035600019169060200190919080356000191690602001909190803560001916906020019091905050611b90565b005b341561074557600080fd5b6107646004808035906020019091908035906020019091905050611c6e565b6040518080602001828103825283818151815260200191508051906020019060200280838360005b838110156107a757808201518184015260208101905061078c565b505050509050019250505060405180910390f35b34156107c657600080fd5b6107f2600480803573ffffffffffffffffffffffffffffffffffffffff16906020019091905050611cff565b6040518080602001828103825283818151815260200191508051906020019060200280838360005b8381101561083557808201518184015260208101905061081a565b505050509050019250505060405180910390f35b341561085457600080fd5b61086a6004808035906020019091905050611dfd565b6040518082815260200191505060405180910390f35b341561088b57600080fd5b6108a16004808035906020019091905050611e17565b604051808273ffffffffffffffffffffffffffffffffffffffff1673ffffffffffffffffffffffffffffffffffffffff16815260200191505060405180910390f35b34156108ee57600080fd5b6109046004808035906020019091905050611e54565b6040518082815260200191505060405180910390f35b341561092557600080fd5b610970600480803590602001909190803590602001909190803573ffffffffffffffffffffffffffffffffffffffff1690602001909190803560001916906020019091905050611e84565b005b341561097d57600080fd5b6109936004808035906020019091905050612048565b6040518082815260200191505060405180910390f35b34156109b457600080fd5b6109e0600480803573ffffffffffffffffffffffffffffffffffffffff16906020019091905050612159565b005b34156109ed57600080fd5b610a19600480803573ffffffffffffffffffffffffffffffffffffffff1690602001909190505061220f565b6040518082815260200191505060405180910390f35b3415610a3a57600080fd5b610a4261229f565b005b3415610a4f57600080fd5b610ab760048080359060200190820180359060200191909192908035906020019082018035906020019190919290803573ffffffffffffffffffffffffffffffffffffffff169060200190919080359060200190820180359060200191909192905050612317565b005b3415610ac457600080fd5b610acc6123e4565b604051808273ffffffffffffffffffffffffffffffffffffffff1673ffffffffffffffffffffffffffffffffffffffff16815260200191505060405180910390f35b3415610b1957600080fd5b610b6660048080359060200190820180359060200190808060200260200160405190810160405280939291908181526020018383602002808284378201915050505050509190505061240d565b005b3415610b7357600080fd5b610b7b6125b7565b6040518080602001828103825283818151815260200191508051906020019080838360005b83811015610bbb578082015181840152602081019050610ba0565b50505050905090810190601f168015610be85780820380516001836020036101000a031916815260200191505b509250505060405180910390f35b3415610c0157600080fd5b610c2060048080359060200190919080359060200190919050506125fa565b6040518082815260200191505060405180910390f35b3415610c4157600080fd5b610c76600480803573ffffffffffffffffffffffffffffffffffffffff16906020019091908035906020019091905050612688565b005b3415610c8357600080fd5b610c9960048080359060200190919050506126f4565b6040518082815260200191505060405180910390f35b3415610cba57600080fd5b610cc2612711565b6040518082815260200191505060405180910390f35b3415610ce357600080fd5b610cf96004808035906020019091905050612730565b6040518082815260200191505060405180910390f35b3415610d1a57600080fd5b610d46600480803573ffffffffffffffffffffffffffffffffffffffff1690602001909190505061274d565b60405180846000191660001916815260200183600019166000191681526020018260001916600019168152602001935050505060405180910390f35b3415610d8d57600080fd5b610d9561281f565b6040518082815260200191505060405180910390f35b3415610db657600080fd5b610de2600480803573ffffffffffffffffffffffffffffffffffffffff16906020019091905050612825565b005b610dfa60048080359060200190919050506128c4565b005b3415610e0757600080fd5b610e1d6004808035906020019091905050612cde565b6040518082815260200191505060405180910390f35b3415610e3e57600080fd5b610e46612def565b604051808273ffffffffffffffffffffffffffffffffffffffff1673ffffffffffffffffffffffffffffffffffffffff16815260200191505060405180910390f35b600080610e9483612730565b119050919050565b6000600e6000838152602001908152602001600020549050919050565b610ec1613073565b6040805190810160405280600e81526020017f506172616c6c656c20576f726c64000000000000000000000000000000000000815250905090565b6000600854905090565b600360149054906101000a900460ff161515610f2157600080fd5b8173ffffffffffffffffffffffffffffffffffffffff163373ffffffffffffffffffffffffffffffffffffffff1614151515610f5c57600080fd5b610f6581610e88565b1515610f7057600080fd5b3373ffffffffffffffffffffffffffffffffffffffff16610f9082611e17565b73ffffffffffffffffffffffffffffffffffffffff16141515610fb257600080fd5b60008273ffffffffffffffffffffffffffffffffffffffff1614156110b0576000600d600083815260200190815260200160002060009054906101000a900473ffffffffffffffffffffffffffffffffffffffff1673ffffffffffffffffffffffffffffffffffffffff161415156110ab57600d600082815260200190815260200160002060006101000a81549073ffffffffffffffffffffffffffffffffffffffff021916905560003373ffffffffffffffffffffffffffffffffffffffff167f8c5be1e5ebec7d5bd14f71427d1e84f3dd0314c0f7b2291e5b200ac8c7c3b925836040518082815260200191505060405180910390a35b611168565b81600d600083815260200190815260200160002060006101000a81548173ffffffffffffffffffffffffffffffffffffffff021916908373ffffffffffffffffffffffffffffffffffffffff1602179055508173ffffffffffffffffffffffffffffffffffffffff163373ffffffffffffffffffffffffffffffffffffffff167f8c5be1e5ebec7d5bd14f71427d1e84f3dd0314c0f7b2291e5b200ac8c7c3b925836040518082815260200191505060405180910390a35b5050565b6000600360149054906101000a900460ff16905090565b3373ffffffffffffffffffffffffffffffffffffffff166000809054906101000a900473ffffffffffffffffffffffffffffffffffffffff1673ffffffffffffffffffffffffffffffffffffffff161415156111de57600080fd5b806000806101000a81548173ffffffffffffffffffffffffffffffffffffffff021916908373ffffffffffffffffffffffffffffffffffffffff16021790555050565b3373ffffffffffffffffffffffffffffffffffffffff166000809054906101000a900473ffffffffffffffffffffffffffffffffffffffff1673ffffffffffffffffffffffffffffffffffffffff1614151561127c57600080fd5b600260008273ffffffffffffffffffffffffffffffffffffffff1673ffffffffffffffffffffffffffffffffffffffff16815260200190815260200160002060006101000a81549060ff021916905550565b6000600980549050905090565b3373ffffffffffffffffffffffffffffffffffffffff166000809054906101000a900473ffffffffffffffffffffffffffffffffffffffff1673ffffffffffffffffffffffffffffffffffffffff1614151561133657600080fd5b80600360006101000a81548173ffffffffffffffffffffffffffffffffffffffff021916908373ffffffffffffffffffffffffffffffffffffffff16021790555050565b600360149054906101000a900460ff16151561139557600080fd5b3373ffffffffffffffffffffffffffffffffffffffff166113b58261143d565b73ffffffffffffffffffffffffffffffffffffffff161415156113d757600080fd5b6113e2838383612e15565b505050565b6000600260008373ffffffffffffffffffffffffffffffffffffffff1673ffffffffffffffffffffffffffffffffffffffff16815260200190815260200160002060009054906101000a900460ff169050919050565b6000600d600083815260200190815260200160002060009054906101000a900473ffffffffffffffffffffffffffffffffffffffff169050919050565b6000806000806000808661148d88611e17565b611496896126f4565b61149f8a612730565b6114a88b611dfd565b6114b18c610e9c565b95509550955095509550955091939550919395565b60008060003373ffffffffffffffffffffffffffffffffffffffff166000809054906101000a900473ffffffffffffffffffffffffffffffffffffffff1673ffffffffffffffffffffffffffffffffffffffff1614151561152657600080fd5b600073ffffffffffffffffffffffffffffffffffffffff16600360009054906101000a900473ffffffffffffffffffffffffffffffffffffffff1673ffffffffffffffffffffffffffffffffffffffff161415151561158457600080fd5b600073ffffffffffffffffffffffffffffffffffffffff16600360009054906101000a900473ffffffffffffffffffffffffffffffffffffffff1673ffffffffffffffffffffffffffffffffffffffff16636352211e866000604051602001526040518263ffffffff167c010000000000000000000000000000000000000000000000000000000002815260040180828152602001915050602060405180830381600087803b151561163557600080fd5b6102c65a03f1151561164657600080fd5b5050506040518051905073ffffffffffffffffffffffffffffffffffffffff161415151561167357600080fd5b6000600360009054906101000a900473ffffffffffffffffffffffffffffffffffffffff1673ffffffffffffffffffffffffffffffffffffffff1663b9186d7d866000604051602001526040518263ffffffff167c010000000000000000000000000000000000000000000000000000000002815260040180828152602001915050602060405180830381600087803b151561170e57600080fd5b6102c65a03f1151561171f57600080fd5b5050506040518051905011151561173557600080fd5b6000600360009054906101000a900473ffffffffffffffffffffffffffffffffffffffff1673ffffffffffffffffffffffffffffffffffffffff1663051a2664866000604051602001526040518263ffffffff167c010000000000000000000000000000000000000000000000000000000002815260040180828152602001915050602060405180830381600087803b15156117d057600080fd5b6102c65a03f115156117e157600080fd5b5050506040518051905050602060ff161115156117fd57600080fd5b600360009054906101000a900473ffffffffffffffffffffffffffffffffffffffff1673ffffffffffffffffffffffffffffffffffffffff1663b9186d7d856000604051602001526040518263ffffffff167c010000000000000000000000000000000000000000000000000000000002815260040180828152602001915050602060405180830381600087803b151561189657600080fd5b6102c65a03f115156118a757600080fd5b505050604051805190509250600360009054906101000a900473ffffffffffffffffffffffffffffffffffffffff1673ffffffffffffffffffffffffffffffffffffffff16636352211e856000604051602001526040518263ffffffff167c010000000000000000000000000000000000000000000000000000000002815260040180828152602001915050602060405180830381600087803b151561194c57600080fd5b6102c65a03f1151561195d57600080fd5b505050604051805190509150600360009054906101000a900473ffffffffffffffffffffffffffffffffffffffff1673ffffffffffffffffffffffffffffffffffffffff1663051a2664856000604051602001526040518263ffffffff167c010000000000000000000000000000000000000000000000000000000002815260040180828152602001915050602060405180830381600087803b1515611a0257600080fd5b6102c65a03f11515611a1357600080fd5b505050604051805190509050611a2b84848484611e84565b50505050565b60003373ffffffffffffffffffffffffffffffffffffffff166000809054906101000a900473ffffffffffffffffffffffffffffffffffffffff1673ffffffffffffffffffffffffffffffffffffffff16141515611a8e57600080fd5b3073ffffffffffffffffffffffffffffffffffffffff163190503073ffffffffffffffffffffffffffffffffffffffff16611ac883611e17565b73ffffffffffffffffffffffffffffffffffffffff16141515611b2e57611aee82611e17565b73ffffffffffffffffffffffffffffffffffffffff166108fc829081150290604051600060405180830381858888f193505050501515611b2d57600080fd5b5b5050565b611b3a613087565b6009805480602002602001604051908101604052809291908181526020018280548015611b8657602002820191906000526020600020905b815481526020019060010190808311611b72575b5050505050905090565b82600f60008673ffffffffffffffffffffffffffffffffffffffff1673ffffffffffffffffffffffffffffffffffffffff168152602001908152602001600020816000191690555081601060008673ffffffffffffffffffffffffffffffffffffffff1673ffffffffffffffffffffffffffffffffffffffff168152602001908152602001600020816000191690555080601160008673ffffffffffffffffffffffffffffffffffffffff1673ffffffffffffffffffffffffffffffffffffffff168152602001908152602001600020816000191690555050505050565b611c76613087565b611c7e613087565b600083604051805910611c8e5750595b90808252806020026020018201604052509150600090505b83811015611cf4576009818601815481101515611cbf57fe5b9060005260206000209001548282815181101515611cd957fe5b90602001906020020181815250508080600101915050611ca6565b819250505092915050565b611d07613087565b611d0f613087565b600080611d1b8561220f565b604051805910611d285750595b9080825280602002602001820160405250925060009150600090505b600980549050811015611df2578473ffffffffffffffffffffffffffffffffffffffff16611d8b600983815481101515611d7a57fe5b906000526020600020900154611e17565b73ffffffffffffffffffffffffffffffffffffffff161415611de557600981815481101515611db657fe5b9060005260206000209001548383815181101515611dd057fe5b90602001906020020181815250506001820191505b8080600101915050611d44565b829350505050919050565b6000611e10611e0b83612730565b612cde565b9050919050565b6000600a600083815260200190815260200160002060009054906101000a900473ffffffffffffffffffffffffffffffffffffffff169050919050565b6000611e7d6064611e6f600a85612ff190919063ffffffff16565b61302c90919063ffffffff16565b9050919050565b600260003373ffffffffffffffffffffffffffffffffffffffff1673ffffffffffffffffffffffffffffffffffffffff16815260200190815260200160002060009054906101000a900460ff161515611edc57600080fd5b600083111515611eeb57600080fd5b6000600c600086815260200190815260200160002054141515611f0d57600080fd5b600073ffffffffffffffffffffffffffffffffffffffff16600a600086815260200190815260200160002060009054906101000a900473ffffffffffffffffffffffffffffffffffffffff1673ffffffffffffffffffffffffffffffffffffffff16141515611f7b57600080fd5b30600a600086815260200190815260200160002060006101000a81548173ffffffffffffffffffffffffffffffffffffffff021916908373ffffffffffffffffffffffffffffffffffffffff16021790555082600c60008681526020019081526020016000208190555082600b60008681526020019081526020016000208190555080600e600086815260200190815260200160002081600019169055506009805480600101828161202d919061309b565b91600052602060002090016000869091909150555050505050565b60006004548210156120825761207b606461206d601a85612ff190919063ffffffff16565b61302c90919063ffffffff16565b9050612154565b6005548210156120ba576120b360646120a5600e85612ff190919063ffffffff16565b61302c90919063ffffffff16565b9050612154565b6006548210156120f2576120eb60646120dd600a85612ff190919063ffffffff16565b61302c90919063ffffffff16565b9050612154565b60075482101561212a576121236064612115600885612ff190919063ffffffff16565b61302c90919063ffffffff16565b9050612154565b6121516064612143600785612ff190919063ffffffff16565b61302c90919063ffffffff16565b90505b919050565b3373ffffffffffffffffffffffffffffffffffffffff166000809054906101000a900473ffffffffffffffffffffffffffffffffffffffff1673ffffffffffffffffffffffffffffffffffffffff161415156121b457600080fd5b6001600260008373ffffffffffffffffffffffffffffffffffffffff1673ffffffffffffffffffffffffffffffffffffffff16815260200190815260200160002060006101000a81548160ff02191690831515021790555050565b6000806000809150600090505b600980549050811015612295578373ffffffffffffffffffffffffffffffffffffffff1661226360098381548110151561225257fe5b906000526020600020900154611e17565b73ffffffffffffffffffffffffffffffffffffffff1614156122885781806001019250505b808060010191505061221c565b8192505050919050565b3373ffffffffffffffffffffffffffffffffffffffff166000809054906101000a900473ffffffffffffffffffffffffffffffffffffffff1673ffffffffffffffffffffffffffffffffffffffff161415156122fa57600080fd5b6001600360146101000a81548160ff021916908315150217905550565b6000600260003373ffffffffffffffffffffffffffffffffffffffff1673ffffffffffffffffffffffffffffffffffffffff16815260200190815260200160002060009054906101000a900460ff16151561237157600080fd5b600090505b878790508110156123da576123cd888883818110151561239257fe5b9050602002013587878481811015156123a757fe5b905060200201358686868681811015156123bd57fe5b9050602002013560001916611e84565b8080600101915050612376565b5050505050505050565b60008060009054906101000a900473ffffffffffffffffffffffffffffffffffffffff16905090565b60003373ffffffffffffffffffffffffffffffffffffffff166000809054906101000a900473ffffffffffffffffffffffffffffffffffffffff1673ffffffffffffffffffffffffffffffffffffffff1614151561246a57600080fd5b600090505b81518110156125b3576000600c6000848481518110151561248c57fe5b90602001906020020151815260200190815260200160002054118061257b57506000600360009054906101000a900473ffffffffffffffffffffffffffffffffffffffff1673ffffffffffffffffffffffffffffffffffffffff1663b9186d7d84848151811015156124fa57fe5b906020019060200201516000604051602001526040518263ffffffff167c010000000000000000000000000000000000000000000000000000000002815260040180828152602001915050602060405180830381600087803b151561255e57600080fd5b6102c65a03f1151561256f57600080fd5b50505060405180519050145b15612585576125a6565b6125a5828281518110151561259657fe5b906020019060200201516114c6565b5b808060010191505061246f565b5050565b6125bf613073565b6040805190810160405280600381526020017f5057430000000000000000000000000000000000000000000000000000000000815250905090565b6000600260003373ffffffffffffffffffffffffffffffffffffffff1673ffffffffffffffffffffffffffffffffffffffff16815260200190815260200160002060009054906101000a900460ff16151561265457600080fd5b81600c600085815260200190815260200160002081905550600c600084815260200190815260200160002054905092915050565b600360149054906101000a900460ff1615156126a357600080fd5b6126ac81611e17565b73ffffffffffffffffffffffffffffffffffffffff163373ffffffffffffffffffffffffffffffffffffffff161415156126e557600080fd5b6126f0338383612e15565b5050565b6000600b6000838152602001908152602001600020549050919050565b60003073ffffffffffffffffffffffffffffffffffffffff1631905090565b6000600c6000838152602001908152602001600020549050919050565b6000806000600f60008573ffffffffffffffffffffffffffffffffffffffff1673ffffffffffffffffffffffffffffffffffffffff16815260200190815260200160002054601060008673ffffffffffffffffffffffffffffffffffffffff1673ffffffffffffffffffffffffffffffffffffffff16815260200190815260200160002054601160008773ffffffffffffffffffffffffffffffffffffffff1673ffffffffffffffffffffffffffffffffffffffff168152602001908152602001600020549250925092509193909250565b60085481565b3373ffffffffffffffffffffffffffffffffffffffff166000809054906101000a900473ffffffffffffffffffffffffffffffffffffffff1673ffffffffffffffffffffffffffffffffffffffff1614151561288057600080fd5b80600160006101000a81548173ffffffffffffffffffffffffffffffffffffffff021916908373ffffffffffffffffffffffffffffffffffffffff16021790555050565b60008060008060008060006128d888612730565b1115156128e457600080fd5b600073ffffffffffffffffffffffffffffffffffffffff1661290588611e17565b73ffffffffffffffffffffffffffffffffffffffff161415151561292857600080fd5b61293187611dfd565b341015151561293f57600080fd5b3373ffffffffffffffffffffffffffffffffffffffff1661295f88611e17565b73ffffffffffffffffffffffffffffffffffffffff161415151561298257600080fd5b61298b33613047565b15151561299757600080fd5b600073ffffffffffffffffffffffffffffffffffffffff163373ffffffffffffffffffffffffffffffffffffffff16141515156129d357600080fd5b600854421015156129e357600080fd5b6129ec87611e17565b95503394506129fa87612730565b9350612a07868689612e15565b612a1087611dfd565b600c600089815260200190815260200160002081905550612a4d84600c60008a81526020019081526020016000205461305a90919063ffffffff16565b9250612a75600c6000898152602001908152602001600020543461305a90919063ffffffff16565b91508473ffffffffffffffffffffffffffffffffffffffff168673ffffffffffffffffffffffffffffffffffffffff16887f40639f3c59b7b87430a1e0ee6896092361c626ca5ff0bee571aae856e7235d56600c60008c8152602001908152602001600020546040518082815260200191505060405180910390a43073ffffffffffffffffffffffffffffffffffffffff168673ffffffffffffffffffffffffffffffffffffffff16141515612c2157612b71612b4f6064612b41605087612ff190919063ffffffff16565b61302c90919063ffffffff16565b600c60008a81526020019081526020016000205461305a90919063ffffffff16565b90508573ffffffffffffffffffffffffffffffffffffffff166108fc829081150290604051600060405180830381858888f193505050501515612bb357600080fd5b6000809054906101000a900473ffffffffffffffffffffffffffffffffffffffff1673ffffffffffffffffffffffffffffffffffffffff166108fc612bf785611e54565b9081150290604051600060405180830381858888f193505050501515612c1c57600080fd5b612c8b565b6000809054906101000a900473ffffffffffffffffffffffffffffffffffffffff1673ffffffffffffffffffffffffffffffffffffffff166108fc612c6534611e54565b9081150290604051600060405180830381858888f193505050501515612c8a57600080fd5b5b6000821115612cd5578473ffffffffffffffffffffffffffffffffffffffff166108fc839081150290604051600060405180830381858888f193505050501515612cd457600080fd5b5b50505050505050565b6000600454821015612d1857612d116064612d0360d285612ff190919063ffffffff16565b61302c90919063ffffffff16565b9050612dea565b600554821015612d5057612d496064612d3b608c85612ff190919063ffffffff16565b61302c90919063ffffffff16565b9050612dea565b600654821015612d8857612d816064612d73608085612ff190919063ffffffff16565b61302c90919063ffffffff16565b9050612dea565b600754821015612dc057612db96064612dab607885612ff190919063ffffffff16565b61302c90919063ffffffff16565b9050612dea565b612de76064612dd9607585612ff190919063ffffffff16565b61302c90919063ffffffff16565b90505b919050565b600160009054906101000a900473ffffffffffffffffffffffffffffffffffffffff1681565b612e1e81610e88565b1515612e2957600080fd5b8273ffffffffffffffffffffffffffffffffffffffff16612e4982611e17565b73ffffffffffffffffffffffffffffffffffffffff16141515612e6b57600080fd5b600073ffffffffffffffffffffffffffffffffffffffff168273ffffffffffffffffffffffffffffffffffffffff1614151515612ea757600080fd5b3073ffffffffffffffffffffffffffffffffffffffff168273ffffffffffffffffffffffffffffffffffffffff1614151515612ee257600080fd5b81600a600083815260200190815260200160002060006101000a81548173ffffffffffffffffffffffffffffffffffffffff021916908373ffffffffffffffffffffffffffffffffffffffff1602179055506000600d600083815260200190815260200160002060006101000a81548173ffffffffffffffffffffffffffffffffffffffff021916908373ffffffffffffffffffffffffffffffffffffffff1602179055508173ffffffffffffffffffffffffffffffffffffffff168373ffffffffffffffffffffffffffffffffffffffff167fddf252ad1be2c89b69c2b068fc378daa952ba7f163c4a11628f55a4df523b3ef836040518082815260200191505060405180910390a3505050565b60008060008414156130065760009150613025565b828402905082848281151561301757fe5b0414151561302157fe5b8091505b5092915050565b600080828481151561303a57fe5b0490508091505092915050565b600080823b905060008111915050919050565b600082821115151561306857fe5b818303905092915050565b602060405190810160405280600081525090565b602060405190810160405280600081525090565b8154818355818115116130c2578183600052602060002091820191016130c191906130c7565b5b505050565b6130e991905b808211156130e55760008160009055506001016130cd565b5090565b905600a165627a7a72305820f03b99efcfafea34120bcdf808999c457ddae94f9c280a378d405b943c647eb80029",
  "source": "pragma solidity ^0.4.13;\n\nlibrary SafeMath {\n\n  /**\n  * @dev Multiplies two numbers, throws on overflow.\n  */\n  function mul(uint256 a, uint256 b) internal pure returns (uint256) {\n    if (a == 0) {\n      return 0;\n    }\n    uint256 c = a * b;\n    assert(c / a == b);\n    return c;\n  }\n\n  /**\n  * @dev Integer division of two numbers, truncating the quotient.\n  */\n  function div(uint256 a, uint256 b) internal pure returns (uint256) {\n    // assert(b > 0); // Solidity automatically throws when dividing by 0\n    uint256 c = a / b;\n    // assert(a == b * c + a % b); // There is no case in which this doesn't hold\n    return c;\n  }\n\n  /**\n  * @dev Substracts two numbers, throws on overflow (i.e. if subtrahend is greater than minuend).\n  */\n  function sub(uint256 a, uint256 b) internal pure returns (uint256) {\n    assert(b <= a);\n    return a - b;\n  }\n\n  /**\n  * @dev Adds two numbers, throws on overflow.\n  */\n  function add(uint256 a, uint256 b) internal pure returns (uint256) {\n    uint256 c = a + b;\n    assert(c >= a);\n    return c;\n  }\n}\n\n\ncontract ParallelWorld {\n  using SafeMath for uint256;\n\n  event TransactionOccured(uint256 indexed _itemId, uint256 _price, address indexed _oldowner, address indexed _newowner);\n  event Bought (uint256 indexed _itemId, address indexed _owner, uint256 _price);\n  event Sold (uint256 indexed _itemId, address indexed _owner, uint256 _price);\n  event Transfer(address indexed _from, address indexed _to, uint256 _tokenId);\n  event Approval(address indexed _owner, address indexed _approved, uint256 _tokenId);\n\n  address private owner;\n  address public referraltokencontract;\n  mapping (address => bool) private admins;\n  IItemRegistry private itemRegistry;\n  bool private erc721Enabled = false;\n\n  uint256 private increaseLimit1 = 0.02 ether;\n  uint256 private increaseLimit2 = 0.5 ether;\n  uint256 private increaseLimit3 = 2.0 ether;\n  uint256 private increaseLimit4 = 5.0 ether;\n\n  uint256 public enddate = 1531673100; //World Cup Finals game end date/time\n\n  uint256[] private listedItems;\n  mapping (uint256 => address) private ownerOfItem;\n  mapping (uint256 => uint256) private startingPriceOfItem;\n  mapping (uint256 => uint256) private priceOfItem;\n  mapping (uint256 => address) private approvedOfItem;\n  mapping (uint256 => bytes32) private nameofItem;\n\n  mapping (address => bytes32) private ownerAlias;\n  mapping (address => bytes32) private ownerEmail;\n  mapping (address => bytes32) private ownerPhone;\n\n  function ParallelWorld () public {\n    owner = msg.sender;\n    admins[owner] = true;\n  }\n\n  /* Modifiers */\n  modifier onlyOwner() {\n    require(owner == msg.sender);\n    _;\n  }\n\n  modifier onlyAdmins() {\n    require(admins[msg.sender]);\n    _;\n  }\n\n  modifier onlyERC721() {\n    require(erc721Enabled);\n    _;\n  }\n\n  /* Owner */\n  function setOwner (address _owner) onlyOwner() public {\n    owner = _owner;\n  }\n\n  function getOwner() public view returns (address){\n    return owner;\n  }\n\n  function setReferralTokenContract (address _referraltokencontract) onlyOwner() public {\n    referraltokencontract = _referraltokencontract;\n  }\n\n  function setItemRegistry (address _itemRegistry) onlyOwner() public {\n    itemRegistry = IItemRegistry(_itemRegistry);\n  }\n\n  function addAdmin (address _admin) onlyOwner() public {\n    admins[_admin] = true;\n  }\n\n  function removeAdmin (address _admin) onlyOwner() public {\n    delete admins[_admin];\n  }\n\n  // Unlocks ERC721 behaviour, allowing for trading on third party platforms.\n  function enableERC721 () onlyOwner() public {\n    erc721Enabled = true;\n  }\n\n  /* Withdraw */\n  /*\n    NOTICE: These functions withdraw the developer's cut which is left\n    in the contract by `buy`. User funds are immediately sent to the old\n    owner in `buy`, no user funds are left in the contract.\n  */\n  /*function withdrawAll () onlyOwner() public {\n    owner.transfer(this.balance);\n  }\n\n  function withdrawAmount (uint256 _amount) onlyOwner() public {\n    owner.transfer(_amount);\n  }*/\n\n  //award prize to winner, and developer already took 10% from individual transactions\n  function awardprize(uint256 _itemId) onlyOwner() public{\n    uint256 winneramount;\n\n    winneramount = this.balance;\n\n    if (ownerOf(_itemId) != address(this))\n    {\n      //winner gets the prize amount minus developer cut\n      ownerOf(_itemId).transfer(winneramount);\n    }\n    \n\n  }\n\n  /* Listing */\n  function populateFromItemRegistry (uint256[] _itemIds) onlyOwner() public {\n    for (uint256 i = 0; i < _itemIds.length; i++) {\n      if (priceOfItem[_itemIds[i]] > 0 || itemRegistry.priceOf(_itemIds[i]) == 0) {\n        continue;\n      }\n\n      listItemFromRegistry(_itemIds[i]);\n    }\n  }\n\n  function listItemFromRegistry (uint256 _itemId) onlyOwner() public {\n    require(itemRegistry != address(0));\n    require(itemRegistry.ownerOf(_itemId) != address(0));\n    require(itemRegistry.priceOf(_itemId) > 0);\n    require(itemRegistry.nameOf(_itemId).length > 0 );\n\n    uint256 price = itemRegistry.priceOf(_itemId);\n    address itemOwner = itemRegistry.ownerOf(_itemId);\n    bytes32 nameofItemlocal = itemRegistry.nameOf(_itemId);\n    listItem(_itemId, price, itemOwner, nameofItemlocal);\n  }\n\n  function listMultipleItems (uint256[] _itemIds, uint256[] _price, address _owner, bytes32[] _nameofItem) onlyAdmins() external {\n    for (uint256 i = 0; i < _itemIds.length; i++) {\n      listItem(_itemIds[i], _price[i], _owner, _nameofItem[i]);\n    }\n  }\n\n  function listItem (uint256 _itemId, uint256 _price, address _owner, bytes32 _nameofItem) onlyAdmins() public {\n    require(_price > 0);\n    require(priceOfItem[_itemId] == 0);\n    require(ownerOfItem[_itemId] == address(0));\n    \n\n    ownerOfItem[_itemId] = this; //set the contract as original owner of teams\n    priceOfItem[_itemId] = _price;\n    startingPriceOfItem[_itemId] = _price;\n    nameofItem[_itemId] = _nameofItem;\n    listedItems.push(_itemId);\n  }\n\n  function addItem(uint256 _itemId, uint256 _price) onlyAdmins() public returns (uint256 _pricereturn){\n    priceOfItem[_itemId] = _price;\n    return priceOfItem[_itemId];\n  }\n\n  /* Buying */\n  function calculateNextPrice (uint256 _price) public view returns (uint256 _nextPrice) {\n    if (_price < increaseLimit1) {\n      return _price.mul(210).div(100); //added 110%\n    } else if (_price < increaseLimit2) {\n      return _price.mul(140).div(100); //added 40%\n    } else if (_price < increaseLimit3) {\n      return _price.mul(128).div(100); //added 28%\n    } else if (_price < increaseLimit4) {\n      return _price.mul(120).div(100); //added 20%\n    } else {\n      return _price.mul(117).div(100); //added 17%\n    }\n  }\n\n  function calculatePrizeCut (uint256 _price) public view returns (uint256 _devCut) {\n    if (_price < increaseLimit1) {\n      return _price.mul(26).div(100); // 26%\n    } else if (_price < increaseLimit2) {\n      return _price.mul(14).div(100); // 14%\n    } else if (_price < increaseLimit3) {\n      return _price.mul(10).div(100); // 10%\n    } else if (_price < increaseLimit4) {\n      return _price.mul(8).div(100); // 8%\n    } else {\n      return _price.mul(7).div(100); // 7%\n    }\n  }\n\n  function calculateDevCut (uint256 _price) public view returns (uint256 _devCut) {\n    return _price.mul(10).div(100); //10%\n  }\n\n  /*\n     Buy a country directly from the contract for the calculated price\n     which ensures that the owner gets a profit.  All countries that\n     have been listed can be bought by this method. User funds are sent\n     directly to the previous owner and are never stored in the contract.\n  */\n  function buy (uint256 _itemId) payable public {\n    require(priceOf(_itemId) > 0);\n    require(ownerOf(_itemId) != address(0));\n    require(msg.value >= nextPriceOf(_itemId));\n    require(ownerOf(_itemId) != msg.sender);\n    require(!isContract(msg.sender));\n    require(msg.sender != address(0));\n    require(now < enddate); //team buying can only happen before April 2nd 00:00:00 UTC time\n\n    address oldOwner = ownerOf(_itemId);\n    address newOwner = msg.sender;\n    uint256 price = priceOf(_itemId);\n    \n    _transfer(oldOwner, newOwner, _itemId);\n    priceOfItem[_itemId] = nextPriceOf(_itemId);\n    uint256 pricedifference = priceOfItem[_itemId].sub(price);\n    uint256 excess = msg.value.sub(priceOfItem[_itemId]);\n\n    TransactionOccured(_itemId, priceOfItem[_itemId], oldOwner, newOwner);\n\n    // Transfer payment to old owner minus the cut for the final prize.  Don't transfer funds though if old owner is this contract\n    if (oldOwner != address(this))\n    {\n      //send to old owner,the original amount they paid, plus 20% of the price difference between what they paid and new owner pays\n      uint256 oldOwnercut = priceOfItem[_itemId].sub(pricedifference.mul(80).div(100));\n      oldOwner.transfer(oldOwnercut);\n      \n      //send to developer, 10% of price diff\n      owner.transfer(calculateDevCut(pricedifference));\n    \n    }\n    else\n    {\n      //first transaction to purchase from contract, send 10% of tx to dev\n      owner.transfer(calculateDevCut(msg.value));\n    \n    }\n\n    if (excess > 0) {\n      newOwner.transfer(excess);\n    }\n    \n  }\n\n  /* ERC721 */\n  function implementsERC721() public view returns (bool _implements) {\n    return erc721Enabled;\n  }\n\n  function name() public pure returns (string _name) {\n    return \"Parallel World\";\n  }\n\n  function symbol() public pure returns (string _symbol) {\n    return \"PWC\";\n  }\n\n  function totalSupply() public view returns (uint256 _totalSupply) {\n    return listedItems.length;\n  }\n\n  function balanceOf (address _owner) public view returns (uint256 _balance) {\n    uint256 counter = 0;\n\n    for (uint256 i = 0; i < listedItems.length; i++) {\n      if (ownerOf(listedItems[i]) == _owner) {\n        counter++;\n      }\n    }\n\n    return counter;\n  }\n\n  function ownerOf (uint256 _itemId) public view returns (address _owner) {\n    return ownerOfItem[_itemId];\n  }\n\n  function tokensOf (address _owner) public view returns (uint256[] _tokenIds) {\n    uint256[] memory items = new uint256[](balanceOf(_owner));\n\n    uint256 itemCounter = 0;\n    for (uint256 i = 0; i < listedItems.length; i++) {\n      if (ownerOf(listedItems[i]) == _owner) {\n        items[itemCounter] = listedItems[i];\n        itemCounter += 1;\n      }\n    }\n\n    return items;\n  }\n\n  function tokenExists (uint256 _itemId) public view returns (bool _exists) {\n    return priceOf(_itemId) > 0;\n  }\n\n  function approvedFor(uint256 _itemId) public view returns (address _approved) {\n    return approvedOfItem[_itemId];\n  }\n\n  function approve(address _to, uint256 _itemId) onlyERC721() public {\n    require(msg.sender != _to);\n    require(tokenExists(_itemId));\n    require(ownerOf(_itemId) == msg.sender);\n\n    if (_to == 0) {\n      if (approvedOfItem[_itemId] != 0) {\n        delete approvedOfItem[_itemId];\n        Approval(msg.sender, 0, _itemId);\n      }\n    } else {\n      approvedOfItem[_itemId] = _to;\n      Approval(msg.sender, _to, _itemId);\n    }\n  }\n\n  /* Transferring a team to another owner will entitle the new owner the profits from `buy` */\n  function transfer(address _to, uint256 _itemId) onlyERC721() public {\n    require(msg.sender == ownerOf(_itemId));\n    _transfer(msg.sender, _to, _itemId);\n  }\n\n  function transferFrom(address _from, address _to, uint256 _itemId) onlyERC721() public {\n    require(approvedFor(_itemId) == msg.sender);\n    _transfer(_from, _to, _itemId);\n  }\n\n  function _transfer(address _from, address _to, uint256 _itemId) internal {\n    require(tokenExists(_itemId));\n    require(ownerOf(_itemId) == _from);\n    require(_to != address(0));\n    require(_to != address(this));\n\n    ownerOfItem[_itemId] = _to;\n    approvedOfItem[_itemId] = 0;\n\n    Transfer(_from, _to, _itemId);\n  }\n\n  function setownerInfo(address _ownerAddress, bytes32 _ownerAlias, bytes32 _ownerEmail, bytes32 _ownerPhone) public\n  {\n      ownerAlias[_ownerAddress] = _ownerAlias;\n      ownerEmail[_ownerAddress] = _ownerEmail;\n      ownerPhone[_ownerAddress] = _ownerPhone;\n  }\n\n  /* Read */\n  function isAdmin (address _admin) public view returns (bool _isAdmin) {\n    return admins[_admin];\n  }\n\n  function startingPriceOf (uint256 _itemId) public view returns (uint256 _startingPrice) {\n    return startingPriceOfItem[_itemId];\n  }\n\n  function priceOf (uint256 _itemId) public view returns (uint256 _price) {\n    return priceOfItem[_itemId];\n  }\n\n  function nextPriceOf (uint256 _itemId) public view returns (uint256 _nextPrice) {\n    return calculateNextPrice(priceOf(_itemId));\n  }\n\n  function nameOf (uint256 _itemId) public view returns (bytes32 _name) {\n    return nameofItem[_itemId];\n  }\n\n  function allOf (uint256 _itemId) external view returns (uint256 _itemIdreturn, address _owner, uint256 _startingPrice, uint256 _price, uint256 _nextPrice, bytes32 _name) {\n    return (_itemId, ownerOf(_itemId), startingPriceOf(_itemId), priceOf(_itemId), nextPriceOf(_itemId), nameOf(_itemId));\n  }\n\n  function getenddate () public view returns (uint256 _enddate) {\n    return enddate;\n  }\n\n  function getlistedItems() external view returns(uint256[] _listedItems){\n    return(listedItems);\n  }\n\n  function itemsForSaleLimit (uint256 _from, uint256 _take) public view returns (uint256[] _items) {\n    uint256[] memory items = new uint256[](_take);\n\n    for (uint256 i = 0; i < _take; i++) {\n      items[i] = listedItems[_from + i];\n    }\n\n    return items;\n  }\n\n  function getprizeamount() public view returns(uint256 _prizeamount)\n  {\n    return this.balance;\n  }\n\n  function getownerInfo (address _owner) public view returns (bytes32 _name, bytes32 _email, bytes32 _phone) {\n    return (ownerAlias[_owner], ownerEmail[_owner], ownerPhone[_owner]);\n  }\n\n  /* Util */\n  function isContract(address addr) internal view returns (bool) {\n    uint size;\n    assembly { size := extcodesize(addr) } // solium-disable-line\n    return size > 0;\n  }\n\n  \n}\n\ninterface IItemRegistry {\n  function itemsForSaleLimit (uint256 _from, uint256 _take) public view returns (uint256[] _items);\n  function ownerOf (uint256 _itemId) public view returns (address _owner);\n  function priceOf (uint256 _itemId) public view returns (uint256 _price);\n  function nameOf (uint256 _itemId) public view returns (bytes32 _nameofItemlocal);\n}",
  "sourcePath": "/Users/Lornestar/Documents/Bitcoin/ParallelWorld/contracts/ParallelWorld.sol",
  "compiler": {
    "name": "solc",
    "version": "0.4.19+commit.c4cbbb05.Emscripten.clang"
  },
  "schemaVersion": "1.0.1",
  "updatedAt": "2018-04-21T19:54:04.633Z"
}