{
  "contractName": "ItemToken",
  "abi": [
    {
      "constant": true,
      "inputs": [
        {
          "name": "_itemId",
          "type": "uint256"
        }
      ],
      "name": "tokenExists",
      "outputs": [
        {
          "name": "_exists",
          "type": "bool"
        }
      ],
      "payable": false,
      "stateMutability": "view",
      "type": "function"
    },
    {
      "constant": false,
      "inputs": [
        {
          "name": "_amount",
          "type": "uint256"
        }
      ],
      "name": "withdrawAmount",
      "outputs": [],
      "payable": false,
      "stateMutability": "nonpayable",
      "type": "function"
    },
    {
      "constant": true,
      "inputs": [],
      "name": "name",
      "outputs": [
        {
          "name": "_name",
          "type": "string"
        }
      ],
      "payable": false,
      "stateMutability": "pure",
      "type": "function"
    },
    {
      "constant": false,
      "inputs": [
        {
          "name": "_to",
          "type": "address"
        },
        {
          "name": "_itemId",
          "type": "uint256"
        }
      ],
      "name": "approve",
      "outputs": [],
      "payable": false,
      "stateMutability": "nonpayable",
      "type": "function"
    },
    {
      "constant": true,
      "inputs": [],
      "name": "implementsERC721",
      "outputs": [
        {
          "name": "_implements",
          "type": "bool"
        }
      ],
      "payable": false,
      "stateMutability": "view",
      "type": "function"
    },
    {
      "constant": false,
      "inputs": [
        {
          "name": "_owner",
          "type": "address"
        }
      ],
      "name": "setOwner",
      "outputs": [],
      "payable": false,
      "stateMutability": "nonpayable",
      "type": "function"
    },
    {
      "constant": false,
      "inputs": [
        {
          "name": "_admin",
          "type": "address"
        }
      ],
      "name": "removeAdmin",
      "outputs": [],
      "payable": false,
      "stateMutability": "nonpayable",
      "type": "function"
    },
    {
      "constant": true,
      "inputs": [],
      "name": "totalSupply",
      "outputs": [
        {
          "name": "_totalSupply",
          "type": "uint256"
        }
      ],
      "payable": false,
      "stateMutability": "view",
      "type": "function"
    },
    {
      "constant": false,
      "inputs": [
        {
          "name": "_itemRegistry",
          "type": "address"
        }
      ],
      "name": "setItemRegistry",
      "outputs": [],
      "payable": false,
      "stateMutability": "nonpayable",
      "type": "function"
    },
    {
      "constant": false,
      "inputs": [
        {
          "name": "_from",
          "type": "address"
        },
        {
          "name": "_to",
          "type": "address"
        },
        {
          "name": "_itemId",
          "type": "uint256"
        }
      ],
      "name": "transferFrom",
      "outputs": [],
      "payable": false,
      "stateMutability": "nonpayable",
      "type": "function"
    },
    {
      "constant": true,
      "inputs": [
        {
          "name": "_admin",
          "type": "address"
        }
      ],
      "name": "isAdmin",
      "outputs": [
        {
          "name": "_isAdmin",
          "type": "bool"
        }
      ],
      "payable": false,
      "stateMutability": "view",
      "type": "function"
    },
    {
      "constant": true,
      "inputs": [
        {
          "name": "_itemId",
          "type": "uint256"
        }
      ],
      "name": "approvedFor",
      "outputs": [
        {
          "name": "_approved",
          "type": "address"
        }
      ],
      "payable": false,
      "stateMutability": "view",
      "type": "function"
    },
    {
      "constant": true,
      "inputs": [
        {
          "name": "_itemId",
          "type": "uint256"
        }
      ],
      "name": "allOf",
      "outputs": [
        {
          "name": "_owner",
          "type": "address"
        },
        {
          "name": "_startingPrice",
          "type": "uint256"
        },
        {
          "name": "_price",
          "type": "uint256"
        },
        {
          "name": "_nextPrice",
          "type": "uint256"
        }
      ],
      "payable": false,
      "stateMutability": "view",
      "type": "function"
    },
    {
      "constant": false,
      "inputs": [
        {
          "name": "_itemId",
          "type": "uint256"
        }
      ],
      "name": "listItemFromRegistry",
      "outputs": [],
      "payable": false,
      "stateMutability": "nonpayable",
      "type": "function"
    },
    {
      "constant": false,
      "inputs": [
        {
          "name": "_itemId",
          "type": "uint256"
        },
        {
          "name": "_price",
          "type": "uint256"
        },
        {
          "name": "_owner",
          "type": "address"
        }
      ],
      "name": "listItem",
      "outputs": [],
      "payable": false,
      "stateMutability": "nonpayable",
      "type": "function"
    },
    {
      "constant": true,
      "inputs": [
        {
          "name": "_from",
          "type": "uint256"
        },
        {
          "name": "_take",
          "type": "uint256"
        }
      ],
      "name": "itemsForSaleLimit",
      "outputs": [
        {
          "name": "_items",
          "type": "uint256[]"
        }
      ],
      "payable": false,
      "stateMutability": "view",
      "type": "function"
    },
    {
      "constant": true,
      "inputs": [
        {
          "name": "_owner",
          "type": "address"
        }
      ],
      "name": "tokensOf",
      "outputs": [
        {
          "name": "_tokenIds",
          "type": "uint256[]"
        }
      ],
      "payable": false,
      "stateMutability": "view",
      "type": "function"
    },
    {
      "constant": true,
      "inputs": [
        {
          "name": "_itemId",
          "type": "uint256"
        }
      ],
      "name": "nextPriceOf",
      "outputs": [
        {
          "name": "_nextPrice",
          "type": "uint256"
        }
      ],
      "payable": false,
      "stateMutability": "view",
      "type": "function"
    },
    {
      "constant": true,
      "inputs": [
        {
          "name": "_itemId",
          "type": "uint256"
        }
      ],
      "name": "ownerOf",
      "outputs": [
        {
          "name": "_owner",
          "type": "address"
        }
      ],
      "payable": false,
      "stateMutability": "view",
      "type": "function"
    },
    {
      "constant": true,
      "inputs": [
        {
          "name": "_price",
          "type": "uint256"
        }
      ],
      "name": "calculateDevCut",
      "outputs": [
        {
          "name": "_devCut",
          "type": "uint256"
        }
      ],
      "payable": false,
      "stateMutability": "view",
      "type": "function"
    },
    {
      "constant": false,
      "inputs": [
        {
          "name": "_admin",
          "type": "address"
        }
      ],
      "name": "addAdmin",
      "outputs": [],
      "payable": false,
      "stateMutability": "nonpayable",
      "type": "function"
    },
    {
      "constant": true,
      "inputs": [
        {
          "name": "_owner",
          "type": "address"
        }
      ],
      "name": "balanceOf",
      "outputs": [
        {
          "name": "_balance",
          "type": "uint256"
        }
      ],
      "payable": false,
      "stateMutability": "view",
      "type": "function"
    },
    {
      "constant": false,
      "inputs": [],
      "name": "enableERC721",
      "outputs": [],
      "payable": false,
      "stateMutability": "nonpayable",
      "type": "function"
    },
    {
      "constant": false,
      "inputs": [],
      "name": "withdrawAll",
      "outputs": [],
      "payable": false,
      "stateMutability": "nonpayable",
      "type": "function"
    },
    {
      "constant": false,
      "inputs": [
        {
          "name": "_itemIds",
          "type": "uint256[]"
        }
      ],
      "name": "populateFromItemRegistry",
      "outputs": [],
      "payable": false,
      "stateMutability": "nonpayable",
      "type": "function"
    },
    {
      "constant": true,
      "inputs": [],
      "name": "symbol",
      "outputs": [
        {
          "name": "_symbol",
          "type": "string"
        }
      ],
      "payable": false,
      "stateMutability": "pure",
      "type": "function"
    },
    {
      "constant": false,
      "inputs": [
        {
          "name": "_to",
          "type": "address"
        },
        {
          "name": "_itemId",
          "type": "uint256"
        }
      ],
      "name": "transfer",
      "outputs": [],
      "payable": false,
      "stateMutability": "nonpayable",
      "type": "function"
    },
    {
      "constant": true,
      "inputs": [
        {
          "name": "_itemId",
          "type": "uint256"
        }
      ],
      "name": "startingPriceOf",
      "outputs": [
        {
          "name": "_startingPrice",
          "type": "uint256"
        }
      ],
      "payable": false,
      "stateMutability": "view",
      "type": "function"
    },
    {
      "constant": true,
      "inputs": [
        {
          "name": "_itemId",
          "type": "uint256"
        }
      ],
      "name": "priceOf",
      "outputs": [
        {
          "name": "_price",
          "type": "uint256"
        }
      ],
      "payable": false,
      "stateMutability": "view",
      "type": "function"
    },
    {
      "constant": false,
      "inputs": [
        {
          "name": "_itemIds",
          "type": "uint256[]"
        },
        {
          "name": "_price",
          "type": "uint256"
        },
        {
          "name": "_owner",
          "type": "address"
        }
      ],
      "name": "listMultipleItems",
      "outputs": [],
      "payable": false,
      "stateMutability": "nonpayable",
      "type": "function"
    },
    {
      "constant": false,
      "inputs": [
        {
          "name": "_itemId",
          "type": "uint256"
        }
      ],
      "name": "buy",
      "outputs": [],
      "payable": true,
      "stateMutability": "payable",
      "type": "function"
    },
    {
      "constant": true,
      "inputs": [
        {
          "name": "_price",
          "type": "uint256"
        }
      ],
      "name": "calculateNextPrice",
      "outputs": [
        {
          "name": "_nextPrice",
          "type": "uint256"
        }
      ],
      "payable": false,
      "stateMutability": "view",
      "type": "function"
    },
    {
      "inputs": [],
      "payable": false,
      "stateMutability": "nonpayable",
      "type": "constructor"
    },
    {
      "anonymous": false,
      "inputs": [
        {
          "indexed": true,
          "name": "_itemId",
          "type": "uint256"
        },
        {
          "indexed": true,
          "name": "_owner",
          "type": "address"
        },
        {
          "indexed": false,
          "name": "_price",
          "type": "uint256"
        }
      ],
      "name": "Bought",
      "type": "event"
    },
    {
      "anonymous": false,
      "inputs": [
        {
          "indexed": true,
          "name": "_itemId",
          "type": "uint256"
        },
        {
          "indexed": true,
          "name": "_owner",
          "type": "address"
        },
        {
          "indexed": false,
          "name": "_price",
          "type": "uint256"
        }
      ],
      "name": "Sold",
      "type": "event"
    },
    {
      "anonymous": false,
      "inputs": [
        {
          "indexed": true,
          "name": "_from",
          "type": "address"
        },
        {
          "indexed": true,
          "name": "_to",
          "type": "address"
        },
        {
          "indexed": false,
          "name": "_tokenId",
          "type": "uint256"
        }
      ],
      "name": "Transfer",
      "type": "event"
    },
    {
      "anonymous": false,
      "inputs": [
        {
          "indexed": true,
          "name": "_owner",
          "type": "address"
        },
        {
          "indexed": true,
          "name": "_approved",
          "type": "address"
        },
        {
          "indexed": false,
          "name": "_tokenId",
          "type": "uint256"
        }
      ],
      "name": "Approval",
      "type": "event"
    }
  ],
  "bytecode": "0x60606040526000600260146101000a81548160ff02191690831515021790555066470de4df8200006003556706f05b59d3b20000600455671bc16d674ec80000600555674563918244f40000600655341561005957600080fd5b336000806101000a81548173ffffffffffffffffffffffffffffffffffffffff021916908373ffffffffffffffffffffffffffffffffffffffff16021790555060018060008060009054906101000a900473ffffffffffffffffffffffffffffffffffffffff1673ffffffffffffffffffffffffffffffffffffffff1673ffffffffffffffffffffffffffffffffffffffff16815260200190815260200160002060006101000a81548160ff021916908315150217905550612664806101206000396000f300606060405260043610610195576000357c0100000000000000000000000000000000000000000000000000000000900463ffffffff168062923f9e1461019a5780630562b9f7146101d557806306fdde03146101f8578063095ea7b3146102865780631051db34146102c857806313af4035146102f55780631785f53c1461032e57806318160ddd146103675780631fe8500e1461039057806323b872dd146103c957806324d7806c1461042a5780632a6dd48f1461047b5780632e4f43bf146104de57806337525ff014610556578063442edd03146105795780635435bac8146105c45780635a3f2672146106455780635ba9e48e146106d35780636352211e1461070a578063651212051461076d57806370480275146107a457806370a08231146107dd57806371dc761e1461082a578063853828b61461083f5780638f88aed01461085457806395d89b41146108ae578063a9059cbb1461093c578063af7520b91461097e578063b9186d7d146109b5578063baddee6f146109ec578063d96a094a14610a42578063e08503ec14610a5a575b600080fd5b34156101a557600080fd5b6101bb6004808035906020019091905050610a91565b604051808215151515815260200191505060405180910390f35b34156101e057600080fd5b6101f66004808035906020019091905050610aa5565b005b341561020357600080fd5b61020b610b64565b6040518080602001828103825283818151815260200191508051906020019080838360005b8381101561024b578082015181840152602081019050610230565b50505050905090810190601f1680156102785780820380516001836020036101000a031916815260200191505b509250505060405180910390f35b341561029157600080fd5b6102c6600480803573ffffffffffffffffffffffffffffffffffffffff16906020019091908035906020019091905050610ba7565b005b34156102d357600080fd5b6102db610e0d565b604051808215151515815260200191505060405180910390f35b341561030057600080fd5b61032c600480803573ffffffffffffffffffffffffffffffffffffffff16906020019091905050610e24565b005b341561033957600080fd5b610365600480803573ffffffffffffffffffffffffffffffffffffffff16906020019091905050610ec2565b005b341561037257600080fd5b61037a610f6f565b6040518082815260200191505060405180910390f35b341561039b57600080fd5b6103c7600480803573ffffffffffffffffffffffffffffffffffffffff16906020019091905050610f7c565b005b34156103d457600080fd5b610428600480803573ffffffffffffffffffffffffffffffffffffffff1690602001909190803573ffffffffffffffffffffffffffffffffffffffff1690602001909190803590602001909190505061101b565b005b341561043557600080fd5b610461600480803573ffffffffffffffffffffffffffffffffffffffff16906020019091905050611088565b604051808215151515815260200191505060405180910390f35b341561048657600080fd5b61049c60048080359060200190919050506110de565b604051808273ffffffffffffffffffffffffffffffffffffffff1673ffffffffffffffffffffffffffffffffffffffff16815260200191505060405180910390f35b34156104e957600080fd5b6104ff600480803590602001909190505061111b565b604051808573ffffffffffffffffffffffffffffffffffffffff1673ffffffffffffffffffffffffffffffffffffffff16815260200184815260200183815260200182815260200194505050505060405180910390f35b341561056157600080fd5b6105776004808035906020019091905050611154565b005b341561058457600080fd5b6105c2600480803590602001909190803590602001909190803573ffffffffffffffffffffffffffffffffffffffff1690602001909190505061153d565b005b34156105cf57600080fd5b6105ee60048080359060200190919080359060200190919050506116e4565b6040518080602001828103825283818151815260200191508051906020019060200280838360005b83811015610631578082015181840152602081019050610616565b505050509050019250505060405180910390f35b341561065057600080fd5b61067c600480803573ffffffffffffffffffffffffffffffffffffffff16906020019091905050611775565b6040518080602001828103825283818151815260200191508051906020019060200280838360005b838110156106bf5780820151818401526020810190506106a4565b505050509050019250505060405180910390f35b34156106de57600080fd5b6106f46004808035906020019091905050611873565b6040518082815260200191505060405180910390f35b341561071557600080fd5b61072b600480803590602001909190505061188d565b604051808273ffffffffffffffffffffffffffffffffffffffff1673ffffffffffffffffffffffffffffffffffffffff16815260200191505060405180910390f35b341561077857600080fd5b61078e60048080359060200190919050506118ca565b6040518082815260200191505060405180910390f35b34156107af57600080fd5b6107db600480803573ffffffffffffffffffffffffffffffffffffffff169060200190919050506119db565b005b34156107e857600080fd5b610814600480803573ffffffffffffffffffffffffffffffffffffffff16906020019091905050611a90565b6040518082815260200191505060405180910390f35b341561083557600080fd5b61083d611b20565b005b341561084a57600080fd5b610852611b98565b005b341561085f57600080fd5b6108ac600480803590602001908201803590602001908080602002602001604051908101604052809392919081815260200183836020028082843782019150505050505091905050611c6d565b005b34156108b957600080fd5b6108c1611e17565b6040518080602001828103825283818151815260200191508051906020019080838360005b838110156109015780820151818401526020810190506108e6565b50505050905090810190601f16801561092e5780820380516001836020036101000a031916815260200191505b509250505060405180910390f35b341561094757600080fd5b61097c600480803573ffffffffffffffffffffffffffffffffffffffff16906020019091908035906020019091905050611e5a565b005b341561098957600080fd5b61099f6004808035906020019091905050611ec6565b6040518082815260200191505060405180910390f35b34156109c057600080fd5b6109d66004808035906020019091905050611ee3565b6040518082815260200191505060405180910390f35b34156109f757600080fd5b610a406004808035906020019082018035906020019190919290803590602001909190803573ffffffffffffffffffffffffffffffffffffffff16906020019091905050611f00565b005b610a586004808035906020019091905050611f9d565b005b3415610a6557600080fd5b610a7b6004808035906020019091905050612250565b6040518082815260200191505060405180910390f35b600080610a9d83611ee3565b119050919050565b3373ffffffffffffffffffffffffffffffffffffffff166000809054906101000a900473ffffffffffffffffffffffffffffffffffffffff1673ffffffffffffffffffffffffffffffffffffffff16141515610b0057600080fd5b6000809054906101000a900473ffffffffffffffffffffffffffffffffffffffff1673ffffffffffffffffffffffffffffffffffffffff166108fc829081150290604051600060405180830381858888f193505050501515610b6157600080fd5b50565b610b6c6125bf565b6040805190810160405280601c81526020017f43727970746f436f756e74726965732e696f20436f756e747269657300000000815250905090565b600260149054906101000a900460ff161515610bc257600080fd5b8173ffffffffffffffffffffffffffffffffffffffff163373ffffffffffffffffffffffffffffffffffffffff1614151515610bfd57600080fd5b610c0681610a91565b1515610c1157600080fd5b3373ffffffffffffffffffffffffffffffffffffffff16610c318261188d565b73ffffffffffffffffffffffffffffffffffffffff16141515610c5357600080fd5b60008273ffffffffffffffffffffffffffffffffffffffff161415610d51576000600b600083815260200190815260200160002060009054906101000a900473ffffffffffffffffffffffffffffffffffffffff1673ffffffffffffffffffffffffffffffffffffffff16141515610d4c57600b600082815260200190815260200160002060006101000a81549073ffffffffffffffffffffffffffffffffffffffff021916905560003373ffffffffffffffffffffffffffffffffffffffff167f8c5be1e5ebec7d5bd14f71427d1e84f3dd0314c0f7b2291e5b200ac8c7c3b925836040518082815260200191505060405180910390a35b610e09565b81600b600083815260200190815260200160002060006101000a81548173ffffffffffffffffffffffffffffffffffffffff021916908373ffffffffffffffffffffffffffffffffffffffff1602179055508173ffffffffffffffffffffffffffffffffffffffff163373ffffffffffffffffffffffffffffffffffffffff167f8c5be1e5ebec7d5bd14f71427d1e84f3dd0314c0f7b2291e5b200ac8c7c3b925836040518082815260200191505060405180910390a35b5050565b6000600260149054906101000a900460ff16905090565b3373ffffffffffffffffffffffffffffffffffffffff166000809054906101000a900473ffffffffffffffffffffffffffffffffffffffff1673ffffffffffffffffffffffffffffffffffffffff16141515610e7f57600080fd5b806000806101000a81548173ffffffffffffffffffffffffffffffffffffffff021916908373ffffffffffffffffffffffffffffffffffffffff16021790555050565b3373ffffffffffffffffffffffffffffffffffffffff166000809054906101000a900473ffffffffffffffffffffffffffffffffffffffff1673ffffffffffffffffffffffffffffffffffffffff16141515610f1d57600080fd5b600160008273ffffffffffffffffffffffffffffffffffffffff1673ffffffffffffffffffffffffffffffffffffffff16815260200190815260200160002060006101000a81549060ff021916905550565b6000600780549050905090565b3373ffffffffffffffffffffffffffffffffffffffff166000809054906101000a900473ffffffffffffffffffffffffffffffffffffffff1673ffffffffffffffffffffffffffffffffffffffff16141515610fd757600080fd5b80600260006101000a81548173ffffffffffffffffffffffffffffffffffffffff021916908373ffffffffffffffffffffffffffffffffffffffff16021790555050565b600260149054906101000a900460ff16151561103657600080fd5b3373ffffffffffffffffffffffffffffffffffffffff16611056826110de565b73ffffffffffffffffffffffffffffffffffffffff1614151561107857600080fd5b611083838383612361565b505050565b6000600160008373ffffffffffffffffffffffffffffffffffffffff1673ffffffffffffffffffffffffffffffffffffffff16815260200190815260200160002060009054906101000a900460ff169050919050565b6000600b600083815260200190815260200160002060009054906101000a900473ffffffffffffffffffffffffffffffffffffffff169050919050565b60008060008061112a8561188d565b61113386611ec6565b61113c87611ee3565b61114588611873565b93509350935093509193509193565b6000803373ffffffffffffffffffffffffffffffffffffffff166000809054906101000a900473ffffffffffffffffffffffffffffffffffffffff1673ffffffffffffffffffffffffffffffffffffffff161415156111b257600080fd5b600073ffffffffffffffffffffffffffffffffffffffff16600260009054906101000a900473ffffffffffffffffffffffffffffffffffffffff1673ffffffffffffffffffffffffffffffffffffffff161415151561121057600080fd5b600073ffffffffffffffffffffffffffffffffffffffff16600260009054906101000a900473ffffffffffffffffffffffffffffffffffffffff1673ffffffffffffffffffffffffffffffffffffffff16636352211e856000604051602001526040518263ffffffff167c010000000000000000000000000000000000000000000000000000000002815260040180828152602001915050602060405180830381600087803b15156112c157600080fd5b6102c65a03f115156112d257600080fd5b5050506040518051905073ffffffffffffffffffffffffffffffffffffffff16141515156112ff57600080fd5b6000600260009054906101000a900473ffffffffffffffffffffffffffffffffffffffff1673ffffffffffffffffffffffffffffffffffffffff1663b9186d7d856000604051602001526040518263ffffffff167c010000000000000000000000000000000000000000000000000000000002815260040180828152602001915050602060405180830381600087803b151561139a57600080fd5b6102c65a03f115156113ab57600080fd5b505050604051805190501115156113c157600080fd5b600260009054906101000a900473ffffffffffffffffffffffffffffffffffffffff1673ffffffffffffffffffffffffffffffffffffffff1663b9186d7d846000604051602001526040518263ffffffff167c010000000000000000000000000000000000000000000000000000000002815260040180828152602001915050602060405180830381600087803b151561145a57600080fd5b6102c65a03f1151561146b57600080fd5b505050604051805190509150600260009054906101000a900473ffffffffffffffffffffffffffffffffffffffff1673ffffffffffffffffffffffffffffffffffffffff16636352211e846000604051602001526040518263ffffffff167c010000000000000000000000000000000000000000000000000000000002815260040180828152602001915050602060405180830381600087803b151561151057600080fd5b6102c65a03f1151561152157600080fd5b50505060405180519050905061153883838361153d565b505050565b600160003373ffffffffffffffffffffffffffffffffffffffff1673ffffffffffffffffffffffffffffffffffffffff16815260200190815260200160002060009054906101000a900460ff16151561159557600080fd5b6000821115156115a457600080fd5b6000600a6000858152602001908152602001600020541415156115c657600080fd5b600073ffffffffffffffffffffffffffffffffffffffff166008600085815260200190815260200160002060009054906101000a900473ffffffffffffffffffffffffffffffffffffffff1673ffffffffffffffffffffffffffffffffffffffff1614151561163457600080fd5b806008600085815260200190815260200160002060006101000a81548173ffffffffffffffffffffffffffffffffffffffff021916908373ffffffffffffffffffffffffffffffffffffffff16021790555081600a600085815260200190815260200160002081905550816009600085815260200190815260200160002081905550600780548060010182816116ca91906125d3565b916000526020600020900160008590919091505550505050565b6116ec6125ff565b6116f46125ff565b6000836040518059106117045750595b90808252806020026020018201604052509150600090505b8381101561176a57600781860181548110151561173557fe5b906000526020600020900154828281518110151561174f57fe5b9060200190602002018181525050808060010191505061171c565b819250505092915050565b61177d6125ff565b6117856125ff565b60008061179185611a90565b60405180591061179e5750595b9080825280602002602001820160405250925060009150600090505b600780549050811015611868578473ffffffffffffffffffffffffffffffffffffffff166118016007838154811015156117f057fe5b90600052602060002090015461188d565b73ffffffffffffffffffffffffffffffffffffffff16141561185b5760078181548110151561182c57fe5b906000526020600020900154838381518110151561184657fe5b90602001906020020181815250506001820191505b80806001019150506117ba565b829350505050919050565b600061188661188183611ee3565b612250565b9050919050565b60006008600083815260200190815260200160002060009054906101000a900473ffffffffffffffffffffffffffffffffffffffff169050919050565b6000600354821015611904576118fd60646118ef60058561253d90919063ffffffff16565b61257890919063ffffffff16565b90506119d6565b60045482101561193c57611935606461192760048561253d90919063ffffffff16565b61257890919063ffffffff16565b90506119d6565b6005548210156119745761196d606461195f60038561253d90919063ffffffff16565b61257890919063ffffffff16565b90506119d6565b6006548210156119ac576119a5606461199760038561253d90919063ffffffff16565b61257890919063ffffffff16565b90506119d6565b6119d360646119c560028561253d90919063ffffffff16565b61257890919063ffffffff16565b90505b919050565b3373ffffffffffffffffffffffffffffffffffffffff166000809054906101000a900473ffffffffffffffffffffffffffffffffffffffff1673ffffffffffffffffffffffffffffffffffffffff16141515611a3657600080fd5b60018060008373ffffffffffffffffffffffffffffffffffffffff1673ffffffffffffffffffffffffffffffffffffffff16815260200190815260200160002060006101000a81548160ff02191690831515021790555050565b6000806000809150600090505b600780549050811015611b16578373ffffffffffffffffffffffffffffffffffffffff16611ae4600783815481101515611ad357fe5b90600052602060002090015461188d565b73ffffffffffffffffffffffffffffffffffffffff161415611b095781806001019250505b8080600101915050611a9d565b8192505050919050565b3373ffffffffffffffffffffffffffffffffffffffff166000809054906101000a900473ffffffffffffffffffffffffffffffffffffffff1673ffffffffffffffffffffffffffffffffffffffff16141515611b7b57600080fd5b6001600260146101000a81548160ff021916908315150217905550565b3373ffffffffffffffffffffffffffffffffffffffff166000809054906101000a900473ffffffffffffffffffffffffffffffffffffffff1673ffffffffffffffffffffffffffffffffffffffff16141515611bf357600080fd5b6000809054906101000a900473ffffffffffffffffffffffffffffffffffffffff1673ffffffffffffffffffffffffffffffffffffffff166108fc3073ffffffffffffffffffffffffffffffffffffffff16319081150290604051600060405180830381858888f193505050501515611c6b57600080fd5b565b60003373ffffffffffffffffffffffffffffffffffffffff166000809054906101000a900473ffffffffffffffffffffffffffffffffffffffff1673ffffffffffffffffffffffffffffffffffffffff16141515611cca57600080fd5b600090505b8151811015611e13576000600a60008484815181101515611cec57fe5b906020019060200201518152602001908152602001600020541180611ddb57506000600260009054906101000a900473ffffffffffffffffffffffffffffffffffffffff1673ffffffffffffffffffffffffffffffffffffffff1663b9186d7d8484815181101515611d5a57fe5b906020019060200201516000604051602001526040518263ffffffff167c010000000000000000000000000000000000000000000000000000000002815260040180828152602001915050602060405180830381600087803b1515611dbe57600080fd5b6102c65a03f11515611dcf57600080fd5b50505060405180519050145b15611de557611e06565b611e058282815181101515611df657fe5b90602001906020020151611154565b5b8080600101915050611ccf565b5050565b611e1f6125bf565b6040805190810160405280600381526020017f4343430000000000000000000000000000000000000000000000000000000000815250905090565b600260149054906101000a900460ff161515611e7557600080fd5b611e7e8161188d565b73ffffffffffffffffffffffffffffffffffffffff163373ffffffffffffffffffffffffffffffffffffffff16141515611eb757600080fd5b611ec2338383612361565b5050565b600060096000838152602001908152602001600020549050919050565b6000600a6000838152602001908152602001600020549050919050565b6000600160003373ffffffffffffffffffffffffffffffffffffffff1673ffffffffffffffffffffffffffffffffffffffff16815260200190815260200160002060009054906101000a900460ff161515611f5a57600080fd5b600090505b84849050811015611f9657611f898585838181101515611f7b57fe5b90506020020135848461153d565b8080600101915050611f5f565b5050505050565b600080600080600080611faf87611ee3565b111515611fbb57600080fd5b600073ffffffffffffffffffffffffffffffffffffffff16611fdc8761188d565b73ffffffffffffffffffffffffffffffffffffffff1614151515611fff57600080fd5b61200886611ee3565b341015151561201657600080fd5b3373ffffffffffffffffffffffffffffffffffffffff166120368761188d565b73ffffffffffffffffffffffffffffffffffffffff161415151561205957600080fd5b61206233612593565b15151561206e57600080fd5b600073ffffffffffffffffffffffffffffffffffffffff163373ffffffffffffffffffffffffffffffffffffffff16141515156120aa57600080fd5b6120b38661188d565b94503393506120c186611ee3565b92506120d683346125a690919063ffffffff16565b91506120e3858588612361565b6120ec86611873565b600a6000888152602001908152602001600020819055508373ffffffffffffffffffffffffffffffffffffffff16867fd2728f908c7e0feb83c6278798370fcb86b62f236c9dbf1a3f541096c2159040856040518082815260200191505060405180910390a38473ffffffffffffffffffffffffffffffffffffffff16867f66f5cd880edf48cdde6c966e5da0784fcc4c5e85572b8b3b62c4357798d447d7856040518082815260200191505060405180910390a36121aa836118ca565b90508473ffffffffffffffffffffffffffffffffffffffff166108fc6121d983866125a690919063ffffffff16565b9081150290604051600060405180830381858888f1935050505015156121fe57600080fd5b6000821115612248578373ffffffffffffffffffffffffffffffffffffffff166108fc839081150290604051600060405180830381858888f19350505050151561224757600080fd5b5b505050505050565b600060035482101561228a57612283605f61227560c88561253d90919063ffffffff16565b61257890919063ffffffff16565b905061235c565b6004548210156122c2576122bb60606122ad60878561253d90919063ffffffff16565b61257890919063ffffffff16565b905061235c565b6005548210156122fa576122f360616122e5607d8561253d90919063ffffffff16565b61257890919063ffffffff16565b905061235c565b6006548210156123325761232b606161231d60758561253d90919063ffffffff16565b61257890919063ffffffff16565b905061235c565b612359606261234b60738561253d90919063ffffffff16565b61257890919063ffffffff16565b90505b919050565b61236a81610a91565b151561237557600080fd5b8273ffffffffffffffffffffffffffffffffffffffff166123958261188d565b73ffffffffffffffffffffffffffffffffffffffff161415156123b757600080fd5b600073ffffffffffffffffffffffffffffffffffffffff168273ffffffffffffffffffffffffffffffffffffffff16141515156123f357600080fd5b3073ffffffffffffffffffffffffffffffffffffffff168273ffffffffffffffffffffffffffffffffffffffff161415151561242e57600080fd5b816008600083815260200190815260200160002060006101000a81548173ffffffffffffffffffffffffffffffffffffffff021916908373ffffffffffffffffffffffffffffffffffffffff1602179055506000600b600083815260200190815260200160002060006101000a81548173ffffffffffffffffffffffffffffffffffffffff021916908373ffffffffffffffffffffffffffffffffffffffff1602179055508173ffffffffffffffffffffffffffffffffffffffff168373ffffffffffffffffffffffffffffffffffffffff167fddf252ad1be2c89b69c2b068fc378daa952ba7f163c4a11628f55a4df523b3ef836040518082815260200191505060405180910390a3505050565b60008060008414156125525760009150612571565b828402905082848281151561256357fe5b0414151561256d57fe5b8091505b5092915050565b600080828481151561258657fe5b0490508091505092915050565b600080823b905060008111915050919050565b60008282111515156125b457fe5b818303905092915050565b602060405190810160405280600081525090565b8154818355818115116125fa578183600052602060002091820191016125f99190612613565b5b505050565b602060405190810160405280600081525090565b61263591905b80821115612631576000816000905550600101612619565b5090565b905600a165627a7a7230582002f94a72ba5c94714f2c2427e9df3ae517efdd6374fc2878a21fa56278f9c10f0029",
  "source": "pragma solidity ^0.4.13;\n\nlibrary SafeMath {\n\n  /**\n  * @dev Multiplies two numbers, throws on overflow.\n  */\n  function mul(uint256 a, uint256 b) internal pure returns (uint256) {\n    if (a == 0) {\n      return 0;\n    }\n    uint256 c = a * b;\n    assert(c / a == b);\n    return c;\n  }\n\n  /**\n  * @dev Integer division of two numbers, truncating the quotient.\n  */\n  function div(uint256 a, uint256 b) internal pure returns (uint256) {\n    // assert(b > 0); // Solidity automatically throws when dividing by 0\n    uint256 c = a / b;\n    // assert(a == b * c + a % b); // There is no case in which this doesn't hold\n    return c;\n  }\n\n  /**\n  * @dev Substracts two numbers, throws on overflow (i.e. if subtrahend is greater than minuend).\n  */\n  function sub(uint256 a, uint256 b) internal pure returns (uint256) {\n    assert(b <= a);\n    return a - b;\n  }\n\n  /**\n  * @dev Adds two numbers, throws on overflow.\n  */\n  function add(uint256 a, uint256 b) internal pure returns (uint256) {\n    uint256 c = a + b;\n    assert(c >= a);\n    return c;\n  }\n}\n\ncontract ItemToken {\n  using SafeMath for uint256;\n\n  event Bought (uint256 indexed _itemId, address indexed _owner, uint256 _price);\n  event Sold (uint256 indexed _itemId, address indexed _owner, uint256 _price);\n  event Transfer(address indexed _from, address indexed _to, uint256 _tokenId);\n  event Approval(address indexed _owner, address indexed _approved, uint256 _tokenId);\n\n  address private owner;\n  mapping (address => bool) private admins;\n  IItemRegistry private itemRegistry;\n  bool private erc721Enabled = false;\n\n  uint256 private increaseLimit1 = 0.02 ether;\n  uint256 private increaseLimit2 = 0.5 ether;\n  uint256 private increaseLimit3 = 2.0 ether;\n  uint256 private increaseLimit4 = 5.0 ether;\n\n  uint256[] private listedItems;\n  mapping (uint256 => address) private ownerOfItem;\n  mapping (uint256 => uint256) private startingPriceOfItem;\n  mapping (uint256 => uint256) private priceOfItem;\n  mapping (uint256 => address) private approvedOfItem;\n\n  function ItemToken () public {\n    owner = msg.sender;\n    admins[owner] = true;\n  }\n\n  /* Modifiers */\n  modifier onlyOwner() {\n    require(owner == msg.sender);\n    _;\n  }\n\n  modifier onlyAdmins() {\n    require(admins[msg.sender]);\n    _;\n  }\n\n  modifier onlyERC721() {\n    require(erc721Enabled);\n    _;\n  }\n\n  /* Owner */\n  function setOwner (address _owner) onlyOwner() public {\n    owner = _owner;\n  }\n\n  function setItemRegistry (address _itemRegistry) onlyOwner() public {\n    itemRegistry = IItemRegistry(_itemRegistry);\n  }\n\n  function addAdmin (address _admin) onlyOwner() public {\n    admins[_admin] = true;\n  }\n\n  function removeAdmin (address _admin) onlyOwner() public {\n    delete admins[_admin];\n  }\n\n  // Unlocks ERC721 behaviour, allowing for trading on third party platforms.\n  function enableERC721 () onlyOwner() public {\n    erc721Enabled = true;\n  }\n\n  /* Withdraw */\n  /*\n    NOTICE: These functions withdraw the developer's cut which is left\n    in the contract by `buy`. User funds are immediately sent to the old\n    owner in `buy`, no user funds are left in the contract.\n  */\n  function withdrawAll () onlyOwner() public {\n    owner.transfer(this.balance);\n  }\n\n  function withdrawAmount (uint256 _amount) onlyOwner() public {\n    owner.transfer(_amount);\n  }\n\n  /* Listing */\n  function populateFromItemRegistry (uint256[] _itemIds) onlyOwner() public {\n    for (uint256 i = 0; i < _itemIds.length; i++) {\n      if (priceOfItem[_itemIds[i]] > 0 || itemRegistry.priceOf(_itemIds[i]) == 0) {\n        continue;\n      }\n\n      listItemFromRegistry(_itemIds[i]);\n    }\n  }\n\n  function listItemFromRegistry (uint256 _itemId) onlyOwner() public {\n    require(itemRegistry != address(0));\n    require(itemRegistry.ownerOf(_itemId) != address(0));\n    require(itemRegistry.priceOf(_itemId) > 0);\n\n    uint256 price = itemRegistry.priceOf(_itemId);\n    address itemOwner = itemRegistry.ownerOf(_itemId);\n    listItem(_itemId, price, itemOwner);\n  }\n\n  function listMultipleItems (uint256[] _itemIds, uint256 _price, address _owner) onlyAdmins() external {\n    for (uint256 i = 0; i < _itemIds.length; i++) {\n      listItem(_itemIds[i], _price, _owner);\n    }\n  }\n\n  function listItem (uint256 _itemId, uint256 _price, address _owner) onlyAdmins() public {\n    require(_price > 0);\n    require(priceOfItem[_itemId] == 0);\n    require(ownerOfItem[_itemId] == address(0));\n\n    ownerOfItem[_itemId] = _owner;\n    priceOfItem[_itemId] = _price;\n    startingPriceOfItem[_itemId] = _price;\n    listedItems.push(_itemId);\n  }\n\n  /* Buying */\n  function calculateNextPrice (uint256 _price) public view returns (uint256 _nextPrice) {\n    if (_price < increaseLimit1) {\n      return _price.mul(200).div(95);\n    } else if (_price < increaseLimit2) {\n      return _price.mul(135).div(96);\n    } else if (_price < increaseLimit3) {\n      return _price.mul(125).div(97);\n    } else if (_price < increaseLimit4) {\n      return _price.mul(117).div(97);\n    } else {\n      return _price.mul(115).div(98);\n    }\n  }\n\n  function calculateDevCut (uint256 _price) public view returns (uint256 _devCut) {\n    if (_price < increaseLimit1) {\n      return _price.mul(5).div(100); // 5%\n    } else if (_price < increaseLimit2) {\n      return _price.mul(4).div(100); // 4%\n    } else if (_price < increaseLimit3) {\n      return _price.mul(3).div(100); // 3%\n    } else if (_price < increaseLimit4) {\n      return _price.mul(3).div(100); // 3%\n    } else {\n      return _price.mul(2).div(100); // 2%\n    }\n  }\n\n  /*\n     Buy a country directly from the contract for the calculated price\n     which ensures that the owner gets a profit.  All countries that\n     have been listed can be bought by this method. User funds are sent\n     directly to the previous owner and are never stored in the contract.\n  */\n  function buy (uint256 _itemId) payable public {\n    require(priceOf(_itemId) > 0);\n    require(ownerOf(_itemId) != address(0));\n    require(msg.value >= priceOf(_itemId));\n    require(ownerOf(_itemId) != msg.sender);\n    require(!isContract(msg.sender));\n    require(msg.sender != address(0));\n\n    address oldOwner = ownerOf(_itemId);\n    address newOwner = msg.sender;\n    uint256 price = priceOf(_itemId);\n    uint256 excess = msg.value.sub(price);\n\n    _transfer(oldOwner, newOwner, _itemId);\n    priceOfItem[_itemId] = nextPriceOf(_itemId);\n\n    Bought(_itemId, newOwner, price);\n    Sold(_itemId, oldOwner, price);\n\n    // Devevloper's cut which is left in contract and accesed by\n    // `withdrawAll` and `withdrawAmountTo` methods.\n    uint256 devCut = calculateDevCut(price);\n\n    // Transfer payment to old owner minus the developer's cut.\n    oldOwner.transfer(price.sub(devCut));\n\n    if (excess > 0) {\n      newOwner.transfer(excess);\n    }\n  }\n\n  /* ERC721 */\n  function implementsERC721() public view returns (bool _implements) {\n    return erc721Enabled;\n  }\n\n  function name() public pure returns (string _name) {\n    return \"CryptoCountries.io Countries\";\n  }\n\n  function symbol() public pure returns (string _symbol) {\n    return \"CCC\";\n  }\n\n  function totalSupply() public view returns (uint256 _totalSupply) {\n    return listedItems.length;\n  }\n\n  function balanceOf (address _owner) public view returns (uint256 _balance) {\n    uint256 counter = 0;\n\n    for (uint256 i = 0; i < listedItems.length; i++) {\n      if (ownerOf(listedItems[i]) == _owner) {\n        counter++;\n      }\n    }\n\n    return counter;\n  }\n\n  function ownerOf (uint256 _itemId) public view returns (address _owner) {\n    return ownerOfItem[_itemId];\n  }\n\n  function tokensOf (address _owner) public view returns (uint256[] _tokenIds) {\n    uint256[] memory items = new uint256[](balanceOf(_owner));\n\n    uint256 itemCounter = 0;\n    for (uint256 i = 0; i < listedItems.length; i++) {\n      if (ownerOf(listedItems[i]) == _owner) {\n        items[itemCounter] = listedItems[i];\n        itemCounter += 1;\n      }\n    }\n\n    return items;\n  }\n\n  function tokenExists (uint256 _itemId) public view returns (bool _exists) {\n    return priceOf(_itemId) > 0;\n  }\n\n  function approvedFor(uint256 _itemId) public view returns (address _approved) {\n    return approvedOfItem[_itemId];\n  }\n\n  function approve(address _to, uint256 _itemId) onlyERC721() public {\n    require(msg.sender != _to);\n    require(tokenExists(_itemId));\n    require(ownerOf(_itemId) == msg.sender);\n\n    if (_to == 0) {\n      if (approvedOfItem[_itemId] != 0) {\n        delete approvedOfItem[_itemId];\n        Approval(msg.sender, 0, _itemId);\n      }\n    } else {\n      approvedOfItem[_itemId] = _to;\n      Approval(msg.sender, _to, _itemId);\n    }\n  }\n\n  /* Transferring a country to another owner will entitle the new owner the profits from `buy` */\n  function transfer(address _to, uint256 _itemId) onlyERC721() public {\n    require(msg.sender == ownerOf(_itemId));\n    _transfer(msg.sender, _to, _itemId);\n  }\n\n  function transferFrom(address _from, address _to, uint256 _itemId) onlyERC721() public {\n    require(approvedFor(_itemId) == msg.sender);\n    _transfer(_from, _to, _itemId);\n  }\n\n  function _transfer(address _from, address _to, uint256 _itemId) internal {\n    require(tokenExists(_itemId));\n    require(ownerOf(_itemId) == _from);\n    require(_to != address(0));\n    require(_to != address(this));\n\n    ownerOfItem[_itemId] = _to;\n    approvedOfItem[_itemId] = 0;\n\n    Transfer(_from, _to, _itemId);\n  }\n\n  /* Read */\n  function isAdmin (address _admin) public view returns (bool _isAdmin) {\n    return admins[_admin];\n  }\n\n  function startingPriceOf (uint256 _itemId) public view returns (uint256 _startingPrice) {\n    return startingPriceOfItem[_itemId];\n  }\n\n  function priceOf (uint256 _itemId) public view returns (uint256 _price) {\n    return priceOfItem[_itemId];\n  }\n\n  function nextPriceOf (uint256 _itemId) public view returns (uint256 _nextPrice) {\n    return calculateNextPrice(priceOf(_itemId));\n  }\n\n  function allOf (uint256 _itemId) external view returns (address _owner, uint256 _startingPrice, uint256 _price, uint256 _nextPrice) {\n    return (ownerOf(_itemId), startingPriceOf(_itemId), priceOf(_itemId), nextPriceOf(_itemId));\n  }\n\n  function itemsForSaleLimit (uint256 _from, uint256 _take) public view returns (uint256[] _items) {\n    uint256[] memory items = new uint256[](_take);\n\n    for (uint256 i = 0; i < _take; i++) {\n      items[i] = listedItems[_from + i];\n    }\n\n    return items;\n  }\n\n  /* Util */\n  function isContract(address addr) internal view returns (bool) {\n    uint size;\n    assembly { size := extcodesize(addr) } // solium-disable-line\n    return size > 0;\n  }\n}\n\ninterface IItemRegistry {\n  function itemsForSaleLimit (uint256 _from, uint256 _take) public view returns (uint256[] _items);\n  function ownerOf (uint256 _itemId) public view returns (address _owner);\n  function priceOf (uint256 _itemId) public view returns (uint256 _price);\n}",
  "sourcePath": "/Users/Lornestar/Documents/Bitcoin/ParallelWorld/contracts/CryptoCountries.sol",
  "compiler": {
    "name": "solc",
    "version": "0.4.19+commit.c4cbbb05.Emscripten.clang"
  },
  "schemaVersion": "1.0.1",
  "updatedAt": "2018-04-09T11:04:09.339Z"
}