{
  "contractName": "ParallelWorld",
  "abi": [
    {
      "constant": true,
      "inputs": [
        {
          "name": "_itemId",
          "type": "uint256"
        }
      ],
      "name": "tokenExists",
      "outputs": [
        {
          "name": "_exists",
          "type": "bool"
        }
      ],
      "payable": false,
      "stateMutability": "view",
      "type": "function"
    },
    {
      "constant": true,
      "inputs": [
        {
          "name": "_itemId",
          "type": "uint256"
        }
      ],
      "name": "nameOf",
      "outputs": [
        {
          "name": "_name",
          "type": "bytes32"
        }
      ],
      "payable": false,
      "stateMutability": "view",
      "type": "function"
    },
    {
      "constant": true,
      "inputs": [],
      "name": "name",
      "outputs": [
        {
          "name": "_name",
          "type": "string"
        }
      ],
      "payable": false,
      "stateMutability": "pure",
      "type": "function"
    },
    {
      "constant": false,
      "inputs": [
        {
          "name": "_to",
          "type": "address"
        },
        {
          "name": "_itemId",
          "type": "uint256"
        }
      ],
      "name": "approve",
      "outputs": [],
      "payable": false,
      "stateMutability": "nonpayable",
      "type": "function"
    },
    {
      "constant": false,
      "inputs": [
        {
          "name": "_itemIds",
          "type": "uint256[]"
        },
        {
          "name": "_price",
          "type": "uint256"
        },
        {
          "name": "_owner",
          "type": "address"
        },
        {
          "name": "_nameofItem",
          "type": "bytes32[]"
        }
      ],
      "name": "listMultipleItems",
      "outputs": [],
      "payable": false,
      "stateMutability": "nonpayable",
      "type": "function"
    },
    {
      "constant": true,
      "inputs": [],
      "name": "implementsERC721",
      "outputs": [
        {
          "name": "_implements",
          "type": "bool"
        }
      ],
      "payable": false,
      "stateMutability": "view",
      "type": "function"
    },
    {
      "constant": false,
      "inputs": [
        {
          "name": "_owner",
          "type": "address"
        }
      ],
      "name": "setOwner",
      "outputs": [],
      "payable": false,
      "stateMutability": "nonpayable",
      "type": "function"
    },
    {
      "constant": false,
      "inputs": [
        {
          "name": "_admin",
          "type": "address"
        }
      ],
      "name": "removeAdmin",
      "outputs": [],
      "payable": false,
      "stateMutability": "nonpayable",
      "type": "function"
    },
    {
      "constant": true,
      "inputs": [],
      "name": "totalSupply",
      "outputs": [
        {
          "name": "_totalSupply",
          "type": "uint256"
        }
      ],
      "payable": false,
      "stateMutability": "view",
      "type": "function"
    },
    {
      "constant": false,
      "inputs": [
        {
          "name": "_itemRegistry",
          "type": "address"
        }
      ],
      "name": "setItemRegistry",
      "outputs": [],
      "payable": false,
      "stateMutability": "nonpayable",
      "type": "function"
    },
    {
      "constant": false,
      "inputs": [
        {
          "name": "_from",
          "type": "address"
        },
        {
          "name": "_to",
          "type": "address"
        },
        {
          "name": "_itemId",
          "type": "uint256"
        }
      ],
      "name": "transferFrom",
      "outputs": [],
      "payable": false,
      "stateMutability": "nonpayable",
      "type": "function"
    },
    {
      "constant": true,
      "inputs": [
        {
          "name": "_admin",
          "type": "address"
        }
      ],
      "name": "isAdmin",
      "outputs": [
        {
          "name": "_isAdmin",
          "type": "bool"
        }
      ],
      "payable": false,
      "stateMutability": "view",
      "type": "function"
    },
    {
      "constant": true,
      "inputs": [
        {
          "name": "_itemId",
          "type": "uint256"
        }
      ],
      "name": "approvedFor",
      "outputs": [
        {
          "name": "_approved",
          "type": "address"
        }
      ],
      "payable": false,
      "stateMutability": "view",
      "type": "function"
    },
    {
      "constant": true,
      "inputs": [
        {
          "name": "_itemId",
          "type": "uint256"
        }
      ],
      "name": "allOf",
      "outputs": [
        {
          "name": "_itemIdreturn",
          "type": "uint256"
        },
        {
          "name": "_owner",
          "type": "address"
        },
        {
          "name": "_startingPrice",
          "type": "uint256"
        },
        {
          "name": "_price",
          "type": "uint256"
        },
        {
          "name": "_nextPrice",
          "type": "uint256"
        },
        {
          "name": "_name",
          "type": "bytes32"
        }
      ],
      "payable": false,
      "stateMutability": "view",
      "type": "function"
    },
    {
      "constant": false,
      "inputs": [
        {
          "name": "_itemId",
          "type": "uint256"
        }
      ],
      "name": "listItemFromRegistry",
      "outputs": [],
      "payable": false,
      "stateMutability": "nonpayable",
      "type": "function"
    },
    {
      "constant": true,
      "inputs": [],
      "name": "gettestuint256",
      "outputs": [
        {
          "name": "",
          "type": "uint256"
        }
      ],
      "payable": false,
      "stateMutability": "view",
      "type": "function"
    },
    {
      "constant": false,
      "inputs": [
        {
          "name": "_itemId",
          "type": "uint256"
        }
      ],
      "name": "awardprize",
      "outputs": [],
      "payable": false,
      "stateMutability": "nonpayable",
      "type": "function"
    },
    {
      "constant": true,
      "inputs": [],
      "name": "getlistedItems",
      "outputs": [
        {
          "name": "_listedItems",
          "type": "uint256[]"
        }
      ],
      "payable": false,
      "stateMutability": "view",
      "type": "function"
    },
    {
      "constant": false,
      "inputs": [
        {
          "name": "_ownerAddress",
          "type": "address"
        },
        {
          "name": "_ownerAlias",
          "type": "bytes32"
        },
        {
          "name": "_ownerEmail",
          "type": "bytes32"
        },
        {
          "name": "_ownerPhone",
          "type": "bytes32"
        }
      ],
      "name": "setownerInfo",
      "outputs": [],
      "payable": false,
      "stateMutability": "nonpayable",
      "type": "function"
    },
    {
      "constant": true,
      "inputs": [
        {
          "name": "_from",
          "type": "uint256"
        },
        {
          "name": "_take",
          "type": "uint256"
        }
      ],
      "name": "itemsForSaleLimit",
      "outputs": [
        {
          "name": "_items",
          "type": "uint256[]"
        }
      ],
      "payable": false,
      "stateMutability": "view",
      "type": "function"
    },
    {
      "constant": true,
      "inputs": [
        {
          "name": "_owner",
          "type": "address"
        }
      ],
      "name": "tokensOf",
      "outputs": [
        {
          "name": "_tokenIds",
          "type": "uint256[]"
        }
      ],
      "payable": false,
      "stateMutability": "view",
      "type": "function"
    },
    {
      "constant": true,
      "inputs": [
        {
          "name": "_itemId",
          "type": "uint256"
        }
      ],
      "name": "nextPriceOf",
      "outputs": [
        {
          "name": "_nextPrice",
          "type": "uint256"
        }
      ],
      "payable": false,
      "stateMutability": "view",
      "type": "function"
    },
    {
      "constant": true,
      "inputs": [
        {
          "name": "_itemId",
          "type": "uint256"
        }
      ],
      "name": "ownerOf",
      "outputs": [
        {
          "name": "_owner",
          "type": "address"
        }
      ],
      "payable": false,
      "stateMutability": "view",
      "type": "function"
    },
    {
      "constant": true,
      "inputs": [
        {
          "name": "_price",
          "type": "uint256"
        }
      ],
      "name": "calculateDevCut",
      "outputs": [
        {
          "name": "_devCut",
          "type": "uint256"
        }
      ],
      "payable": false,
      "stateMutability": "view",
      "type": "function"
    },
    {
      "constant": false,
      "inputs": [
        {
          "name": "_itemId",
          "type": "uint256"
        },
        {
          "name": "_price",
          "type": "uint256"
        },
        {
          "name": "_owner",
          "type": "address"
        },
        {
          "name": "_nameofItem",
          "type": "bytes32"
        }
      ],
      "name": "listItem",
      "outputs": [],
      "payable": false,
      "stateMutability": "nonpayable",
      "type": "function"
    },
    {
      "constant": true,
      "inputs": [
        {
          "name": "_price",
          "type": "uint256"
        }
      ],
      "name": "calculatePrizeCut",
      "outputs": [
        {
          "name": "_devCut",
          "type": "uint256"
        }
      ],
      "payable": false,
      "stateMutability": "view",
      "type": "function"
    },
    {
      "constant": false,
      "inputs": [
        {
          "name": "_admin",
          "type": "address"
        }
      ],
      "name": "addAdmin",
      "outputs": [],
      "payable": false,
      "stateMutability": "nonpayable",
      "type": "function"
    },
    {
      "constant": true,
      "inputs": [
        {
          "name": "_owner",
          "type": "address"
        }
      ],
      "name": "balanceOf",
      "outputs": [
        {
          "name": "_balance",
          "type": "uint256"
        }
      ],
      "payable": false,
      "stateMutability": "view",
      "type": "function"
    },
    {
      "constant": false,
      "inputs": [],
      "name": "enableERC721",
      "outputs": [],
      "payable": false,
      "stateMutability": "nonpayable",
      "type": "function"
    },
    {
      "constant": true,
      "inputs": [],
      "name": "getOwner",
      "outputs": [
        {
          "name": "",
          "type": "address"
        }
      ],
      "payable": false,
      "stateMutability": "view",
      "type": "function"
    },
    {
      "constant": false,
      "inputs": [
        {
          "name": "_itemIds",
          "type": "uint256[]"
        }
      ],
      "name": "populateFromItemRegistry",
      "outputs": [],
      "payable": false,
      "stateMutability": "nonpayable",
      "type": "function"
    },
    {
      "constant": true,
      "inputs": [],
      "name": "symbol",
      "outputs": [
        {
          "name": "_symbol",
          "type": "string"
        }
      ],
      "payable": false,
      "stateMutability": "pure",
      "type": "function"
    },
    {
      "constant": false,
      "inputs": [
        {
          "name": "_testuint256",
          "type": "uint256"
        }
      ],
      "name": "settestuint256",
      "outputs": [],
      "payable": false,
      "stateMutability": "nonpayable",
      "type": "function"
    },
    {
      "constant": false,
      "inputs": [
        {
          "name": "_itemId",
          "type": "uint256"
        },
        {
          "name": "_price",
          "type": "uint256"
        }
      ],
      "name": "addItem",
      "outputs": [
        {
          "name": "_pricereturn",
          "type": "uint256"
        }
      ],
      "payable": false,
      "stateMutability": "nonpayable",
      "type": "function"
    },
    {
      "constant": false,
      "inputs": [
        {
          "name": "_to",
          "type": "address"
        },
        {
          "name": "_itemId",
          "type": "uint256"
        }
      ],
      "name": "transfer",
      "outputs": [],
      "payable": false,
      "stateMutability": "nonpayable",
      "type": "function"
    },
    {
      "constant": true,
      "inputs": [
        {
          "name": "_itemId",
          "type": "uint256"
        }
      ],
      "name": "startingPriceOf",
      "outputs": [
        {
          "name": "_startingPrice",
          "type": "uint256"
        }
      ],
      "payable": false,
      "stateMutability": "view",
      "type": "function"
    },
    {
      "constant": true,
      "inputs": [],
      "name": "getprizeamount",
      "outputs": [
        {
          "name": "_prizeamount",
          "type": "uint256"
        }
      ],
      "payable": false,
      "stateMutability": "view",
      "type": "function"
    },
    {
      "constant": true,
      "inputs": [
        {
          "name": "_itemId",
          "type": "uint256"
        }
      ],
      "name": "priceOf",
      "outputs": [
        {
          "name": "_price",
          "type": "uint256"
        }
      ],
      "payable": false,
      "stateMutability": "view",
      "type": "function"
    },
    {
      "constant": true,
      "inputs": [
        {
          "name": "_owner",
          "type": "address"
        }
      ],
      "name": "getownerInfo",
      "outputs": [
        {
          "name": "_name",
          "type": "bytes32"
        },
        {
          "name": "_email",
          "type": "bytes32"
        },
        {
          "name": "_phone",
          "type": "bytes32"
        }
      ],
      "payable": false,
      "stateMutability": "view",
      "type": "function"
    },
    {
      "constant": false,
      "inputs": [
        {
          "name": "_itemId",
          "type": "uint256"
        }
      ],
      "name": "buy",
      "outputs": [],
      "payable": true,
      "stateMutability": "payable",
      "type": "function"
    },
    {
      "constant": true,
      "inputs": [
        {
          "name": "_price",
          "type": "uint256"
        }
      ],
      "name": "calculateNextPrice",
      "outputs": [
        {
          "name": "_nextPrice",
          "type": "uint256"
        }
      ],
      "payable": false,
      "stateMutability": "view",
      "type": "function"
    },
    {
      "constant": true,
      "inputs": [],
      "name": "testuint256",
      "outputs": [
        {
          "name": "",
          "type": "uint256"
        }
      ],
      "payable": false,
      "stateMutability": "view",
      "type": "function"
    },
    {
      "inputs": [],
      "payable": false,
      "stateMutability": "nonpayable",
      "type": "constructor"
    },
    {
      "anonymous": false,
      "inputs": [
        {
          "indexed": true,
          "name": "_itemId",
          "type": "uint256"
        },
        {
          "indexed": false,
          "name": "_price",
          "type": "uint256"
        },
        {
          "indexed": true,
          "name": "_oldowner",
          "type": "address"
        },
        {
          "indexed": true,
          "name": "_newowner",
          "type": "address"
        }
      ],
      "name": "TransactionOccured",
      "type": "event"
    },
    {
      "anonymous": false,
      "inputs": [
        {
          "indexed": true,
          "name": "_itemId",
          "type": "uint256"
        },
        {
          "indexed": true,
          "name": "_owner",
          "type": "address"
        },
        {
          "indexed": false,
          "name": "_price",
          "type": "uint256"
        }
      ],
      "name": "Bought",
      "type": "event"
    },
    {
      "anonymous": false,
      "inputs": [
        {
          "indexed": true,
          "name": "_itemId",
          "type": "uint256"
        },
        {
          "indexed": true,
          "name": "_owner",
          "type": "address"
        },
        {
          "indexed": false,
          "name": "_price",
          "type": "uint256"
        }
      ],
      "name": "Sold",
      "type": "event"
    },
    {
      "anonymous": false,
      "inputs": [
        {
          "indexed": true,
          "name": "_from",
          "type": "address"
        },
        {
          "indexed": true,
          "name": "_to",
          "type": "address"
        },
        {
          "indexed": false,
          "name": "_tokenId",
          "type": "uint256"
        }
      ],
      "name": "Transfer",
      "type": "event"
    },
    {
      "anonymous": false,
      "inputs": [
        {
          "indexed": true,
          "name": "_owner",
          "type": "address"
        },
        {
          "indexed": true,
          "name": "_approved",
          "type": "address"
        },
        {
          "indexed": false,
          "name": "_tokenId",
          "type": "uint256"
        }
      ],
      "name": "Approval",
      "type": "event"
    }
  ],
  "bytecode": "0x60606040526000600260146101000a81548160ff02191690831515021790555066470de4df8200006003556706f05b59d3b20000600455671bc16d674ec80000600555674563918244f40000600655341561005957600080fd5b336000806101000a81548173ffffffffffffffffffffffffffffffffffffffff021916908373ffffffffffffffffffffffffffffffffffffffff16021790555060018060008060009054906101000a900473ffffffffffffffffffffffffffffffffffffffff1673ffffffffffffffffffffffffffffffffffffffff1673ffffffffffffffffffffffffffffffffffffffff16815260200190815260200160002060006101000a81548160ff021916908315150217905550612f9d806101206000396000f300606060405260043610610203576000357c0100000000000000000000000000000000000000000000000000000000900463ffffffff168062923f9e14610208578063051a26641461024357806306fdde0314610282578063095ea7b3146103105780630f3e18c8146103525780631051db34146103bc57806313af4035146103e95780631785f53c1461042257806318160ddd1461045b5780631fe8500e1461048457806323b872dd146104bd57806324d7806c1461051e5780632a6dd48f1461056f5780632e4f43bf146105d257806337525ff01461066057806341bedce514610683578063443f45a4146106ac57806349386f26146106cf5780634a701fc3146107395780635435bac8146107995780635a3f26721461081a5780635ba9e48e146108a85780636352211e146108df5780636512120514610942578063654c73811461097957806365d73851146109d15780637048027514610a0857806370a0823114610a4157806371dc761e14610a8e578063893d20e814610aa35780638f88aed014610af857806395d89b4114610b525780639f0698c214610be0578063a212523214610c03578063a9059cbb14610c43578063af7520b914610c85578063b3f3668c14610cbc578063b9186d7d14610ce5578063bd4cfadf14610d1c578063d96a094a14610d8f578063e08503ec14610da7578063e7620ebe14610dde575b600080fd5b341561021357600080fd5b6102296004808035906020019091905050610e07565b604051808215151515815260200191505060405180910390f35b341561024e57600080fd5b6102646004808035906020019091905050610e1b565b60405180826000191660001916815260200191505060405180910390f35b341561028d57600080fd5b610295610e38565b6040518080602001828103825283818151815260200191508051906020019080838360005b838110156102d55780820151818401526020810190506102ba565b50505050905090810190601f1680156103025780820380516001836020036101000a031916815260200191505b509250505060405180910390f35b341561031b57600080fd5b610350600480803573ffffffffffffffffffffffffffffffffffffffff16906020019091908035906020019091905050610e7b565b005b341561035d57600080fd5b6103ba6004808035906020019082018035906020019190919290803590602001909190803573ffffffffffffffffffffffffffffffffffffffff1690602001909190803590602001908201803590602001919091929050506110e1565b005b34156103c757600080fd5b6103cf611199565b604051808215151515815260200191505060405180910390f35b34156103f457600080fd5b610420600480803573ffffffffffffffffffffffffffffffffffffffff169060200190919050506111b0565b005b341561042d57600080fd5b610459600480803573ffffffffffffffffffffffffffffffffffffffff1690602001909190505061124e565b005b341561046657600080fd5b61046e6112fb565b6040518082815260200191505060405180910390f35b341561048f57600080fd5b6104bb600480803573ffffffffffffffffffffffffffffffffffffffff16906020019091905050611308565b005b34156104c857600080fd5b61051c600480803573ffffffffffffffffffffffffffffffffffffffff1690602001909190803573ffffffffffffffffffffffffffffffffffffffff169060200190919080359060200190919050506113a7565b005b341561052957600080fd5b610555600480803573ffffffffffffffffffffffffffffffffffffffff16906020019091905050611414565b604051808215151515815260200191505060405180910390f35b341561057a57600080fd5b610590600480803590602001909190505061146a565b604051808273ffffffffffffffffffffffffffffffffffffffff1673ffffffffffffffffffffffffffffffffffffffff16815260200191505060405180910390f35b34156105dd57600080fd5b6105f360048080359060200190919050506114a7565b604051808781526020018673ffffffffffffffffffffffffffffffffffffffff1673ffffffffffffffffffffffffffffffffffffffff1681526020018581526020018481526020018381526020018260001916600019168152602001965050505050505060405180910390f35b341561066b57600080fd5b61068160048080359060200190919050506114f3565b005b341561068e57600080fd5b610696611a5e565b6040518082815260200191505060405180910390f35b34156106b757600080fd5b6106cd6004808035906020019091905050611a68565b005b34156106da57600080fd5b6106e2611b51565b6040518080602001828103825283818151815260200191508051906020019060200280838360005b8381101561072557808201518184015260208101905061070a565b505050509050019250505060405180910390f35b341561074457600080fd5b610797600480803573ffffffffffffffffffffffffffffffffffffffff16906020019091908035600019169060200190919080356000191690602001909190803560001916906020019091905050611baf565b005b34156107a457600080fd5b6107c36004808035906020019091908035906020019091905050611c8d565b6040518080602001828103825283818151815260200191508051906020019060200280838360005b838110156108065780820151818401526020810190506107eb565b505050509050019250505060405180910390f35b341561082557600080fd5b610851600480803573ffffffffffffffffffffffffffffffffffffffff16906020019091905050611d1e565b6040518080602001828103825283818151815260200191508051906020019060200280838360005b83811015610894578082015181840152602081019050610879565b505050509050019250505060405180910390f35b34156108b357600080fd5b6108c96004808035906020019091905050611e1c565b6040518082815260200191505060405180910390f35b34156108ea57600080fd5b6109006004808035906020019091905050611e36565b604051808273ffffffffffffffffffffffffffffffffffffffff1673ffffffffffffffffffffffffffffffffffffffff16815260200191505060405180910390f35b341561094d57600080fd5b6109636004808035906020019091905050611e73565b6040518082815260200191505060405180910390f35b341561098457600080fd5b6109cf600480803590602001909190803590602001909190803573ffffffffffffffffffffffffffffffffffffffff1690602001909190803560001916906020019091905050611ea3565b005b34156109dc57600080fd5b6109f26004808035906020019091905050612067565b6040518082815260200191505060405180910390f35b3415610a1357600080fd5b610a3f600480803573ffffffffffffffffffffffffffffffffffffffff16906020019091905050612178565b005b3415610a4c57600080fd5b610a78600480803573ffffffffffffffffffffffffffffffffffffffff1690602001909190505061222d565b6040518082815260200191505060405180910390f35b3415610a9957600080fd5b610aa16122bd565b005b3415610aae57600080fd5b610ab6612335565b604051808273ffffffffffffffffffffffffffffffffffffffff1673ffffffffffffffffffffffffffffffffffffffff16815260200191505060405180910390f35b3415610b0357600080fd5b610b5060048080359060200190820180359060200190808060200260200160405190810160405280939291908181526020018383602002808284378201915050505050509190505061235e565b005b3415610b5d57600080fd5b610b65612508565b6040518080602001828103825283818151815260200191508051906020019080838360005b83811015610ba5578082015181840152602081019050610b8a565b50505050905090810190601f168015610bd25780820380516001836020036101000a031916815260200191505b509250505060405180910390f35b3415610beb57600080fd5b610c01600480803590602001909190505061254b565b005b3415610c0e57600080fd5b610c2d6004808035906020019091908035906020019091905050612555565b6040518082815260200191505060405180910390f35b3415610c4e57600080fd5b610c83600480803573ffffffffffffffffffffffffffffffffffffffff169060200190919080359060200190919050506125e3565b005b3415610c9057600080fd5b610ca6600480803590602001909190505061264f565b6040518082815260200191505060405180910390f35b3415610cc757600080fd5b610ccf61266c565b6040518082815260200191505060405180910390f35b3415610cf057600080fd5b610d06600480803590602001909190505061268b565b6040518082815260200191505060405180910390f35b3415610d2757600080fd5b610d53600480803573ffffffffffffffffffffffffffffffffffffffff169060200190919050506126a8565b60405180846000191660001916815260200183600019166000191681526020018260001916600019168152602001935050505060405180910390f35b610da5600480803590602001909190505061277a565b005b3415610db257600080fd5b610dc86004808035906020019091905050612b83565b6040518082815260200191505060405180910390f35b3415610de957600080fd5b610df1612c94565b6040518082815260200191505060405180910390f35b600080610e138361268b565b119050919050565b6000600c6000838152602001908152602001600020549050919050565b610e40612ef8565b6040805190810160405280600e81526020017f506172616c6c656c20576f726c64000000000000000000000000000000000000815250905090565b600260149054906101000a900460ff161515610e9657600080fd5b8173ffffffffffffffffffffffffffffffffffffffff163373ffffffffffffffffffffffffffffffffffffffff1614151515610ed157600080fd5b610eda81610e07565b1515610ee557600080fd5b3373ffffffffffffffffffffffffffffffffffffffff16610f0582611e36565b73ffffffffffffffffffffffffffffffffffffffff16141515610f2757600080fd5b60008273ffffffffffffffffffffffffffffffffffffffff161415611025576000600b600083815260200190815260200160002060009054906101000a900473ffffffffffffffffffffffffffffffffffffffff1673ffffffffffffffffffffffffffffffffffffffff1614151561102057600b600082815260200190815260200160002060006101000a81549073ffffffffffffffffffffffffffffffffffffffff021916905560003373ffffffffffffffffffffffffffffffffffffffff167f8c5be1e5ebec7d5bd14f71427d1e84f3dd0314c0f7b2291e5b200ac8c7c3b925836040518082815260200191505060405180910390a35b6110dd565b81600b600083815260200190815260200160002060006101000a81548173ffffffffffffffffffffffffffffffffffffffff021916908373ffffffffffffffffffffffffffffffffffffffff1602179055508173ffffffffffffffffffffffffffffffffffffffff163373ffffffffffffffffffffffffffffffffffffffff167f8c5be1e5ebec7d5bd14f71427d1e84f3dd0314c0f7b2291e5b200ac8c7c3b925836040518082815260200191505060405180910390a35b5050565b6000600160003373ffffffffffffffffffffffffffffffffffffffff1673ffffffffffffffffffffffffffffffffffffffff16815260200190815260200160002060009054906101000a900460ff16151561113b57600080fd5b600090505b8686905081101561119057611183878783818110151561115c57fe5b905060200201358686868686818110151561117357fe5b9050602002013560001916611ea3565b8080600101915050611140565b50505050505050565b6000600260149054906101000a900460ff16905090565b3373ffffffffffffffffffffffffffffffffffffffff166000809054906101000a900473ffffffffffffffffffffffffffffffffffffffff1673ffffffffffffffffffffffffffffffffffffffff1614151561120b57600080fd5b806000806101000a81548173ffffffffffffffffffffffffffffffffffffffff021916908373ffffffffffffffffffffffffffffffffffffffff16021790555050565b3373ffffffffffffffffffffffffffffffffffffffff166000809054906101000a900473ffffffffffffffffffffffffffffffffffffffff1673ffffffffffffffffffffffffffffffffffffffff161415156112a957600080fd5b600160008273ffffffffffffffffffffffffffffffffffffffff1673ffffffffffffffffffffffffffffffffffffffff16815260200190815260200160002060006101000a81549060ff021916905550565b6000600780549050905090565b3373ffffffffffffffffffffffffffffffffffffffff166000809054906101000a900473ffffffffffffffffffffffffffffffffffffffff1673ffffffffffffffffffffffffffffffffffffffff1614151561136357600080fd5b80600260006101000a81548173ffffffffffffffffffffffffffffffffffffffff021916908373ffffffffffffffffffffffffffffffffffffffff16021790555050565b600260149054906101000a900460ff1615156113c257600080fd5b3373ffffffffffffffffffffffffffffffffffffffff166113e28261146a565b73ffffffffffffffffffffffffffffffffffffffff1614151561140457600080fd5b61140f838383612c9a565b505050565b6000600160008373ffffffffffffffffffffffffffffffffffffffff1673ffffffffffffffffffffffffffffffffffffffff16815260200190815260200160002060009054906101000a900460ff169050919050565b6000600b600083815260200190815260200160002060009054906101000a900473ffffffffffffffffffffffffffffffffffffffff169050919050565b600080600080600080866114ba88611e36565b6114c38961264f565b6114cc8a61268b565b6114d58b611e1c565b6114de8c610e1b565b95509550955095509550955091939550919395565b60008060003373ffffffffffffffffffffffffffffffffffffffff166000809054906101000a900473ffffffffffffffffffffffffffffffffffffffff1673ffffffffffffffffffffffffffffffffffffffff1614151561155357600080fd5b600073ffffffffffffffffffffffffffffffffffffffff16600260009054906101000a900473ffffffffffffffffffffffffffffffffffffffff1673ffffffffffffffffffffffffffffffffffffffff16141515156115b157600080fd5b600073ffffffffffffffffffffffffffffffffffffffff16600260009054906101000a900473ffffffffffffffffffffffffffffffffffffffff1673ffffffffffffffffffffffffffffffffffffffff16636352211e866000604051602001526040518263ffffffff167c010000000000000000000000000000000000000000000000000000000002815260040180828152602001915050602060405180830381600087803b151561166257600080fd5b6102c65a03f1151561167357600080fd5b5050506040518051905073ffffffffffffffffffffffffffffffffffffffff16141515156116a057600080fd5b6000600260009054906101000a900473ffffffffffffffffffffffffffffffffffffffff1673ffffffffffffffffffffffffffffffffffffffff1663b9186d7d866000604051602001526040518263ffffffff167c010000000000000000000000000000000000000000000000000000000002815260040180828152602001915050602060405180830381600087803b151561173b57600080fd5b6102c65a03f1151561174c57600080fd5b5050506040518051905011151561176257600080fd5b6000600260009054906101000a900473ffffffffffffffffffffffffffffffffffffffff1673ffffffffffffffffffffffffffffffffffffffff1663051a2664866000604051602001526040518263ffffffff167c010000000000000000000000000000000000000000000000000000000002815260040180828152602001915050602060405180830381600087803b15156117fd57600080fd5b6102c65a03f1151561180e57600080fd5b5050506040518051905050602060ff1611151561182a57600080fd5b600260009054906101000a900473ffffffffffffffffffffffffffffffffffffffff1673ffffffffffffffffffffffffffffffffffffffff1663b9186d7d856000604051602001526040518263ffffffff167c010000000000000000000000000000000000000000000000000000000002815260040180828152602001915050602060405180830381600087803b15156118c357600080fd5b6102c65a03f115156118d457600080fd5b505050604051805190509250600260009054906101000a900473ffffffffffffffffffffffffffffffffffffffff1673ffffffffffffffffffffffffffffffffffffffff16636352211e856000604051602001526040518263ffffffff167c010000000000000000000000000000000000000000000000000000000002815260040180828152602001915050602060405180830381600087803b151561197957600080fd5b6102c65a03f1151561198a57600080fd5b505050604051805190509150600260009054906101000a900473ffffffffffffffffffffffffffffffffffffffff1673ffffffffffffffffffffffffffffffffffffffff1663051a2664856000604051602001526040518263ffffffff167c010000000000000000000000000000000000000000000000000000000002815260040180828152602001915050602060405180830381600087803b1515611a2f57600080fd5b6102c65a03f11515611a4057600080fd5b505050604051805190509050611a5884848484611ea3565b50505050565b6000601054905090565b6000803373ffffffffffffffffffffffffffffffffffffffff166000809054906101000a900473ffffffffffffffffffffffffffffffffffffffff1673ffffffffffffffffffffffffffffffffffffffff16141515611ac657600080fd5b611ae63073ffffffffffffffffffffffffffffffffffffffff1631611e73565b9150813073ffffffffffffffffffffffffffffffffffffffff1631039050611b0d83611e36565b73ffffffffffffffffffffffffffffffffffffffff166108fc829081150290604051600060405180830381858888f193505050501515611b4c57600080fd5b505050565b611b59612f0c565b6007805480602002602001604051908101604052809291908181526020018280548015611ba557602002820191906000526020600020905b815481526020019060010190808311611b91575b5050505050905090565b82600d60008673ffffffffffffffffffffffffffffffffffffffff1673ffffffffffffffffffffffffffffffffffffffff168152602001908152602001600020816000191690555081600e60008673ffffffffffffffffffffffffffffffffffffffff1673ffffffffffffffffffffffffffffffffffffffff168152602001908152602001600020816000191690555080600f60008673ffffffffffffffffffffffffffffffffffffffff1673ffffffffffffffffffffffffffffffffffffffff168152602001908152602001600020816000191690555050505050565b611c95612f0c565b611c9d612f0c565b600083604051805910611cad5750595b90808252806020026020018201604052509150600090505b83811015611d13576007818601815481101515611cde57fe5b9060005260206000209001548282815181101515611cf857fe5b90602001906020020181815250508080600101915050611cc5565b819250505092915050565b611d26612f0c565b611d2e612f0c565b600080611d3a8561222d565b604051805910611d475750595b9080825280602002602001820160405250925060009150600090505b600780549050811015611e11578473ffffffffffffffffffffffffffffffffffffffff16611daa600783815481101515611d9957fe5b906000526020600020900154611e36565b73ffffffffffffffffffffffffffffffffffffffff161415611e0457600781815481101515611dd557fe5b9060005260206000209001548383815181101515611def57fe5b90602001906020020181815250506001820191505b8080600101915050611d63565b829350505050919050565b6000611e2f611e2a8361268b565b612b83565b9050919050565b60006008600083815260200190815260200160002060009054906101000a900473ffffffffffffffffffffffffffffffffffffffff169050919050565b6000611e9c6064611e8e600a85612e7690919063ffffffff16565b612eb190919063ffffffff16565b9050919050565b600160003373ffffffffffffffffffffffffffffffffffffffff1673ffffffffffffffffffffffffffffffffffffffff16815260200190815260200160002060009054906101000a900460ff161515611efb57600080fd5b600083111515611f0a57600080fd5b6000600a600086815260200190815260200160002054141515611f2c57600080fd5b600073ffffffffffffffffffffffffffffffffffffffff166008600086815260200190815260200160002060009054906101000a900473ffffffffffffffffffffffffffffffffffffffff1673ffffffffffffffffffffffffffffffffffffffff16141515611f9a57600080fd5b306008600086815260200190815260200160002060006101000a81548173ffffffffffffffffffffffffffffffffffffffff021916908373ffffffffffffffffffffffffffffffffffffffff16021790555082600a60008681526020019081526020016000208190555082600960008681526020019081526020016000208190555080600c600086815260200190815260200160002081600019169055506007805480600101828161204c9190612f20565b91600052602060002090016000869091909150555050505050565b60006003548210156120a15761209a606461208c601a85612e7690919063ffffffff16565b612eb190919063ffffffff16565b9050612173565b6004548210156120d9576120d260646120c4600e85612e7690919063ffffffff16565b612eb190919063ffffffff16565b9050612173565b6005548210156121115761210a60646120fc600a85612e7690919063ffffffff16565b612eb190919063ffffffff16565b9050612173565b600654821015612149576121426064612134600885612e7690919063ffffffff16565b612eb190919063ffffffff16565b9050612173565b6121706064612162600785612e7690919063ffffffff16565b612eb190919063ffffffff16565b90505b919050565b3373ffffffffffffffffffffffffffffffffffffffff166000809054906101000a900473ffffffffffffffffffffffffffffffffffffffff1673ffffffffffffffffffffffffffffffffffffffff161415156121d357600080fd5b60018060008373ffffffffffffffffffffffffffffffffffffffff1673ffffffffffffffffffffffffffffffffffffffff16815260200190815260200160002060006101000a81548160ff02191690831515021790555050565b6000806000809150600090505b6007805490508110156122b3578373ffffffffffffffffffffffffffffffffffffffff1661228160078381548110151561227057fe5b906000526020600020900154611e36565b73ffffffffffffffffffffffffffffffffffffffff1614156122a65781806001019250505b808060010191505061223a565b8192505050919050565b3373ffffffffffffffffffffffffffffffffffffffff166000809054906101000a900473ffffffffffffffffffffffffffffffffffffffff1673ffffffffffffffffffffffffffffffffffffffff1614151561231857600080fd5b6001600260146101000a81548160ff021916908315150217905550565b60008060009054906101000a900473ffffffffffffffffffffffffffffffffffffffff16905090565b60003373ffffffffffffffffffffffffffffffffffffffff166000809054906101000a900473ffffffffffffffffffffffffffffffffffffffff1673ffffffffffffffffffffffffffffffffffffffff161415156123bb57600080fd5b600090505b8151811015612504576000600a600084848151811015156123dd57fe5b9060200190602002015181526020019081526020016000205411806124cc57506000600260009054906101000a900473ffffffffffffffffffffffffffffffffffffffff1673ffffffffffffffffffffffffffffffffffffffff1663b9186d7d848481518110151561244b57fe5b906020019060200201516000604051602001526040518263ffffffff167c010000000000000000000000000000000000000000000000000000000002815260040180828152602001915050602060405180830381600087803b15156124af57600080fd5b6102c65a03f115156124c057600080fd5b50505060405180519050145b156124d6576124f7565b6124f682828151811015156124e757fe5b906020019060200201516114f3565b5b80806001019150506123c0565b5050565b612510612ef8565b6040805190810160405280600381526020017f5057430000000000000000000000000000000000000000000000000000000000815250905090565b8060108190555050565b6000600160003373ffffffffffffffffffffffffffffffffffffffff1673ffffffffffffffffffffffffffffffffffffffff16815260200190815260200160002060009054906101000a900460ff1615156125af57600080fd5b81600a600085815260200190815260200160002081905550600a600084815260200190815260200160002054905092915050565b600260149054906101000a900460ff1615156125fe57600080fd5b61260781611e36565b73ffffffffffffffffffffffffffffffffffffffff163373ffffffffffffffffffffffffffffffffffffffff1614151561264057600080fd5b61264b338383612c9a565b5050565b600060096000838152602001908152602001600020549050919050565b60003073ffffffffffffffffffffffffffffffffffffffff1631905090565b6000600a6000838152602001908152602001600020549050919050565b6000806000600d60008573ffffffffffffffffffffffffffffffffffffffff1673ffffffffffffffffffffffffffffffffffffffff16815260200190815260200160002054600e60008673ffffffffffffffffffffffffffffffffffffffff1673ffffffffffffffffffffffffffffffffffffffff16815260200190815260200160002054600f60008773ffffffffffffffffffffffffffffffffffffffff1673ffffffffffffffffffffffffffffffffffffffff168152602001908152602001600020549250925092509193909250565b600080600080600080600061278e8861268b565b11151561279a57600080fd5b600073ffffffffffffffffffffffffffffffffffffffff166127bb88611e36565b73ffffffffffffffffffffffffffffffffffffffff16141515156127de57600080fd5b6127e787611e1c565b34101515156127f557600080fd5b3373ffffffffffffffffffffffffffffffffffffffff1661281588611e36565b73ffffffffffffffffffffffffffffffffffffffff161415151561283857600080fd5b61284133612ecc565b15151561284d57600080fd5b600073ffffffffffffffffffffffffffffffffffffffff163373ffffffffffffffffffffffffffffffffffffffff161415151561288957600080fd5b635b0c98004210151561289b57600080fd5b6128a487611e36565b95503394506128b28761268b565b93506128bf868689612c9a565b6128c887611e1c565b600a60008981526020019081526020016000208190555061290584600a60008a815260200190815260200160002054612edf90919063ffffffff16565b925061292d600a60008981526020019081526020016000205434612edf90919063ffffffff16565b91508473ffffffffffffffffffffffffffffffffffffffff168673ffffffffffffffffffffffffffffffffffffffff16887f40639f3c59b7b87430a1e0ee6896092361c626ca5ff0bee571aae856e7235d56600a60008c8152602001908152602001600020546040518082815260200191505060405180910390a43073ffffffffffffffffffffffffffffffffffffffff168673ffffffffffffffffffffffffffffffffffffffff16141515612ac657612a16612a0760646129f9605087612e7690919063ffffffff16565b612eb190919063ffffffff16565b85612edf90919063ffffffff16565b90508573ffffffffffffffffffffffffffffffffffffffff166108fc829081150290604051600060405180830381858888f193505050501515612a5857600080fd5b6000809054906101000a900473ffffffffffffffffffffffffffffffffffffffff1673ffffffffffffffffffffffffffffffffffffffff166108fc612a9c85611e73565b9081150290604051600060405180830381858888f193505050501515612ac157600080fd5b612b30565b6000809054906101000a900473ffffffffffffffffffffffffffffffffffffffff1673ffffffffffffffffffffffffffffffffffffffff166108fc612b0a34611e73565b9081150290604051600060405180830381858888f193505050501515612b2f57600080fd5b5b6000821115612b7a578473ffffffffffffffffffffffffffffffffffffffff166108fc839081150290604051600060405180830381858888f193505050501515612b7957600080fd5b5b50505050505050565b6000600354821015612bbd57612bb66064612ba860d285612e7690919063ffffffff16565b612eb190919063ffffffff16565b9050612c8f565b600454821015612bf557612bee6064612be0608c85612e7690919063ffffffff16565b612eb190919063ffffffff16565b9050612c8f565b600554821015612c2d57612c266064612c18608085612e7690919063ffffffff16565b612eb190919063ffffffff16565b9050612c8f565b600654821015612c6557612c5e6064612c50607885612e7690919063ffffffff16565b612eb190919063ffffffff16565b9050612c8f565b612c8c6064612c7e607585612e7690919063ffffffff16565b612eb190919063ffffffff16565b90505b919050565b60105481565b612ca381610e07565b1515612cae57600080fd5b8273ffffffffffffffffffffffffffffffffffffffff16612cce82611e36565b73ffffffffffffffffffffffffffffffffffffffff16141515612cf057600080fd5b600073ffffffffffffffffffffffffffffffffffffffff168273ffffffffffffffffffffffffffffffffffffffff1614151515612d2c57600080fd5b3073ffffffffffffffffffffffffffffffffffffffff168273ffffffffffffffffffffffffffffffffffffffff1614151515612d6757600080fd5b816008600083815260200190815260200160002060006101000a81548173ffffffffffffffffffffffffffffffffffffffff021916908373ffffffffffffffffffffffffffffffffffffffff1602179055506000600b600083815260200190815260200160002060006101000a81548173ffffffffffffffffffffffffffffffffffffffff021916908373ffffffffffffffffffffffffffffffffffffffff1602179055508173ffffffffffffffffffffffffffffffffffffffff168373ffffffffffffffffffffffffffffffffffffffff167fddf252ad1be2c89b69c2b068fc378daa952ba7f163c4a11628f55a4df523b3ef836040518082815260200191505060405180910390a3505050565b6000806000841415612e8b5760009150612eaa565b8284029050828482811515612e9c57fe5b04141515612ea657fe5b8091505b5092915050565b6000808284811515612ebf57fe5b0490508091505092915050565b600080823b905060008111915050919050565b6000828211151515612eed57fe5b818303905092915050565b602060405190810160405280600081525090565b602060405190810160405280600081525090565b815481835581811511612f4757818360005260206000209182019101612f469190612f4c565b5b505050565b612f6e91905b80821115612f6a576000816000905550600101612f52565b5090565b905600a165627a7a72305820be6ef14833c42ae910703e28c789fcce7b5c8a0843c9685e448202f08b4ae7a80029",
  "source": "pragma solidity ^0.4.13;\n\nlibrary SafeMath {\n\n  /**\n  * @dev Multiplies two numbers, throws on overflow.\n  */\n  function mul(uint256 a, uint256 b) internal pure returns (uint256) {\n    if (a == 0) {\n      return 0;\n    }\n    uint256 c = a * b;\n    assert(c / a == b);\n    return c;\n  }\n\n  /**\n  * @dev Integer division of two numbers, truncating the quotient.\n  */\n  function div(uint256 a, uint256 b) internal pure returns (uint256) {\n    // assert(b > 0); // Solidity automatically throws when dividing by 0\n    uint256 c = a / b;\n    // assert(a == b * c + a % b); // There is no case in which this doesn't hold\n    return c;\n  }\n\n  /**\n  * @dev Substracts two numbers, throws on overflow (i.e. if subtrahend is greater than minuend).\n  */\n  function sub(uint256 a, uint256 b) internal pure returns (uint256) {\n    assert(b <= a);\n    return a - b;\n  }\n\n  /**\n  * @dev Adds two numbers, throws on overflow.\n  */\n  function add(uint256 a, uint256 b) internal pure returns (uint256) {\n    uint256 c = a + b;\n    assert(c >= a);\n    return c;\n  }\n}\n\ncontract ParallelWorld {\n  using SafeMath for uint256;\n\n  event TransactionOccured(uint256 indexed _itemId, uint256 _price, address indexed _oldowner, address indexed _newowner);\n  event Bought (uint256 indexed _itemId, address indexed _owner, uint256 _price);\n  event Sold (uint256 indexed _itemId, address indexed _owner, uint256 _price);\n  event Transfer(address indexed _from, address indexed _to, uint256 _tokenId);\n  event Approval(address indexed _owner, address indexed _approved, uint256 _tokenId);\n\n  address private owner;\n  mapping (address => bool) private admins;\n  IItemRegistry private itemRegistry;\n  bool private erc721Enabled = false;\n\n  uint256 private increaseLimit1 = 0.02 ether;\n  uint256 private increaseLimit2 = 0.5 ether;\n  uint256 private increaseLimit3 = 2.0 ether;\n  uint256 private increaseLimit4 = 5.0 ether;\n\n  uint256[] private listedItems;\n  mapping (uint256 => address) private ownerOfItem;\n  mapping (uint256 => uint256) private startingPriceOfItem;\n  mapping (uint256 => uint256) private priceOfItem;\n  mapping (uint256 => address) private approvedOfItem;\n  mapping (uint256 => bytes32) private nameofItem;\n\n  mapping (address => bytes32) private ownerAlias;\n  mapping (address => bytes32) private ownerEmail;\n  mapping (address => bytes32) private ownerPhone;\n\n  uint256 public testuint256;\n\n  function ParallelWorld () public {\n    owner = msg.sender;\n    admins[owner] = true;\n  }\n\n  /* Modifiers */\n  modifier onlyOwner() {\n    require(owner == msg.sender);\n    _;\n  }\n\n  modifier onlyAdmins() {\n    require(admins[msg.sender]);\n    _;\n  }\n\n  modifier onlyERC721() {\n    require(erc721Enabled);\n    _;\n  }\n\n  /* Owner */\n  function setOwner (address _owner) onlyOwner() public {\n    owner = _owner;\n  }\n\n  function getOwner() public view returns (address){\n    return owner;\n  }\n\n  function setItemRegistry (address _itemRegistry) onlyOwner() public {\n    itemRegistry = IItemRegistry(_itemRegistry);\n  }\n\n  function addAdmin (address _admin) onlyOwner() public {\n    admins[_admin] = true;\n  }\n\n  function removeAdmin (address _admin) onlyOwner() public {\n    delete admins[_admin];\n  }\n\n  // Unlocks ERC721 behaviour, allowing for trading on third party platforms.\n  function enableERC721 () onlyOwner() public {\n    erc721Enabled = true;\n  }\n\n  /* Withdraw */\n  /*\n    NOTICE: These functions withdraw the developer's cut which is left\n    in the contract by `buy`. User funds are immediately sent to the old\n    owner in `buy`, no user funds are left in the contract.\n  */\n  /*function withdrawAll () onlyOwner() public {\n    owner.transfer(this.balance);\n  }\n\n  function withdrawAmount (uint256 _amount) onlyOwner() public {\n    owner.transfer(_amount);\n  }*/\n\n  //award prize to winner, and developer takes 10%\n  function awardprize(uint256 _itemId) onlyOwner() public{\n    uint256 developeramount;\n    uint256 winneramount;\n\n    developeramount = calculateDevCut(this.balance);\n    winneramount = this.balance - developeramount;\n\n    //developer getting dev cut of prize amount\n    //owner.transfer(developeramount);\n\n    //winner gets the prize amount minus developer cut\n    ownerOf(_itemId).transfer(winneramount);\n\n  }\n\n  /* Listing */\n  function populateFromItemRegistry (uint256[] _itemIds) onlyOwner() public {\n    for (uint256 i = 0; i < _itemIds.length; i++) {\n      if (priceOfItem[_itemIds[i]] > 0 || itemRegistry.priceOf(_itemIds[i]) == 0) {\n        continue;\n      }\n\n      listItemFromRegistry(_itemIds[i]);\n    }\n  }\n\n  function listItemFromRegistry (uint256 _itemId) onlyOwner() public {\n    require(itemRegistry != address(0));\n    require(itemRegistry.ownerOf(_itemId) != address(0));\n    require(itemRegistry.priceOf(_itemId) > 0);\n    require(itemRegistry.nameOf(_itemId).length > 0 );\n\n    uint256 price = itemRegistry.priceOf(_itemId);\n    address itemOwner = itemRegistry.ownerOf(_itemId);\n    bytes32 nameofItemlocal = itemRegistry.nameOf(_itemId);\n    listItem(_itemId, price, itemOwner, nameofItemlocal);\n  }\n\n  function listMultipleItems (uint256[] _itemIds, uint256 _price, address _owner, bytes32[] _nameofItem) onlyAdmins() external {\n    for (uint256 i = 0; i < _itemIds.length; i++) {\n      listItem(_itemIds[i], _price, _owner, _nameofItem[i]);\n    }\n  }\n\n  function listItem (uint256 _itemId, uint256 _price, address _owner, bytes32 _nameofItem) onlyAdmins() public {\n    require(_price > 0);\n    require(priceOfItem[_itemId] == 0);\n    require(ownerOfItem[_itemId] == address(0));\n    \n\n    ownerOfItem[_itemId] = this; //set the contract as original owner of teams\n    priceOfItem[_itemId] = _price;\n    startingPriceOfItem[_itemId] = _price;\n    nameofItem[_itemId] = _nameofItem;\n    listedItems.push(_itemId);\n  }\n\n  function addItem(uint256 _itemId, uint256 _price) onlyAdmins() public returns (uint256 _pricereturn){\n    priceOfItem[_itemId] = _price;\n    return priceOfItem[_itemId];\n  }\n\n  /* Buying */\n  function calculateNextPrice (uint256 _price) public view returns (uint256 _nextPrice) {\n    if (_price < increaseLimit1) {\n      return _price.mul(210).div(100); //added 110%\n    } else if (_price < increaseLimit2) {\n      return _price.mul(140).div(100); //added 40%\n    } else if (_price < increaseLimit3) {\n      return _price.mul(128).div(100); //added 28%\n    } else if (_price < increaseLimit4) {\n      return _price.mul(120).div(100); //added 20%\n    } else {\n      return _price.mul(117).div(100); //added 17%\n    }\n  }\n\n  function calculatePrizeCut (uint256 _price) public view returns (uint256 _devCut) {\n    if (_price < increaseLimit1) {\n      return _price.mul(26).div(100); // 26%\n    } else if (_price < increaseLimit2) {\n      return _price.mul(14).div(100); // 14%\n    } else if (_price < increaseLimit3) {\n      return _price.mul(10).div(100); // 10%\n    } else if (_price < increaseLimit4) {\n      return _price.mul(8).div(100); // 8%\n    } else {\n      return _price.mul(7).div(100); // 7%\n    }\n  }\n\n  function calculateDevCut (uint256 _price) public view returns (uint256 _devCut) {\n    return _price.mul(10).div(100); //10%\n  }\n\n  /*\n     Buy a country directly from the contract for the calculated price\n     which ensures that the owner gets a profit.  All countries that\n     have been listed can be bought by this method. User funds are sent\n     directly to the previous owner and are never stored in the contract.\n  */\n  function buy (uint256 _itemId) payable public {\n    require(priceOf(_itemId) > 0);\n    require(ownerOf(_itemId) != address(0));\n    require(msg.value >= nextPriceOf(_itemId));\n    require(ownerOf(_itemId) != msg.sender);\n    require(!isContract(msg.sender));\n    require(msg.sender != address(0));\n    require(now < 1527552000); //team buying can only happen before April 2nd 00:00:00 UTC time\n\n    address oldOwner = ownerOf(_itemId);\n    address newOwner = msg.sender;\n    uint256 price = priceOf(_itemId);\n    \n    _transfer(oldOwner, newOwner, _itemId);\n    priceOfItem[_itemId] = nextPriceOf(_itemId);\n    uint256 pricedifference = priceOfItem[_itemId].sub(price);\n    uint256 excess = msg.value.sub(priceOfItem[_itemId]);\n\n    TransactionOccured(_itemId, priceOfItem[_itemId], oldOwner, newOwner);\n\n    // Transfer payment to old owner minus the cut for the final prize.  Don't transfer funds though if old owner is this contract\n    if (oldOwner != address(this))\n    {\n      //send to old owner\n      uint256 oldOwnercut = price.sub(pricedifference.mul(80).div(100));\n      oldOwner.transfer(oldOwnercut);\n      //send to developer, 10% of price diff\n      owner.transfer(calculateDevCut(pricedifference));\n    }\n    else\n    {\n      //first transaction to purchase from contract, send 10% of tx to dev\n      owner.transfer(calculateDevCut(msg.value));\n    }\n\n    if (excess > 0) {\n      newOwner.transfer(excess);\n    }\n    \n  }\n\n  /* ERC721 */\n  function implementsERC721() public view returns (bool _implements) {\n    return erc721Enabled;\n  }\n\n  function name() public pure returns (string _name) {\n    return \"Parallel World\";\n  }\n\n  function symbol() public pure returns (string _symbol) {\n    return \"PWC\";\n  }\n\n  function totalSupply() public view returns (uint256 _totalSupply) {\n    return listedItems.length;\n  }\n\n  function balanceOf (address _owner) public view returns (uint256 _balance) {\n    uint256 counter = 0;\n\n    for (uint256 i = 0; i < listedItems.length; i++) {\n      if (ownerOf(listedItems[i]) == _owner) {\n        counter++;\n      }\n    }\n\n    return counter;\n  }\n\n  function ownerOf (uint256 _itemId) public view returns (address _owner) {\n    return ownerOfItem[_itemId];\n  }\n\n  function tokensOf (address _owner) public view returns (uint256[] _tokenIds) {\n    uint256[] memory items = new uint256[](balanceOf(_owner));\n\n    uint256 itemCounter = 0;\n    for (uint256 i = 0; i < listedItems.length; i++) {\n      if (ownerOf(listedItems[i]) == _owner) {\n        items[itemCounter] = listedItems[i];\n        itemCounter += 1;\n      }\n    }\n\n    return items;\n  }\n\n  function tokenExists (uint256 _itemId) public view returns (bool _exists) {\n    return priceOf(_itemId) > 0;\n  }\n\n  function approvedFor(uint256 _itemId) public view returns (address _approved) {\n    return approvedOfItem[_itemId];\n  }\n\n  function approve(address _to, uint256 _itemId) onlyERC721() public {\n    require(msg.sender != _to);\n    require(tokenExists(_itemId));\n    require(ownerOf(_itemId) == msg.sender);\n\n    if (_to == 0) {\n      if (approvedOfItem[_itemId] != 0) {\n        delete approvedOfItem[_itemId];\n        Approval(msg.sender, 0, _itemId);\n      }\n    } else {\n      approvedOfItem[_itemId] = _to;\n      Approval(msg.sender, _to, _itemId);\n    }\n  }\n\n  /* Transferring a team to another owner will entitle the new owner the profits from `buy` */\n  function transfer(address _to, uint256 _itemId) onlyERC721() public {\n    require(msg.sender == ownerOf(_itemId));\n    _transfer(msg.sender, _to, _itemId);\n  }\n\n  function transferFrom(address _from, address _to, uint256 _itemId) onlyERC721() public {\n    require(approvedFor(_itemId) == msg.sender);\n    _transfer(_from, _to, _itemId);\n  }\n\n  function _transfer(address _from, address _to, uint256 _itemId) internal {\n    require(tokenExists(_itemId));\n    require(ownerOf(_itemId) == _from);\n    require(_to != address(0));\n    require(_to != address(this));\n\n    ownerOfItem[_itemId] = _to;\n    approvedOfItem[_itemId] = 0;\n\n    Transfer(_from, _to, _itemId);\n  }\n\n  function setownerInfo(address _ownerAddress, bytes32 _ownerAlias, bytes32 _ownerEmail, bytes32 _ownerPhone) public\n  {\n      ownerAlias[_ownerAddress] = _ownerAlias;\n      ownerEmail[_ownerAddress] = _ownerEmail;\n      ownerPhone[_ownerAddress] = _ownerPhone;\n  }\n\n  /* Read */\n  function isAdmin (address _admin) public view returns (bool _isAdmin) {\n    return admins[_admin];\n  }\n\n  function startingPriceOf (uint256 _itemId) public view returns (uint256 _startingPrice) {\n    return startingPriceOfItem[_itemId];\n  }\n\n  function priceOf (uint256 _itemId) public view returns (uint256 _price) {\n    return priceOfItem[_itemId];\n  }\n\n  function nextPriceOf (uint256 _itemId) public view returns (uint256 _nextPrice) {\n    return calculateNextPrice(priceOf(_itemId));\n  }\n\n  function nameOf (uint256 _itemId) public view returns (bytes32 _name) {\n    return nameofItem[_itemId];\n  }\n\n  function allOf (uint256 _itemId) external view returns (uint256 _itemIdreturn, address _owner, uint256 _startingPrice, uint256 _price, uint256 _nextPrice, bytes32 _name) {\n    return (_itemId, ownerOf(_itemId), startingPriceOf(_itemId), priceOf(_itemId), nextPriceOf(_itemId), nameOf(_itemId));\n  }\n\n  function getlistedItems() external view returns(uint256[] _listedItems){\n    return(listedItems);\n  }\n\n  function itemsForSaleLimit (uint256 _from, uint256 _take) public view returns (uint256[] _items) {\n    uint256[] memory items = new uint256[](_take);\n\n    for (uint256 i = 0; i < _take; i++) {\n      items[i] = listedItems[_from + i];\n    }\n\n    return items;\n  }\n\n  function getprizeamount() public view returns(uint256 _prizeamount)\n  {\n    return this.balance;\n  }\n\n  function getownerInfo (address _owner) public view returns (bytes32 _name, bytes32 _email, bytes32 _phone) {\n    return (ownerAlias[_owner], ownerEmail[_owner], ownerPhone[_owner]);\n  }\n\n  /* Util */\n  function isContract(address addr) internal view returns (bool) {\n    uint size;\n    assembly { size := extcodesize(addr) } // solium-disable-line\n    return size > 0;\n  }\n\n  function settestuint256(uint256 _testuint256) public{\n    testuint256 = _testuint256;\n  }\n\n  function gettestuint256() public view returns(uint256){\n    return testuint256;\n  }\n}\n\ninterface IItemRegistry {\n  function itemsForSaleLimit (uint256 _from, uint256 _take) public view returns (uint256[] _items);\n  function ownerOf (uint256 _itemId) public view returns (address _owner);\n  function priceOf (uint256 _itemId) public view returns (uint256 _price);\n  function nameOf (uint256 _itemId) public view returns (bytes32 _nameofItemlocal);\n}",
  "sourcePath": "/Users/Lornestar/Documents/Bitcoin/OneOwnerOneWinner/contracts/ParallelWorld.sol",
  "compiler": {
    "name": "solc",
    "version": "0.4.19+commit.c4cbbb05.Emscripten.clang"
  },
  "schemaVersion": "1.0.1",
  "updatedAt": "2018-04-09T06:05:08.890Z"
}