{
  "contractName": "SafeMathToken",
  "abi": [
    {
      "constant": true,
      "inputs": [],
      "name": "MAX_UINT256",
      "outputs": [
        {
          "name": "",
          "type": "uint256"
        }
      ],
      "payable": false,
      "stateMutability": "view",
      "type": "function"
    }
  ],
  "bytecode": "0x60606040523415600e57600080fd5b60ba8061001c6000396000f300606060405260043610603f576000357c0100000000000000000000000000000000000000000000000000000000900463ffffffff16806333a581d2146044575b600080fd5b3415604e57600080fd5b6054606a565b6040518082815260200191505060405180910390f35b7fffffffffffffffffffffffffffffffffffffffffffffffffffffffffffffffff815600a165627a7a723058206613b8d5d424feffc1853491feec8f0c2d387a1710ae810f515ebb9209aa00030029",
  "source": "pragma solidity ^0.4.9;\n \n /* https://github.com/LykkeCity/EthereumApiDotNetCore/blob/master/src/ContractBuilder/contracts/token/SafeMath.sol */\ncontract SafeMathToken {\n    uint256 constant public MAX_UINT256 =\n    0xFFFFFFFFFFFFFFFFFFFFFFFFFFFFFFFFFFFFFFFFFFFFFFFFFFFFFFFFFFFFFFFF;\n\n    function safeAdd(uint256 x, uint256 y) constant internal returns (uint256 z) {\n        if (x > MAX_UINT256 - y) throw;\n        return x + y;\n    }\n\n    function safeSub(uint256 x, uint256 y) constant internal returns (uint256 z) {\n        if (x < y) throw;\n        return x - y;\n    }\n\n    function safeMul(uint256 x, uint256 y) constant internal returns (uint256 z) {\n        if (y == 0) return 0;\n        if (x > MAX_UINT256 / y) throw;\n        return x * y;\n    }\n\n    function safeDiv(uint256 x, uint256 y) constant internal returns (uint256 z) {        \n        if (x == 0) return 0;\n        if (y == 0) throw;\n        return x / y;\n    }\n\n}\n\n contract ContractReceiver {\n    function tokenFallback(address _from, uint _value, bytes _data);\n}\n \ncontract ERC223Token is SafeMathToken {\n    \n  event Transfer(address indexed _from, address indexed _to, uint256 _value, bytes _data);\n\n  mapping(address => uint) balances;\n  address[] accountsholdingbalance; //indexing of 0 to length-1 of all accounts holding tokens\n  \n  string public name    = \"ParallelSports\";\n  string public symbol  = \"PLS\";\n  uint8 public decimals = 18;\n  uint256 public totalSupply;\n  address private owner;\n  mapping (address => bool) private contractadmins; //contract addresses allowed to tell if tokens should be issued\n\n  function ERC223Token()\n  {\n      owner = msg.sender;\n      balances[owner] = 10000000 * (10 ** decimals);\n      totalSupply = balances[owner];      \n  }\n  \n  /* Modifiers */\n  modifier onlyOwner() {\n    require(owner == msg.sender);\n    _;\n  }\n\n  modifier onlyAdmins() {\n    require(contractadmins[msg.sender]);\n    _;\n  }\n  /* Owner */\n  function setOwner (address _owner) onlyOwner() public {\n    owner = _owner;\n  }\n\n  /* Parallel Sports Contracts */\n  function setContractsAllowed (address _contract) onlyOwner() public {\n    \n  }\n  \n  // Function to access name of token .\n  function name() constant returns (string _name) {\n      return name;\n  }\n  // Function to access symbol of token .\n  function symbol() constant returns (string _symbol) {\n      return symbol;\n  }\n  // Function to access decimals of token .\n  function decimals() constant returns (uint8 _decimals) {\n      return decimals;\n  }\n  // Function to access total supply of tokens .\n  function totalSupply() constant returns (uint256 _totalSupply) {\n      return totalSupply;\n  }\n  \n  function getbalancepercentageoftotalissued(address tokenholder)public view returns(uint256 _percentageoftotalissued){\n      uint tokenissuedamount = totalSupply - balances[owner];\n      uint256 percentageoftotalissued = safeDiv(balances[tokenholder], tokenissuedamount);\n      return percentageoftotalissued;\n  }\n\n  function addaddresstotokenholders(address _address){\n      if (balances[_address] == 0)\n      {\n          accountsholdingbalance.push(_address);\n      }\n  }\n\n  function addAdmin (address _admin) onlyOwner() public {\n    contractadmins[_admin] = true;\n  }\n\n  function removeAdmin (address _admin) onlyOwner() public {\n    delete contractadmins[_admin];\n  }\n  \n  // Function that is called when a user or another contract wants to transfer funds .\n  function transfer(address _to, uint _value, bytes _data, string _custom_fallback) returns (bool success) {\n      \n    if(isContract(_to)) {\n        if (balanceOf(msg.sender) < _value) throw;\n        addaddresstotokenholders(_to);\n        balances[msg.sender] = safeSub(balanceOf(msg.sender), _value);\n        balances[_to] = safeAdd(balanceOf(_to), _value);\n        assert(_to.call.value(0)(bytes4(sha3(_custom_fallback)), msg.sender, _value, _data));\n        Transfer(msg.sender, _to, _value, _data);\n        return true;\n    }\n    else {\n        return transferToAddress(_to, _value, _data);\n    }\n}\n  \n\n  // Function that is called when a user or another contract wants to transfer funds .\n  function transfer(address _to, uint _value, bytes _data) returns (bool success) {\n      \n    if(isContract(_to)) {\n        return transferToContract(_to, _value, _data);\n    }\n    else {\n        return transferToAddress(_to, _value, _data);\n    }\n}\n  \n  // Standard function transfer similar to ERC20 transfer with no _data .\n  // Added due to backwards compatibility reasons .\n  function transfer(address _to, uint _value) returns (bool success) {\n      \n    //standard function transfer similar to ERC20 transfer with no _data\n    //added due to backwards compatibility reasons\n    bytes memory empty;\n    if(isContract(_to)) {\n        return transferToContract(_to, _value, empty);\n    }\n    else {\n        return transferToAddress(_to, _value, empty);\n    }\n}\n\n//assemble the given address bytecode. If bytecode exists then the _addr is a contract.\n  function isContract(address _addr) private returns (bool is_contract) {\n      uint length;\n      assembly {\n            //retrieve the size of the code on target address, this needs assembly\n            length := extcodesize(_addr)\n      }\n      return (length>0);\n    }\n\n  //function that is called when transaction target is an address\n  function transferToAddress(address _to, uint _value, bytes _data) private returns (bool success) {\n    if (balanceOf(msg.sender) < _value) throw;\n    addaddresstotokenholders(_to);\n    balances[msg.sender] = safeSub(balanceOf(msg.sender), _value);\n    balances[_to] = safeAdd(balanceOf(_to), _value);\n    Transfer(msg.sender, _to, _value, _data);\n    return true;\n  }\n  \n  //function that is called when transaction target is a contract\n  function transferToContract(address _to, uint _value, bytes _data) private returns (bool success) {\n    if (balanceOf(msg.sender) < _value) throw;\n    addaddresstotokenholders(_to);\n    balances[msg.sender] = safeSub(balanceOf(msg.sender), _value);\n    balances[_to] = safeAdd(balanceOf(_to), _value);\n    ContractReceiver receiver = ContractReceiver(_to);\n    receiver.tokenFallback(msg.sender, _value, _data);\n    Transfer(msg.sender, _to, _value, _data);\n    return true;\n}\n\n\n  function balanceOf(address _owner) constant returns (uint balance) {\n    return balances[_owner];\n  }\n\nfunction getbalanceOf(address _owner) external view returns (uint balance) {\n    return balances[_owner];\n  }\n\n  function sendreferraltokens(address _to, uint256 _value) returns (bool success) {\n    addaddresstotokenholders(_to);\n    balances[msg.sender] = safeSub(balanceOf(msg.sender), _value);\n    balances[_to] = safeAdd(balanceOf(_to), _value);\n    bytes memory empty;\n    Transfer(msg.sender, _to, _value, empty);\n    return true;\n  }\n\n  //Airdrop ETH inside the contract to all token holders\n  function airdrop() onlyOwner() public{\n        //airdrop ETH balance in this contract to all those holding tokens\n        //airdrop ETH percentage amounts that equal percentage of token holdings\n        uint256 totalairdropping = address(this).balance;\n        for(uint i=0;i<accountsholdingbalance.length;i++)\n        {\n            uint256 _percentagetokensoftotalissued = getbalancepercentageoftotalissued(accountsholdingbalance[i]);\n            uint256 _ethamounttosend = safeMul(totalairdropping, _percentagetokensoftotalissued);\n            address(accountsholdingbalance[i]).transfer(_ethamounttosend);\n        }\n  }\n\n}",
  "sourcePath": "/Users/Lornestar/Documents/Bitcoin/ParallelWorld/contracts/ParallelReferral.sol",
  "compiler": {
    "name": "solc",
    "version": "0.4.19+commit.c4cbbb05.Emscripten.clang"
  },
  "schemaVersion": "1.0.1",
  "updatedAt": "2018-04-14T17:06:28.886Z"
}